{
  "abi": [
    {
      "inputs": [],
      "stateMutability": "nonpayable",
      "type": "constructor"
    },
    {
      "inputs": [
        {
          "internalType": "uint256",
          "name": "x",
          "type": "uint256"
        },
        {
          "internalType": "uint256",
          "name": "y",
          "type": "uint256"
        }
      ],
      "name": "PRBMath_MulDiv18_Overflow",
      "type": "error"
    },
    {
      "inputs": [
        {
          "internalType": "uint256",
          "name": "x",
          "type": "uint256"
        },
        {
          "internalType": "uint256",
          "name": "y",
          "type": "uint256"
        },
        {
          "internalType": "uint256",
          "name": "denominator",
          "type": "uint256"
        }
      ],
      "name": "PRBMath_MulDiv_Overflow",
      "type": "error"
    },
    {
      "inputs": [],
      "name": "PRBMath_SD59x18_Div_InputTooSmall",
      "type": "error"
    },
    {
      "inputs": [
        {
          "internalType": "SD59x18",
          "name": "x",
          "type": "int256"
        },
        {
          "internalType": "SD59x18",
          "name": "y",
          "type": "int256"
        }
      ],
      "name": "PRBMath_SD59x18_Div_Overflow",
      "type": "error"
    },
    {
      "inputs": [
        {
          "internalType": "SD59x18",
          "name": "x",
          "type": "int256"
        }
      ],
      "name": "PRBMath_SD59x18_Exp2_InputTooBig",
      "type": "error"
    },
    {
      "inputs": [
        {
          "internalType": "SD59x18",
          "name": "x",
          "type": "int256"
        }
      ],
      "name": "PRBMath_SD59x18_Exp_InputTooBig",
      "type": "error"
    },
    {
      "inputs": [],
      "name": "PRBMath_SD59x18_Mul_InputTooSmall",
      "type": "error"
    },
    {
      "inputs": [
        {
          "internalType": "SD59x18",
          "name": "x",
          "type": "int256"
        },
        {
          "internalType": "SD59x18",
          "name": "y",
          "type": "int256"
        }
      ],
      "name": "PRBMath_SD59x18_Mul_Overflow",
      "type": "error"
    },
    {
      "inputs": [
        {
          "internalType": "SD59x18",
          "name": "x",
          "type": "int256"
        }
      ],
      "name": "PRBMath_SD59x18_Sqrt_NegativeInput",
      "type": "error"
    },
    {
      "inputs": [
        {
          "internalType": "SD59x18",
          "name": "x",
          "type": "int256"
        }
      ],
      "name": "PRBMath_SD59x18_Sqrt_Overflow",
      "type": "error"
    },
    {
      "anonymous": false,
      "inputs": [
        {
          "indexed": false,
          "internalType": "SD59x18[]",
          "name": "_resultDirection",
          "type": "int256[]"
        },
        {
          "indexed": false,
          "internalType": "SD59x18",
          "name": "_DRus",
          "type": "int256"
        }
      ],
      "name": "TestDirection",
      "type": "event"
    },
    {
      "anonymous": false,
      "inputs": [
        {
          "indexed": false,
          "internalType": "int256[]",
          "name": "_resultInDirection",
          "type": "int256[]"
        },
        {
          "indexed": false,
          "internalType": "int256",
          "name": "_Rus",
          "type": "int256"
        }
      ],
      "name": "TestInDirection",
      "type": "event"
    },
    {
      "inputs": [
        {
          "internalType": "address",
          "name": "",
          "type": "address"
        },
        {
          "internalType": "address",
          "name": "",
          "type": "address"
        },
        {
          "internalType": "uint256",
          "name": "",
          "type": "uint256"
        }
      ],
      "name": "DRusi",
      "outputs": [
        {
          "internalType": "SD59x18",
          "name": "",
          "type": "int256"
        }
      ],
      "stateMutability": "view",
      "type": "function"
    },
    {
      "inputs": [
        {
          "internalType": "uint256",
          "name": "",
          "type": "uint256"
        }
      ],
      "name": "DRusiedgeserver",
      "outputs": [
        {
          "internalType": "address",
          "name": "",
          "type": "address"
        }
      ],
      "stateMutability": "view",
      "type": "function"
    },
    {
      "inputs": [
        {
          "internalType": "uint256",
          "name": "",
          "type": "uint256"
        }
      ],
      "name": "DRusimobileuser",
      "outputs": [
        {
          "internalType": "address",
          "name": "",
          "type": "address"
        }
      ],
      "stateMutability": "view",
      "type": "function"
    },
    {
      "inputs": [
        {
          "internalType": "address",
          "name": "edgeserver",
          "type": "address"
        },
        {
          "internalType": "address",
          "name": "mobileuser",
          "type": "address"
        },
        {
          "internalType": "int256",
          "name": "Eus",
          "type": "int256"
        }
      ],
      "name": "DirectReputation",
      "outputs": [
        {
          "internalType": "int256",
          "name": "",
          "type": "int256"
        }
      ],
      "stateMutability": "nonpayable",
      "type": "function"
    },
    {
      "inputs": [
        {
          "internalType": "uint256",
          "name": "",
          "type": "uint256"
        }
      ],
      "name": "Eui",
      "outputs": [
        {
          "internalType": "int256",
          "name": "",
          "type": "int256"
        }
      ],
      "stateMutability": "view",
      "type": "function"
    },
    {
      "inputs": [
        {
          "internalType": "address[]",
          "name": "_addressuser",
          "type": "address[]"
        },
        {
          "internalType": "address",
          "name": "edgeserver",
          "type": "address"
        },
        {
          "internalType": "address",
          "name": "mobileuser",
          "type": "address"
        }
      ],
      "name": "IndirectReputation",
      "outputs": [],
      "stateMutability": "nonpayable",
      "type": "function"
    },
    {
      "inputs": [
        {
          "internalType": "address",
          "name": "edgeserver",
          "type": "address"
        }
      ],
      "name": "ReputationofEdgeServers",
      "outputs": [
        {
          "internalType": "int256",
          "name": "",
          "type": "int256"
        }
      ],
      "stateMutability": "nonpayable",
      "type": "function"
    },
    {
      "inputs": [
        {
          "internalType": "address",
          "name": "",
          "type": "address"
        },
        {
          "internalType": "uint256",
          "name": "",
          "type": "uint256"
        }
      ],
      "name": "Rusi",
      "outputs": [
        {
          "internalType": "int256",
          "name": "",
          "type": "int256"
        }
      ],
      "stateMutability": "view",
      "type": "function"
    },
    {
      "inputs": [
        {
          "internalType": "uint256",
          "name": "",
          "type": "uint256"
        }
      ],
      "name": "addressuser",
      "outputs": [
        {
          "internalType": "address",
          "name": "",
          "type": "address"
        }
      ],
      "stateMutability": "view",
      "type": "function"
    },
    {
      "inputs": [
        {
          "internalType": "uint256",
          "name": "",
          "type": "uint256"
        }
      ],
      "name": "blacklistedgeserver",
      "outputs": [
        {
          "internalType": "address",
          "name": "",
          "type": "address"
        }
      ],
      "stateMutability": "view",
      "type": "function"
    },
    {
      "inputs": [
        {
          "internalType": "uint256",
          "name": "",
          "type": "uint256"
        }
      ],
      "name": "duplicateuser",
      "outputs": [
        {
          "internalType": "address",
          "name": "",
          "type": "address"
        }
      ],
      "stateMutability": "view",
      "type": "function"
    },
    {
      "inputs": [
        {
          "internalType": "uint256",
          "name": "",
          "type": "uint256"
        }
      ],
      "name": "edgeserverArray",
      "outputs": [
        {
          "internalType": "address",
          "name": "",
          "type": "address"
        }
      ],
      "stateMutability": "view",
      "type": "function"
    },
    {
      "inputs": [
        {
          "internalType": "address",
          "name": "",
          "type": "address"
        }
      ],
      "name": "edgeserver_suppliers",
      "outputs": [
        {
          "internalType": "bool",
          "name": "exists",
          "type": "bool"
        },
        {
          "internalType": "bool",
          "name": "blacklist",
          "type": "bool"
        }
      ],
      "stateMutability": "view",
      "type": "function"
    },
    {
      "inputs": [],
      "name": "getDRus",
      "outputs": [
        {
          "internalType": "SD59x18",
          "name": "",
          "type": "int256"
        }
      ],
      "stateMutability": "view",
      "type": "function"
    },
    {
      "inputs": [],
      "name": "getREus",
      "outputs": [
        {
          "internalType": "SD59x18",
          "name": "",
          "type": "int256"
        }
      ],
      "stateMutability": "view",
      "type": "function"
    },
    {
      "inputs": [],
      "name": "getRus",
      "outputs": [
        {
          "internalType": "int256",
          "name": "",
          "type": "int256"
        }
      ],
      "stateMutability": "view",
      "type": "function"
    },
    {
      "inputs": [],
      "name": "getid",
      "outputs": [
        {
          "internalType": "uint256",
          "name": "",
          "type": "uint256"
        }
      ],
      "stateMutability": "view",
      "type": "function"
    },
    {
      "inputs": [],
      "name": "getn",
      "outputs": [
        {
          "internalType": "int256",
          "name": "",
          "type": "int256"
        }
      ],
      "stateMutability": "view",
      "type": "function"
    },
    {
      "inputs": [],
      "name": "getresultDirection",
      "outputs": [
        {
          "internalType": "SD59x18[]",
          "name": "",
          "type": "int256[]"
        }
      ],
      "stateMutability": "view",
      "type": "function"
    },
    {
      "inputs": [],
      "name": "getresultInDirection",
      "outputs": [
        {
          "internalType": "int256[]",
          "name": "",
          "type": "int256[]"
        }
      ],
      "stateMutability": "view",
      "type": "function"
    },
    {
      "inputs": [
        {
          "internalType": "int256",
          "name": "",
          "type": "int256"
        }
      ],
      "name": "listedgeservers",
      "outputs": [
        {
          "internalType": "bool",
          "name": "exists",
          "type": "bool"
        },
        {
          "internalType": "bool",
          "name": "blacklist",
          "type": "bool"
        }
      ],
      "stateMutability": "view",
      "type": "function"
    },
    {
      "inputs": [
        {
          "internalType": "int256",
          "name": "",
          "type": "int256"
        }
      ],
      "name": "listedmobileuser",
      "outputs": [
        {
          "internalType": "bool",
          "name": "exists",
          "type": "bool"
        }
      ],
      "stateMutability": "view",
      "type": "function"
    },
    {
      "inputs": [
        {
          "internalType": "uint256",
          "name": "",
          "type": "uint256"
        }
      ],
      "name": "mobileuserArray",
      "outputs": [
        {
          "internalType": "address",
          "name": "",
          "type": "address"
        }
      ],
      "stateMutability": "view",
      "type": "function"
    },
    {
      "inputs": [
        {
          "internalType": "address",
          "name": "",
          "type": "address"
        }
      ],
      "name": "mobileusers",
      "outputs": [
        {
          "internalType": "bool",
          "name": "exists",
          "type": "bool"
        }
      ],
      "stateMutability": "view",
      "type": "function"
    },
    {
      "inputs": [
        {
          "internalType": "address",
          "name": "",
          "type": "address"
        },
        {
          "internalType": "address",
          "name": "",
          "type": "address"
        },
        {
          "internalType": "uint256",
          "name": "",
          "type": "uint256"
        }
      ],
      "name": "reputation",
      "outputs": [
        {
          "internalType": "int256",
          "name": "",
          "type": "int256"
        }
      ],
      "stateMutability": "view",
      "type": "function"
    },
    {
      "inputs": [
        {
          "internalType": "uint256",
          "name": "",
          "type": "uint256"
        }
      ],
      "name": "result",
      "outputs": [
        {
          "internalType": "int256",
          "name": "",
          "type": "int256"
        }
      ],
      "stateMutability": "view",
      "type": "function"
    },
    {
      "inputs": [
        {
          "internalType": "uint256",
          "name": "",
          "type": "uint256"
        }
      ],
      "name": "resultDirection",
      "outputs": [
        {
          "internalType": "SD59x18",
          "name": "",
          "type": "int256"
        }
      ],
      "stateMutability": "view",
      "type": "function"
    },
    {
      "inputs": [
        {
          "internalType": "uint256",
          "name": "",
          "type": "uint256"
        }
      ],
      "name": "resultInDirection",
      "outputs": [
        {
          "internalType": "int256",
          "name": "",
          "type": "int256"
        }
      ],
      "stateMutability": "view",
      "type": "function"
    },
    {
      "inputs": [
        {
          "internalType": "SD59x18",
          "name": "_a",
          "type": "int256"
        },
        {
          "internalType": "SD59x18",
          "name": "_B",
          "type": "int256"
        }
      ],
      "name": "setaB",
      "outputs": [
        {
          "internalType": "int256",
          "name": "",
          "type": "int256"
        }
      ],
      "stateMutability": "nonpayable",
      "type": "function"
    },
    {
      "inputs": [
        {
          "internalType": "uint256",
          "name": "",
          "type": "uint256"
        }
      ],
      "name": "sunnn",
      "outputs": [
        {
          "internalType": "int256",
          "name": "",
          "type": "int256"
        }
      ],
      "stateMutability": "view",
      "type": "function"
    },
    {
      "inputs": [
        {
          "internalType": "address",
          "name": "",
          "type": "address"
        },
        {
          "internalType": "address",
          "name": "",
          "type": "address"
        },
        {
          "internalType": "uint256",
          "name": "",
          "type": "uint256"
        }
      ],
      "name": "ti",
      "outputs": [
        {
          "internalType": "int256",
          "name": "",
          "type": "int256"
        }
      ],
      "stateMutability": "view",
      "type": "function"
    }
  ],
  "bytecode": "60806040526001601255670de0b6b3a764000060155560006016556001601b556001601c556000601d5534801561003557600080fd5b50600580546001600160a01b031990811633179091556007805460018181019092557fa66cc928b5edb82af9bd49922954155ab7b0942694bea4ce44661d9a8736c68801805483169055600680548083019091557ff652222313e28459528d920b65115c16c04f3efc82aaedc97be59f3f377c0d3f018054831690557f6ee3efecae883df2d7ccda22610b4ca771a299e707cb0d65c4ec97dc4e6668ad60205260007f5fc3b46783bb3d3f5ba327350806a547ad1c555c269a8dbe2d5469bd3533b318819055600980548084019091557f6e1540171b6c0c960b71a7020d9f60077f6af931a8bbf590da0223dacf75c7af01805484169055600a8054928301815581527fc65a7bb8d6351c1cf70c95a316cc6a92839c986682d98bc35f958f4883f9d2a89091018054909216909155601e55612a4a806101766000396000f3fe608060405234801561001057600080fd5b50600436106101e55760003560e01c8063bb8cbe331161010f578063f2f4b5ee116100a2578063fc1edcbe11610071578063fc1edcbe146104ba578063fcc77797146104c2578063fd13ee9a146104d5578063fe149ed4146104f857600080fd5b8063f2f4b5ee14610460578063f513f38e14610473578063f6ed42e41461047b578063fc11f3ca146104a757600080fd5b8063d3ec0709116100de578063d3ec0709146103e1578063dd7c182114610412578063e1941fa81461041a578063f06d84ed1461042d57600080fd5b8063bb8cbe331461035d578063bfc1b94814610372578063c717eb5a1461039d578063d20a52f1146103ce57600080fd5b80635e79f8d2116101875780638d155d27116101565780638d155d27146102fc57806390c51a191461030f5780639befdf6114610317578063a2793daf1461032c57600080fd5b80635e79f8d2146102bb5780635e7b3e42146102ce5780636a368756146102d657806372d4bae5146102e957600080fd5b80633c594059116101c35780633c5940591461025757806349ee53a81461026a5780635220ea6b146102955780635c5f66d8146102a857600080fd5b80630205dfcf146101ea57806303b707cb146102015780631ef7728d14610244575b600080fd5b601a545b6040519081526020015b60405180910390f35b61022d61020f3660046124e0565b60006020819052908152604090205460ff8082169161010090041682565b6040805192151583529015156020830152016101f8565b6101ee6102523660046124fb565b61050b565b6101ee6102653660046124fb565b61052c565b61027d6102783660046124fb565b61053c565b6040516001600160a01b0390911681526020016101f8565b61027d6102a33660046124fb565b610566565b6101ee6102b6366004612514565b610576565b61027d6102c93660046124fb565b6105c8565b601e546101ee565b6101ee6102e43660046124e0565b6105d8565b6101ee6102f73660046124fb565b61065b565b6101ee61030a3660046124fb565b61066b565b6018546101ee565b61031f61067b565b6040516101f89190612536565b6101ee61033a36600461257a565b600260209081526000938452604080852082529284528284209052825290205481565b61037061036b3660046125cc565b6106d3565b005b6101ee6103803660046126b3565b602360209081526000928352604080842090915290825290205481565b6101ee6103ab36600461257a565b602160209081526000938452604080852082529284528284209052825290205481565b61027d6103dc3660046124fb565b610a9b565b6101ee6103ef36600461257a565b602260209081526000938452604080852082529284528284209052825290205481565b6024546101ee565b61027d6104283660046124fb565b610aab565b61045061043b3660046124fb565b60046020526000908152604090205460ff1681565b60405190151581526020016101f8565b61027d61046e3660046124fb565b610abb565b6012546101ee565b61022d6104893660046124fb565b60036020526000908152604090205460ff8082169161010090041682565b61027d6104b53660046124fb565b610acb565b61031f610adb565b6101ee6104d03660046124fb565b610b31565b6104506104e33660046124e0565b60016020526000908152604090205460ff1681565b6101ee61050636600461257a565b610b41565b6011818154811061051b57600080fd5b600091825260209091200154905081565b600d818154811061051b57600080fd5b6009818154811061054c57600080fd5b6000918252602090912001546001600160a01b0316905081565b600a818154811061054c57600080fd5b60008061058383856126f3565b905080670de0b6b3a7640000146105b55760405162461bcd60e51b81526004016105ac9061271b565b60405180910390fd5b601f849055602083905590505b92915050565b600c818154811061054c57600080fd5b6000806000806001600a805490506105f0919061276d565b9050801561065357600a818154811061060b5761060b612780565b6000918252602090912001546001600160a01b03908116935085168303610653576001600160a01b038516600090815260236020908152604080832084845290915290205491505b509392505050565b6008818154811061051b57600080fd5b600e818154811061051b57600080fd5b6060600f8054806020026020016040519081016040528092919081815260200182805480156106c957602002820191906000526020600020905b8154815260200190600101908083116106b5575b5050505050905090565b825160009081906106eb9060109060208801906123ee565b50600954600090819060010361070857670429d069189e00006024555b60095460011461087d5760005b60105481101561087b576009546000906107319060019061276d565b90505b8015610868576000600a828154811061074f5761074f612780565b6000918252602082200154600980546001600160a01b039092169350908490811061077c5761077c612780565b6000918252602090912001546001600160a01b039081169150828116908b160361085357601084815481106107b3576107b3612780565b6000918252602090912001546001600160a01b0390811690821603610853576001600160a01b0382166000908152602160205260408120601080549192918790811061080157610801612780565b60009182526020808320909101546001600160a01b031683528281019390935260409182018120868252909252902054955061083d8887611660565b975086610849816127ad565b9750505050610868565b5050808061086090612796565b915050610734565b5080610873816127cc565b915050610715565b505b601e5460000361089457670429d069189e00006024555b601e5415610944576108a6848461166f565b90506108ba670de0b6b3a7640000826127f4565b6000131580156108db5750670de0b6b3a76400006108d881836127f4565b13155b6108e7576108e7612830565b6000610900601a54601f5461174590919063ffffffff16565b905060006109198360205461174590919063ffffffff16565b9050816000610930670de0b6b3a7640000846127f4565b905061093c81836126f3565b602455505050505b6024546001600160a01b038716600090815260236020908152604080832060018085529252909120919091558061097a816127cc565b9150506000602454136109ed57600c8054600181019091557fdf6966c971051c3d54ec59162606531493a51404a002842f56009d7e5cf4a8c70180546001600160a01b0389166001600160a01b031990911681179091556000908152602081905260409020805461ff0019166101001790555b6040518060400160405280670de0b6b3a7640000610a088590565b610a1291906127f4565b8152602454602090910152610a2b90600f906002612453565b50602454600013158015610a495750670de0b6b3a764000060245413155b610a5557610a55612830565b7f4d255dcd33e05ce849013431ac308b42d5c51407bbcb01d13b5292489854bbab600f602454604051610a89929190612846565b60405180910390a15050505050505050565b6007818154811061054c57600080fd5b6010818154811061054c57600080fd5b600b818154811061054c57600080fd5b6006818154811061054c57600080fd5b6060600e8054806020026020016040519081016040528092919081815260200182805480156106c957602002820191906000526020600020908154815260200190600101908083116106b5575050505050905090565b600f818154811061051b57600080fd5b600081600013158015610b5c5750670de0b6b3a76400008213155b610b785760405162461bcd60e51b81526004016105ac9061271b565b610b846008600061248e565b600060168190556017819055601381905560148190558080610ba5816117e9565b601855610bb260006117e9565b601a55610bbf60006117e9565b6019556000601e5560015b600654811015610d3f5760078181548110610be757610be7612780565b600091825260209091200154602580546001600160a01b0319166001600160a01b039092169190911790556006805482908110610c2657610c26612780565b600091825260209091200154602680546001600160a01b0319166001600160a01b0392831690811790915590881603610d2d57602580546001600160a01b039081166000908152600260208181526040808420602680548716865290835281852088865283528185205460088054600181019091557ff3f7a9fe364faab93b216da50a3214154f22a0a2b415b23a84c8169e8b636ee3015595548516845291815281832094549093168252928252828120848252909152908120546016805491929091610cf49084906126f3565b90915550829050610d04816127ad565b6025549093506001600160a01b03908116908a16039050610d2d5782610d29816127ad565b9350505b80610d37816127cc565b915050610bca565b5080600003610e09576007805460018181019092557fa66cc928b5edb82af9bd49922954155ab7b0942694bea4ce44661d9a8736c6880180546001600160a01b03808b166001600160a01b031992831681179093556006805494850190557ff652222313e28459528d920b65115c16c04f3efc82aaedc97be59f3f377c0d3f9093018054938a1693909116831790556000908152600260209081526040808320938352928152828220601280548452915291812087905581549190610e03836127cc565b91905055505b81600003610ed8578015610ed8576007805460018181019092557fa66cc928b5edb82af9bd49922954155ab7b0942694bea4ce44661d9a8736c6880180546001600160a01b03808b166001600160a01b031992831681179093556006805494850190557ff652222313e28459528d920b65115c16c04f3efc82aaedc97be59f3f377c0d3f9093018054938a1693909116831790556000908152600260209081526040808320938352928152828220601280548452915291812087905581549190610ed2836127cc565b91905055505b81156115885780156115885780601654610ef291906127f4565b60175560005b600854811015610f675760175460088281548110610f1857610f18612780565b9060005260206000200154610f2d9190612896565b6013819055610f3e906002906129f2565b60146000828254610f4f91906126f3565b90915550819050610f5f816127cc565b915050610ef8565b506007805460018181019092557fa66cc928b5edb82af9bd49922954155ab7b0942694bea4ce44661d9a8736c6880180546001600160a01b03808b166001600160a01b031992831681179093556006805494850190557ff652222313e28459528d920b65115c16c04f3efc82aaedc97be59f3f377c0d3f9093018054938a1693909116831790556000908152600260209081526040808320938352928152828220601280548452915291812087905581549190611023836127cc565b9190505550600061103d6110348390565b6014549061166f565b905080611052670de0b6b3a7640000826127f4565b9050611066670de0b6b3a7640000826127f4565b90508091506000611076836117f1565b9050600061108382611875565b601554909150611093908261166f565b60185560006110b36110ac6110a98960016126f3565b90565b889061166f565b905060006110c0826117f1565b601981905590506110de6110d78c60185490611745565b8290611745565b601a8190555060098c9080600181540180825580915050600190039060005260206000200160009091909190916101000a8154816001600160a01b0302191690836001600160a01b03160217905550600a8d9080600181540180825580915050600190039060005260206000200160009091909190916101000a8154816001600160a01b0302191690836001600160a01b03160217905550601a54602160008f6001600160a01b03166001600160a01b0316815260200190815260200160002060008e6001600160a01b03166001600160a01b031681526020019081526020016000206000601b5481526020019081526020016000208190555087602260008f6001600160a01b03166001600160a01b0316815260200190815260200160002060008e6001600160a01b03166001600160a01b031681526020019081526020016000206000601c54815260200190815260200160002081905550601b600081548092919061124b906127cc565b9091555050601c8054906000611260836127cc565b919050555060005b600654811015611369576007818154811061128557611285612780565b600091825260209091200154602580546001600160a01b0319166001600160a01b0390921691909117905560068054829081106112c4576112c4612780565b600091825260209091200154602680546001600160a01b0319166001600160a01b039283161790556025548116908f16036113575789611303816127ad565b9a5050600b6006828154811061131b5761131b612780565b60009182526020808320909101548354600181018555938352912090910180546001600160a01b0319166001600160a01b039092169190911790555b80611361816127cc565b915050611268565b50600b5460009081808267ffffffffffffffff81111561138b5761138b6125b6565b6040519080825280602002602001820160405280156113b4578160200160208202803683370190505b50905060005b6113c560018561276d565b8110156114a757600b6113d9826001612a01565b815481106113e9576113e9612780565b600091825260209091200154600b80546001600160a01b03909216918390811061141557611415612780565b6000918252602090912001546001600160a01b03161461149557600b818154811061144257611442612780565b6000918252602090912001546001600160a01b03168284611462816127cc565b95508151811061147457611474612780565b60200260200101906001600160a01b031690816001600160a01b0316815250505b8061149f816127cc565b9150506113ba565b50600b6114b560018561276d565b815481106114c5576114c5612780565b6000918252602090912001546001600160a01b031681836114e5816127cc565b9450815181106114f7576114f7612780565b60200260200101906001600160a01b031690816001600160a01b03168152505060005b838110156115755781818151811061153457611534612780565b60200260200101516001600160a01b031660006001600160a01b031614611563578461155f816127ad565b9550505b8061156d816127cc565b91505061151a565b505050601d8b905550601e555050505050505b6040518060e001604052806018548152602001601a54815260200160195481526020016115b28590565b81526020016115c0601d5490565b81526020018381526020016115d4601e5490565b90526115e490600e906007612453565b50601a546000131580156116085750670de0b6b3a7640000611605601a5490565b13155b61161457611614612830565b7f081fa83f2837a4e2b96d42d5d5b1fdd3858bf084421586bbd486a1044f83dcdd600e601a54604051611648929190612846565b60405180910390a160145493505050505b9392505050565b60006116596110a983856126f3565b60008282600160ff1b8214806116885750600160ff1b81145b156116a6576040516309fe2b4560e41b815260040160405180910390fd5b600080600084126116b757836116bc565b836000035b9150600083126116cc57826116d1565b826000035b905060006116e883670de0b6b3a7640000846118e4565b90506001600160ff1b0381111561171c5760405163d49c26b360e01b815260048101899052602481018890526044016105ac565b600019858518136117388161173457826000036110a9565b8290565b9998505050505050505050565b60008282600160ff1b82148061175e5750600160ff1b81145b1561177c5760405163a6070c2560e01b815260040160405180910390fd5b6000806000841261178d5783611792565b836000035b9150600083126117a257826117a7565b826000035b905060006117b583836119b8565b90506001600160ff1b0381111561171c5760405163120b5b4360e01b815260048101899052602481018890526044016105ac565b6000816105c2565b600081818112156118185760405163b9b0f49b60e01b8152600481018490526024016105ac565b611831670de0b6b3a76400006001600160ff1b036127f4565b8113156118545760405163063103bf60e01b8152600481018490526024016105ac565b6000611869670de0b6b3a76400008302611a6c565b9050805b949350505050565b60008168023f2fa8f6da5b9d31198112156118935750600092915050565b680736ea4425c11ac63181126118bf5760405163ca7ec0c560e01b8152600481018490526024016105ac565b6714057b7ef767814f810261186d6118df670de0b6b3a7640000835b0590565b611be4565b600080806000198587098587029250828110838203039150508060000361191e57838281611914576119146127de565b0492505050611659565b83811061194f57604051630c740aef60e31b81526004810187905260248101869052604481018590526064016105ac565b60008486880960026001871981018816978890046003810283188082028403028082028403028082028403028082028403028082028403029081029092039091026000889003889004909101858311909403939093029303949094049190911702949350505050565b60008080600019848609848602925082811083820303915050670de0b6b3a76400008110611a0357604051635173648d60e01b815260048101869052602481018590526044016105ac565b6000670de0b6b3a7640000858709905081600003611a2f575050670de0b6b3a7640000900490506105c2565b620400008184030492109003600160ee1b02177faccb18165bd6fe31ae1cf318dc5b51eee0e1ba569b88cd74c1773b91fac1066902905092915050565b600081600003611a7e57506000919050565b50600181600160801b8110611a985760409190911b9060801c5b680100000000000000008110611ab35760209190911b9060401c5b6401000000008110611aca5760109190911b9060201c5b620100008110611adf5760089190911b9060101c5b6101008110611af35760049190911b9060081c5b60108110611b065760029190911b9060041c5b60048110611b1657600182901b91505b6001828481611b2757611b276127de565b048301901c91506001828481611b3f57611b3f6127de565b048301901c91506001828481611b5757611b576127de565b048301901c91506001828481611b6f57611b6f6127de565b048301901c91506001828481611b8757611b876127de565b048301901c91506001828481611b9f57611b9f6127de565b048301901c91506001828481611bb757611bb76127de565b048301901c91506000828481611bcf57611bcf6127de565b049050808310611bdd578092505b5050919050565b60008181811215611c415768033dd1780914b9711419811215611c0a5750600092915050565b611c3a611c1d6110a96118df8460000390565b6ec097ce7bc90715b34b9f1000000000816118db576118db6127de565b9150611c87565b680a688906bd8b0000008112611c6c57604051626c1a0560e31b8152600481018490526024016105ac565b670de0b6b3a7640000604082901b0561186d6110a982611c8d565b50919050565b600160bf1b67ff00000000000000821615611d9a57678000000000000000821615611cc15768016a09e667f3bcc9090260401c5b674000000000000000821615611ce0576801306fe0a31b7152df0260401c5b672000000000000000821615611cff576801172b83c7d517adce0260401c5b671000000000000000821615611d1e5768010b5586cf9890f62a0260401c5b670800000000000000821615611d3d576801059b0d31585743ae0260401c5b670400000000000000821615611d5c57680102c9a3e778060ee70260401c5b670200000000000000821615611d7b5768010163da9fb33356d80260401c5b670100000000000000821615611d9a57680100b1afa5abcbed610260401c5b66ff000000000000821615611e99576680000000000000821615611dc75768010058c86da1c09ea20260401c5b6640000000000000821615611de5576801002c605e2e8cec500260401c5b6620000000000000821615611e0357680100162f3904051fa10260401c5b6610000000000000821615611e21576801000b175effdc76ba0260401c5b6608000000000000821615611e3f57680100058ba01fb9f96d0260401c5b6604000000000000821615611e5d5768010002c5cc37da94920260401c5b6602000000000000821615611e7b576801000162e525ee05470260401c5b6601000000000000821615611e995768010000b17255775c040260401c5b65ff0000000000821615611f8f5765800000000000821615611ec4576801000058b91b5bc9ae0260401c5b65400000000000821615611ee157680100002c5c89d5ec6d0260401c5b65200000000000821615611efe5768010000162e43f4f8310260401c5b65100000000000821615611f1b57680100000b1721bcfc9a0260401c5b65080000000000821615611f385768010000058b90cf1e6e0260401c5b65040000000000821615611f55576801000002c5c863b73f0260401c5b65020000000000821615611f7257680100000162e430e5a20260401c5b65010000000000821615611f8f576801000000b1721835510260401c5b64ff0000000082161561207c57648000000000821615611fb857680100000058b90c0b490260401c5b644000000000821615611fd45768010000002c5c8601cc0260401c5b642000000000821615611ff0576801000000162e42fff00260401c5b64100000000082161561200c5768010000000b17217fbb0260401c5b640800000000821615612028576801000000058b90bfce0260401c5b64040000000082161561204457680100000002c5c85fe30260401c5b6402000000008216156120605768010000000162e42ff10260401c5b64010000000082161561207c57680100000000b17217f80260401c5b64ff000000008216156121615763800000008216156120a45768010000000058b90bfc0260401c5b63400000008216156120bf576801000000002c5c85fe0260401c5b63200000008216156120da57680100000000162e42ff0260401c5b63100000008216156120f5576801000000000b17217f0260401c5b630800000082161561211057680100000000058b90c00260401c5b630400000082161561212b5768010000000002c5c8600260401c5b6302000000821615612146576801000000000162e4300260401c5b63010000008216156121615768010000000000b172180260401c5b62ff000082161561223c5762800000821615612186576801000000000058b90c0260401c5b624000008216156121a057680100000000002c5c860260401c5b622000008216156121ba5768010000000000162e430260401c5b621000008216156121d457680100000000000b17210260401c5b620800008216156121ee5768010000000000058b910260401c5b62040000821615612208576801000000000002c5c80260401c5b6202000082161561222257680100000000000162e40260401c5b6201000082161561223c576801000000000000b1720260401c5b61ff0082161561230e5761800082161561225f57680100000000000058b90260401c5b6140008216156122785768010000000000002c5d0260401c5b612000821615612291576801000000000000162e0260401c5b6110008216156122aa5768010000000000000b170260401c5b6108008216156122c3576801000000000000058c0260401c5b6104008216156122dc57680100000000000002c60260401c5b6102008216156122f557680100000000000001630260401c5b61010082161561230e57680100000000000000b10260401c5b60ff8216156123d757608082161561232f57680100000000000000590260401c5b6040821615612347576801000000000000002c0260401c5b602082161561235f57680100000000000000160260401c5b6010821615612377576801000000000000000b0260401c5b600882161561238f57680100000000000000060260401c5b60048216156123a757680100000000000000030260401c5b60028216156123bf57680100000000000000010260401c5b60018216156123d757680100000000000000010260401c5b670de0b6b3a76400000260409190911c60bf031c90565b828054828255906000526020600020908101928215612443579160200282015b8281111561244357825182546001600160a01b0319166001600160a01b0390911617825560209092019160019091019061240e565b5061244f9291506124af565b5090565b828054828255906000526020600020908101928215612443579160200282015b82811115612443578251825591602001919060010190612473565b50805460008255906000526020600020908101906124ac91906124af565b50565b5b8082111561244f57600081556001016124b0565b80356001600160a01b03811681146124db57600080fd5b919050565b6000602082840312156124f257600080fd5b611659826124c4565b60006020828403121561250d57600080fd5b5035919050565b6000806040838503121561252757600080fd5b50508035926020909101359150565b6020808252825182820181905260009190848201906040850190845b8181101561256e57835183529284019291840191600101612552565b50909695505050505050565b60008060006060848603121561258f57600080fd5b612598846124c4565b92506125a6602085016124c4565b9150604084013590509250925092565b634e487b7160e01b600052604160045260246000fd5b6000806000606084860312156125e157600080fd5b833567ffffffffffffffff808211156125f957600080fd5b818601915086601f83011261260d57600080fd5b8135602082821115612621576126216125b6565b8160051b604051601f19603f83011681018181108682111715612646576126466125b6565b60405292835281830193508481018201928a84111561266457600080fd5b948201945b838610156126895761267a866124c4565b85529482019493820193612669565b975061269890508882016124c4565b9550505050506126aa604085016124c4565b90509250925092565b600080604083850312156126c657600080fd5b6126cf836124c4565b946020939093013593505050565b634e487b7160e01b600052601160045260246000fd5b8082018281126000831280158216821582161715612713576127136126dd565b505092915050565b60208082526032908201527f54686520656e74657265642076616c75652069732077726f6e672c20706c656160408201527139b29032b73a32b91034ba1030b3b0b4b71760711b606082015260800190565b818103818111156105c2576105c26126dd565b634e487b7160e01b600052603260045260246000fd5b6000816127a5576127a56126dd565b506000190190565b60006001600160ff1b0182016127c5576127c56126dd565b5060010190565b6000600182016127c5576127c56126dd565b634e487b7160e01b600052601260045260246000fd5b60008261281157634e487b7160e01b600052601260045260246000fd5b600160ff1b82146000198414161561282b5761282b6126dd565b500590565b634e487b7160e01b600052600160045260246000fd5b6000604082016040835280855480835260608501915086600052602092508260002060005b828110156128875781548452928401926001918201910161286b565b50505092019290925292915050565b81810360008312801583831316838312821617156128b6576128b66126dd565b5092915050565b80825b60018086116128cf5750612902565b6001600160ff1b038290048211156128e9576128e96126dd565b808616156128f657918102915b9490941c9380026128c0565b935093915050565b6000828015612920576001811461292a57612933565b60019150506105c2565b829150506105c2565b5081612941575060006105c2565b5060016000821380821461295a57801561297957612993565b6001600160ff1b03839004831115612974576129746126dd565b612993565b6001600160ff1b03839005831215612993576129936126dd565b508083161561299f5750805b6129af8360011c838402836128bd565b600082136001600160ff1b03829004831116156129ce576129ce6126dd565b60008212600160ff1b829005831216156129ea576129ea6126dd565b029392505050565b600061165960ff84168361290a565b808201808211156105c2576105c26126dd56fea26469706673582212200dae3d5dab4d19d8eabe8b270dd67a129b8d3a0c9966d022368e1ff127429f5d64736f6c63430008140033",
  "bytecodeSha1": "59be76dcd9844dc48fe48ed2cb222b4d1e9d695d",
  "compiler": {
    "evm_version": "istanbul",
    "optimizer": {
      "enabled": true,
      "runs": 200
    },
    "version": "0.8.20+commit.a1b79de6"
  },
  "contractName": "Reputationcalculation",
  "language": "Solidity",
  "natspec": {
    "errors": {
      "PRBMath_MulDiv18_Overflow(uint256,uint256)": [
        {
          "notice": "Emitted when the ending result in the fixed-point version of `mulDiv` would overflow uint256."
        }
      ],
      "PRBMath_MulDiv_Overflow(uint256,uint256,uint256)": [
        {
          "notice": "Emitted when the ending result in `mulDiv` would overflow uint256."
        }
      ],
      "PRBMath_SD59x18_Div_InputTooSmall()": [
        {
          "notice": "Emitted when dividing two numbers and one of them is `MIN_SD59x18`."
        }
      ],
      "PRBMath_SD59x18_Div_Overflow(int256,int256)": [
        {
          "notice": "Emitted when dividing two numbers and one of the intermediary unsigned results overflows SD59x18."
        }
      ],
      "PRBMath_SD59x18_Exp2_InputTooBig(int256)": [
        {
          "notice": "Emitted when taking the binary exponent of a base greater than 192."
        }
      ],
      "PRBMath_SD59x18_Exp_InputTooBig(int256)": [
        {
          "notice": "Emitted when taking the natural exponent of a base greater than 133.084258667509499441."
        }
      ],
      "PRBMath_SD59x18_Mul_InputTooSmall()": [
        {
          "notice": "Emitted when multiplying two numbers and one of the inputs is `MIN_SD59x18`."
        }
      ],
      "PRBMath_SD59x18_Mul_Overflow(int256,int256)": [
        {
          "notice": "Emitted when multiplying two numbers and the intermediary absolute result overflows SD59x18."
        }
      ],
      "PRBMath_SD59x18_Sqrt_NegativeInput(int256)": [
        {
          "notice": "Emitted when taking the square root of a negative number."
        }
      ],
      "PRBMath_SD59x18_Sqrt_Overflow(int256)": [
        {
          "notice": "Emitted when the calculating the square root overflows SD59x18."
        }
      ]
    },
    "kind": "dev",
    "methods": {},
    "version": 1
  },
  "opcodes": "PUSH1 0x80 PUSH1 0x40 MSTORE CALLVALUE DUP1 ISZERO PUSH2 0x10 JUMPI PUSH1 0x0 DUP1 REVERT JUMPDEST POP PUSH1 0x4 CALLDATASIZE LT PUSH2 0x1E5 JUMPI PUSH1 0x0 CALLDATALOAD PUSH1 0xE0 SHR DUP1 PUSH4 0xBB8CBE33 GT PUSH2 0x10F JUMPI DUP1 PUSH4 0xF2F4B5EE GT PUSH2 0xA2 JUMPI DUP1 PUSH4 0xFC1EDCBE GT PUSH2 0x71 JUMPI DUP1 PUSH4 0xFC1EDCBE EQ PUSH2 0x4BA JUMPI DUP1 PUSH4 0xFCC77797 EQ PUSH2 0x4C2 JUMPI DUP1 PUSH4 0xFD13EE9A EQ PUSH2 0x4D5 JUMPI DUP1 PUSH4 0xFE149ED4 EQ PUSH2 0x4F8 JUMPI PUSH1 0x0 DUP1 REVERT JUMPDEST DUP1 PUSH4 0xF2F4B5EE EQ PUSH2 0x460 JUMPI DUP1 PUSH4 0xF513F38E EQ PUSH2 0x473 JUMPI DUP1 PUSH4 0xF6ED42E4 EQ PUSH2 0x47B JUMPI DUP1 PUSH4 0xFC11F3CA EQ PUSH2 0x4A7 JUMPI PUSH1 0x0 DUP1 REVERT JUMPDEST DUP1 PUSH4 0xD3EC0709 GT PUSH2 0xDE JUMPI DUP1 PUSH4 0xD3EC0709 EQ PUSH2 0x3E1 JUMPI DUP1 PUSH4 0xDD7C1821 EQ PUSH2 0x412 JUMPI DUP1 PUSH4 0xE1941FA8 EQ PUSH2 0x41A JUMPI DUP1 PUSH4 0xF06D84ED EQ PUSH2 0x42D JUMPI PUSH1 0x0 DUP1 REVERT JUMPDEST DUP1 PUSH4 0xBB8CBE33 EQ PUSH2 0x35D JUMPI DUP1 PUSH4 0xBFC1B948 EQ PUSH2 0x372 JUMPI DUP1 PUSH4 0xC717EB5A EQ PUSH2 0x39D JUMPI DUP1 PUSH4 0xD20A52F1 EQ PUSH2 0x3CE JUMPI PUSH1 0x0 DUP1 REVERT JUMPDEST DUP1 PUSH4 0x5E79F8D2 GT PUSH2 0x187 JUMPI DUP1 PUSH4 0x8D155D27 GT PUSH2 0x156 JUMPI DUP1 PUSH4 0x8D155D27 EQ PUSH2 0x2FC JUMPI DUP1 PUSH4 0x90C51A19 EQ PUSH2 0x30F JUMPI DUP1 PUSH4 0x9BEFDF61 EQ PUSH2 0x317 JUMPI DUP1 PUSH4 0xA2793DAF EQ PUSH2 0x32C JUMPI PUSH1 0x0 DUP1 REVERT JUMPDEST DUP1 PUSH4 0x5E79F8D2 EQ PUSH2 0x2BB JUMPI DUP1 PUSH4 0x5E7B3E42 EQ PUSH2 0x2CE JUMPI DUP1 PUSH4 0x6A368756 EQ PUSH2 0x2D6 JUMPI DUP1 PUSH4 0x72D4BAE5 EQ PUSH2 0x2E9 JUMPI PUSH1 0x0 DUP1 REVERT JUMPDEST DUP1 PUSH4 0x3C594059 GT PUSH2 0x1C3 JUMPI DUP1 PUSH4 0x3C594059 EQ PUSH2 0x257 JUMPI DUP1 PUSH4 0x49EE53A8 EQ PUSH2 0x26A JUMPI DUP1 PUSH4 0x5220EA6B EQ PUSH2 0x295 JUMPI DUP1 PUSH4 0x5C5F66D8 EQ PUSH2 0x2A8 JUMPI PUSH1 0x0 DUP1 REVERT JUMPDEST DUP1 PUSH4 0x205DFCF EQ PUSH2 0x1EA JUMPI DUP1 PUSH4 0x3B707CB EQ PUSH2 0x201 JUMPI DUP1 PUSH4 0x1EF7728D EQ PUSH2 0x244 JUMPI JUMPDEST PUSH1 0x0 DUP1 REVERT JUMPDEST PUSH1 0x1A SLOAD JUMPDEST PUSH1 0x40 MLOAD SWAP1 DUP2 MSTORE PUSH1 0x20 ADD JUMPDEST PUSH1 0x40 MLOAD DUP1 SWAP2 SUB SWAP1 RETURN JUMPDEST PUSH2 0x22D PUSH2 0x20F CALLDATASIZE PUSH1 0x4 PUSH2 0x24E0 JUMP JUMPDEST PUSH1 0x0 PUSH1 0x20 DUP2 SWAP1 MSTORE SWAP1 DUP2 MSTORE PUSH1 0x40 SWAP1 KECCAK256 SLOAD PUSH1 0xFF DUP1 DUP3 AND SWAP2 PUSH2 0x100 SWAP1 DIV AND DUP3 JUMP JUMPDEST PUSH1 0x40 DUP1 MLOAD SWAP3 ISZERO ISZERO DUP4 MSTORE SWAP1 ISZERO ISZERO PUSH1 0x20 DUP4 ADD MSTORE ADD PUSH2 0x1F8 JUMP JUMPDEST PUSH2 0x1EE PUSH2 0x252 CALLDATASIZE PUSH1 0x4 PUSH2 0x24FB JUMP JUMPDEST PUSH2 0x50B JUMP JUMPDEST PUSH2 0x1EE PUSH2 0x265 CALLDATASIZE PUSH1 0x4 PUSH2 0x24FB JUMP JUMPDEST PUSH2 0x52C JUMP JUMPDEST PUSH2 0x27D PUSH2 0x278 CALLDATASIZE PUSH1 0x4 PUSH2 0x24FB JUMP JUMPDEST PUSH2 0x53C JUMP JUMPDEST PUSH1 0x40 MLOAD PUSH1 0x1 PUSH1 0x1 PUSH1 0xA0 SHL SUB SWAP1 SWAP2 AND DUP2 MSTORE PUSH1 0x20 ADD PUSH2 0x1F8 JUMP JUMPDEST PUSH2 0x27D PUSH2 0x2A3 CALLDATASIZE PUSH1 0x4 PUSH2 0x24FB JUMP JUMPDEST PUSH2 0x566 JUMP JUMPDEST PUSH2 0x1EE PUSH2 0x2B6 CALLDATASIZE PUSH1 0x4 PUSH2 0x2514 JUMP JUMPDEST PUSH2 0x576 JUMP JUMPDEST PUSH2 0x27D PUSH2 0x2C9 CALLDATASIZE PUSH1 0x4 PUSH2 0x24FB JUMP JUMPDEST PUSH2 0x5C8 JUMP JUMPDEST PUSH1 0x1E SLOAD PUSH2 0x1EE JUMP JUMPDEST PUSH2 0x1EE PUSH2 0x2E4 CALLDATASIZE PUSH1 0x4 PUSH2 0x24E0 JUMP JUMPDEST PUSH2 0x5D8 JUMP JUMPDEST PUSH2 0x1EE PUSH2 0x2F7 CALLDATASIZE PUSH1 0x4 PUSH2 0x24FB JUMP JUMPDEST PUSH2 0x65B JUMP JUMPDEST PUSH2 0x1EE PUSH2 0x30A CALLDATASIZE PUSH1 0x4 PUSH2 0x24FB JUMP JUMPDEST PUSH2 0x66B JUMP JUMPDEST PUSH1 0x18 SLOAD PUSH2 0x1EE JUMP JUMPDEST PUSH2 0x31F PUSH2 0x67B JUMP JUMPDEST PUSH1 0x40 MLOAD PUSH2 0x1F8 SWAP2 SWAP1 PUSH2 0x2536 JUMP JUMPDEST PUSH2 0x1EE PUSH2 0x33A CALLDATASIZE PUSH1 0x4 PUSH2 0x257A JUMP JUMPDEST PUSH1 0x2 PUSH1 0x20 SWAP1 DUP2 MSTORE PUSH1 0x0 SWAP4 DUP5 MSTORE PUSH1 0x40 DUP1 DUP6 KECCAK256 DUP3 MSTORE SWAP3 DUP5 MSTORE DUP3 DUP5 KECCAK256 SWAP1 MSTORE DUP3 MSTORE SWAP1 KECCAK256 SLOAD DUP2 JUMP JUMPDEST PUSH2 0x370 PUSH2 0x36B CALLDATASIZE PUSH1 0x4 PUSH2 0x25CC JUMP JUMPDEST PUSH2 0x6D3 JUMP JUMPDEST STOP JUMPDEST PUSH2 0x1EE PUSH2 0x380 CALLDATASIZE PUSH1 0x4 PUSH2 0x26B3 JUMP JUMPDEST PUSH1 0x23 PUSH1 0x20 SWAP1 DUP2 MSTORE PUSH1 0x0 SWAP3 DUP4 MSTORE PUSH1 0x40 DUP1 DUP5 KECCAK256 SWAP1 SWAP2 MSTORE SWAP1 DUP3 MSTORE SWAP1 KECCAK256 SLOAD DUP2 JUMP JUMPDEST PUSH2 0x1EE PUSH2 0x3AB CALLDATASIZE PUSH1 0x4 PUSH2 0x257A JUMP JUMPDEST PUSH1 0x21 PUSH1 0x20 SWAP1 DUP2 MSTORE PUSH1 0x0 SWAP4 DUP5 MSTORE PUSH1 0x40 DUP1 DUP6 KECCAK256 DUP3 MSTORE SWAP3 DUP5 MSTORE DUP3 DUP5 KECCAK256 SWAP1 MSTORE DUP3 MSTORE SWAP1 KECCAK256 SLOAD DUP2 JUMP JUMPDEST PUSH2 0x27D PUSH2 0x3DC CALLDATASIZE PUSH1 0x4 PUSH2 0x24FB JUMP JUMPDEST PUSH2 0xA9B JUMP JUMPDEST PUSH2 0x1EE PUSH2 0x3EF CALLDATASIZE PUSH1 0x4 PUSH2 0x257A JUMP JUMPDEST PUSH1 0x22 PUSH1 0x20 SWAP1 DUP2 MSTORE PUSH1 0x0 SWAP4 DUP5 MSTORE PUSH1 0x40 DUP1 DUP6 KECCAK256 DUP3 MSTORE SWAP3 DUP5 MSTORE DUP3 DUP5 KECCAK256 SWAP1 MSTORE DUP3 MSTORE SWAP1 KECCAK256 SLOAD DUP2 JUMP JUMPDEST PUSH1 0x24 SLOAD PUSH2 0x1EE JUMP JUMPDEST PUSH2 0x27D PUSH2 0x428 CALLDATASIZE PUSH1 0x4 PUSH2 0x24FB JUMP JUMPDEST PUSH2 0xAAB JUMP JUMPDEST PUSH2 0x450 PUSH2 0x43B CALLDATASIZE PUSH1 0x4 PUSH2 0x24FB JUMP JUMPDEST PUSH1 0x4 PUSH1 0x20 MSTORE PUSH1 0x0 SWAP1 DUP2 MSTORE PUSH1 0x40 SWAP1 KECCAK256 SLOAD PUSH1 0xFF AND DUP2 JUMP JUMPDEST PUSH1 0x40 MLOAD SWAP1 ISZERO ISZERO DUP2 MSTORE PUSH1 0x20 ADD PUSH2 0x1F8 JUMP JUMPDEST PUSH2 0x27D PUSH2 0x46E CALLDATASIZE PUSH1 0x4 PUSH2 0x24FB JUMP JUMPDEST PUSH2 0xABB JUMP JUMPDEST PUSH1 0x12 SLOAD PUSH2 0x1EE JUMP JUMPDEST PUSH2 0x22D PUSH2 0x489 CALLDATASIZE PUSH1 0x4 PUSH2 0x24FB JUMP JUMPDEST PUSH1 0x3 PUSH1 0x20 MSTORE PUSH1 0x0 SWAP1 DUP2 MSTORE PUSH1 0x40 SWAP1 KECCAK256 SLOAD PUSH1 0xFF DUP1 DUP3 AND SWAP2 PUSH2 0x100 SWAP1 DIV AND DUP3 JUMP JUMPDEST PUSH2 0x27D PUSH2 0x4B5 CALLDATASIZE PUSH1 0x4 PUSH2 0x24FB JUMP JUMPDEST PUSH2 0xACB JUMP JUMPDEST PUSH2 0x31F PUSH2 0xADB JUMP JUMPDEST PUSH2 0x1EE PUSH2 0x4D0 CALLDATASIZE PUSH1 0x4 PUSH2 0x24FB JUMP JUMPDEST PUSH2 0xB31 JUMP JUMPDEST PUSH2 0x450 PUSH2 0x4E3 CALLDATASIZE PUSH1 0x4 PUSH2 0x24E0 JUMP JUMPDEST PUSH1 0x1 PUSH1 0x20 MSTORE PUSH1 0x0 SWAP1 DUP2 MSTORE PUSH1 0x40 SWAP1 KECCAK256 SLOAD PUSH1 0xFF AND DUP2 JUMP JUMPDEST PUSH2 0x1EE PUSH2 0x506 CALLDATASIZE PUSH1 0x4 PUSH2 0x257A JUMP JUMPDEST PUSH2 0xB41 JUMP JUMPDEST PUSH1 0x11 DUP2 DUP2 SLOAD DUP2 LT PUSH2 0x51B JUMPI PUSH1 0x0 DUP1 REVERT JUMPDEST PUSH1 0x0 SWAP2 DUP3 MSTORE PUSH1 0x20 SWAP1 SWAP2 KECCAK256 ADD SLOAD SWAP1 POP DUP2 JUMP JUMPDEST PUSH1 0xD DUP2 DUP2 SLOAD DUP2 LT PUSH2 0x51B JUMPI PUSH1 0x0 DUP1 REVERT JUMPDEST PUSH1 0x9 DUP2 DUP2 SLOAD DUP2 LT PUSH2 0x54C JUMPI PUSH1 0x0 DUP1 REVERT JUMPDEST PUSH1 0x0 SWAP2 DUP3 MSTORE PUSH1 0x20 SWAP1 SWAP2 KECCAK256 ADD SLOAD PUSH1 0x1 PUSH1 0x1 PUSH1 0xA0 SHL SUB AND SWAP1 POP DUP2 JUMP JUMPDEST PUSH1 0xA DUP2 DUP2 SLOAD DUP2 LT PUSH2 0x54C JUMPI PUSH1 0x0 DUP1 REVERT JUMPDEST PUSH1 0x0 DUP1 PUSH2 0x583 DUP4 DUP6 PUSH2 0x26F3 JUMP JUMPDEST SWAP1 POP DUP1 PUSH8 0xDE0B6B3A7640000 EQ PUSH2 0x5B5 JUMPI PUSH1 0x40 MLOAD PUSH3 0x461BCD PUSH1 0xE5 SHL DUP2 MSTORE PUSH1 0x4 ADD PUSH2 0x5AC SWAP1 PUSH2 0x271B JUMP JUMPDEST PUSH1 0x40 MLOAD DUP1 SWAP2 SUB SWAP1 REVERT JUMPDEST PUSH1 0x1F DUP5 SWAP1 SSTORE PUSH1 0x20 DUP4 SWAP1 SSTORE SWAP1 POP JUMPDEST SWAP3 SWAP2 POP POP JUMP JUMPDEST PUSH1 0xC DUP2 DUP2 SLOAD DUP2 LT PUSH2 0x54C JUMPI PUSH1 0x0 DUP1 REVERT JUMPDEST PUSH1 0x0 DUP1 PUSH1 0x0 DUP1 PUSH1 0x1 PUSH1 0xA DUP1 SLOAD SWAP1 POP PUSH2 0x5F0 SWAP2 SWAP1 PUSH2 0x276D JUMP JUMPDEST SWAP1 POP DUP1 ISZERO PUSH2 0x653 JUMPI PUSH1 0xA DUP2 DUP2 SLOAD DUP2 LT PUSH2 0x60B JUMPI PUSH2 0x60B PUSH2 0x2780 JUMP JUMPDEST PUSH1 0x0 SWAP2 DUP3 MSTORE PUSH1 0x20 SWAP1 SWAP2 KECCAK256 ADD SLOAD PUSH1 0x1 PUSH1 0x1 PUSH1 0xA0 SHL SUB SWAP1 DUP2 AND SWAP4 POP DUP6 AND DUP4 SUB PUSH2 0x653 JUMPI PUSH1 0x1 PUSH1 0x1 PUSH1 0xA0 SHL SUB DUP6 AND PUSH1 0x0 SWAP1 DUP2 MSTORE PUSH1 0x23 PUSH1 0x20 SWAP1 DUP2 MSTORE PUSH1 0x40 DUP1 DUP4 KECCAK256 DUP5 DUP5 MSTORE SWAP1 SWAP2 MSTORE SWAP1 KECCAK256 SLOAD SWAP2 POP JUMPDEST POP SWAP4 SWAP3 POP POP POP JUMP JUMPDEST PUSH1 0x8 DUP2 DUP2 SLOAD DUP2 LT PUSH2 0x51B JUMPI PUSH1 0x0 DUP1 REVERT JUMPDEST PUSH1 0xE DUP2 DUP2 SLOAD DUP2 LT PUSH2 0x51B JUMPI PUSH1 0x0 DUP1 REVERT JUMPDEST PUSH1 0x60 PUSH1 0xF DUP1 SLOAD DUP1 PUSH1 0x20 MUL PUSH1 0x20 ADD PUSH1 0x40 MLOAD SWAP1 DUP2 ADD PUSH1 0x40 MSTORE DUP1 SWAP3 SWAP2 SWAP1 DUP2 DUP2 MSTORE PUSH1 0x20 ADD DUP3 DUP1 SLOAD DUP1 ISZERO PUSH2 0x6C9 JUMPI PUSH1 0x20 MUL DUP3 ADD SWAP2 SWAP1 PUSH1 0x0 MSTORE PUSH1 0x20 PUSH1 0x0 KECCAK256 SWAP1 JUMPDEST DUP2 SLOAD DUP2 MSTORE PUSH1 0x20 ADD SWAP1 PUSH1 0x1 ADD SWAP1 DUP1 DUP4 GT PUSH2 0x6B5 JUMPI JUMPDEST POP POP POP POP POP SWAP1 POP SWAP1 JUMP JUMPDEST DUP3 MLOAD PUSH1 0x0 SWAP1 DUP2 SWAP1 PUSH2 0x6EB SWAP1 PUSH1 0x10 SWAP1 PUSH1 0x20 DUP9 ADD SWAP1 PUSH2 0x23EE JUMP JUMPDEST POP PUSH1 0x9 SLOAD PUSH1 0x0 SWAP1 DUP2 SWAP1 PUSH1 0x1 SUB PUSH2 0x708 JUMPI PUSH8 0x429D069189E0000 PUSH1 0x24 SSTORE JUMPDEST PUSH1 0x9 SLOAD PUSH1 0x1 EQ PUSH2 0x87D JUMPI PUSH1 0x0 JUMPDEST PUSH1 0x10 SLOAD DUP2 LT ISZERO PUSH2 0x87B JUMPI PUSH1 0x9 SLOAD PUSH1 0x0 SWAP1 PUSH2 0x731 SWAP1 PUSH1 0x1 SWAP1 PUSH2 0x276D JUMP JUMPDEST SWAP1 POP JUMPDEST DUP1 ISZERO PUSH2 0x868 JUMPI PUSH1 0x0 PUSH1 0xA DUP3 DUP2 SLOAD DUP2 LT PUSH2 0x74F JUMPI PUSH2 0x74F PUSH2 0x2780 JUMP JUMPDEST PUSH1 0x0 SWAP2 DUP3 MSTORE PUSH1 0x20 DUP3 KECCAK256 ADD SLOAD PUSH1 0x9 DUP1 SLOAD PUSH1 0x1 PUSH1 0x1 PUSH1 0xA0 SHL SUB SWAP1 SWAP3 AND SWAP4 POP SWAP1 DUP5 SWAP1 DUP2 LT PUSH2 0x77C JUMPI PUSH2 0x77C PUSH2 0x2780 JUMP JUMPDEST PUSH1 0x0 SWAP2 DUP3 MSTORE PUSH1 0x20 SWAP1 SWAP2 KECCAK256 ADD SLOAD PUSH1 0x1 PUSH1 0x1 PUSH1 0xA0 SHL SUB SWAP1 DUP2 AND SWAP2 POP DUP3 DUP2 AND SWAP1 DUP12 AND SUB PUSH2 0x853 JUMPI PUSH1 0x10 DUP5 DUP2 SLOAD DUP2 LT PUSH2 0x7B3 JUMPI PUSH2 0x7B3 PUSH2 0x2780 JUMP JUMPDEST PUSH1 0x0 SWAP2 DUP3 MSTORE PUSH1 0x20 SWAP1 SWAP2 KECCAK256 ADD SLOAD PUSH1 0x1 PUSH1 0x1 PUSH1 0xA0 SHL SUB SWAP1 DUP2 AND SWAP1 DUP3 AND SUB PUSH2 0x853 JUMPI PUSH1 0x1 PUSH1 0x1 PUSH1 0xA0 SHL SUB DUP3 AND PUSH1 0x0 SWAP1 DUP2 MSTORE PUSH1 0x21 PUSH1 0x20 MSTORE PUSH1 0x40 DUP2 KECCAK256 PUSH1 0x10 DUP1 SLOAD SWAP2 SWAP3 SWAP2 DUP8 SWAP1 DUP2 LT PUSH2 0x801 JUMPI PUSH2 0x801 PUSH2 0x2780 JUMP JUMPDEST PUSH1 0x0 SWAP2 DUP3 MSTORE PUSH1 0x20 DUP1 DUP4 KECCAK256 SWAP1 SWAP2 ADD SLOAD PUSH1 0x1 PUSH1 0x1 PUSH1 0xA0 SHL SUB AND DUP4 MSTORE DUP3 DUP2 ADD SWAP4 SWAP1 SWAP4 MSTORE PUSH1 0x40 SWAP2 DUP3 ADD DUP2 KECCAK256 DUP7 DUP3 MSTORE SWAP1 SWAP3 MSTORE SWAP1 KECCAK256 SLOAD SWAP6 POP PUSH2 0x83D DUP9 DUP8 PUSH2 0x1660 JUMP JUMPDEST SWAP8 POP DUP7 PUSH2 0x849 DUP2 PUSH2 0x27AD JUMP JUMPDEST SWAP8 POP POP POP POP PUSH2 0x868 JUMP JUMPDEST POP POP DUP1 DUP1 PUSH2 0x860 SWAP1 PUSH2 0x2796 JUMP JUMPDEST SWAP2 POP POP PUSH2 0x734 JUMP JUMPDEST POP DUP1 PUSH2 0x873 DUP2 PUSH2 0x27CC JUMP JUMPDEST SWAP2 POP POP PUSH2 0x715 JUMP JUMPDEST POP JUMPDEST PUSH1 0x1E SLOAD PUSH1 0x0 SUB PUSH2 0x894 JUMPI PUSH8 0x429D069189E0000 PUSH1 0x24 SSTORE JUMPDEST PUSH1 0x1E SLOAD ISZERO PUSH2 0x944 JUMPI PUSH2 0x8A6 DUP5 DUP5 PUSH2 0x166F JUMP JUMPDEST SWAP1 POP PUSH2 0x8BA PUSH8 0xDE0B6B3A7640000 DUP3 PUSH2 0x27F4 JUMP JUMPDEST PUSH1 0x0 SGT ISZERO DUP1 ISZERO PUSH2 0x8DB JUMPI POP PUSH8 0xDE0B6B3A7640000 PUSH2 0x8D8 DUP2 DUP4 PUSH2 0x27F4 JUMP JUMPDEST SGT ISZERO JUMPDEST PUSH2 0x8E7 JUMPI PUSH2 0x8E7 PUSH2 0x2830 JUMP JUMPDEST PUSH1 0x0 PUSH2 0x900 PUSH1 0x1A SLOAD PUSH1 0x1F SLOAD PUSH2 0x1745 SWAP1 SWAP2 SWAP1 PUSH4 0xFFFFFFFF AND JUMP JUMPDEST SWAP1 POP PUSH1 0x0 PUSH2 0x919 DUP4 PUSH1 0x20 SLOAD PUSH2 0x1745 SWAP1 SWAP2 SWAP1 PUSH4 0xFFFFFFFF AND JUMP JUMPDEST SWAP1 POP DUP2 PUSH1 0x0 PUSH2 0x930 PUSH8 0xDE0B6B3A7640000 DUP5 PUSH2 0x27F4 JUMP JUMPDEST SWAP1 POP PUSH2 0x93C DUP2 DUP4 PUSH2 0x26F3 JUMP JUMPDEST PUSH1 0x24 SSTORE POP POP POP POP JUMPDEST PUSH1 0x24 SLOAD PUSH1 0x1 PUSH1 0x1 PUSH1 0xA0 SHL SUB DUP8 AND PUSH1 0x0 SWAP1 DUP2 MSTORE PUSH1 0x23 PUSH1 0x20 SWAP1 DUP2 MSTORE PUSH1 0x40 DUP1 DUP4 KECCAK256 PUSH1 0x1 DUP1 DUP6 MSTORE SWAP3 MSTORE SWAP1 SWAP2 KECCAK256 SWAP2 SWAP1 SWAP2 SSTORE DUP1 PUSH2 0x97A DUP2 PUSH2 0x27CC JUMP JUMPDEST SWAP2 POP POP PUSH1 0x0 PUSH1 0x24 SLOAD SGT PUSH2 0x9ED JUMPI PUSH1 0xC DUP1 SLOAD PUSH1 0x1 DUP2 ADD SWAP1 SWAP2 SSTORE PUSH32 0xDF6966C971051C3D54EC59162606531493A51404A002842F56009D7E5CF4A8C7 ADD DUP1 SLOAD PUSH1 0x1 PUSH1 0x1 PUSH1 0xA0 SHL SUB DUP10 AND PUSH1 0x1 PUSH1 0x1 PUSH1 0xA0 SHL SUB NOT SWAP1 SWAP2 AND DUP2 OR SWAP1 SWAP2 SSTORE PUSH1 0x0 SWAP1 DUP2 MSTORE PUSH1 0x20 DUP2 SWAP1 MSTORE PUSH1 0x40 SWAP1 KECCAK256 DUP1 SLOAD PUSH2 0xFF00 NOT AND PUSH2 0x100 OR SWAP1 SSTORE JUMPDEST PUSH1 0x40 MLOAD DUP1 PUSH1 0x40 ADD PUSH1 0x40 MSTORE DUP1 PUSH8 0xDE0B6B3A7640000 PUSH2 0xA08 DUP6 SWAP1 JUMP JUMPDEST PUSH2 0xA12 SWAP2 SWAP1 PUSH2 0x27F4 JUMP JUMPDEST DUP2 MSTORE PUSH1 0x24 SLOAD PUSH1 0x20 SWAP1 SWAP2 ADD MSTORE PUSH2 0xA2B SWAP1 PUSH1 0xF SWAP1 PUSH1 0x2 PUSH2 0x2453 JUMP JUMPDEST POP PUSH1 0x24 SLOAD PUSH1 0x0 SGT ISZERO DUP1 ISZERO PUSH2 0xA49 JUMPI POP PUSH8 0xDE0B6B3A7640000 PUSH1 0x24 SLOAD SGT ISZERO JUMPDEST PUSH2 0xA55 JUMPI PUSH2 0xA55 PUSH2 0x2830 JUMP JUMPDEST PUSH32 0x4D255DCD33E05CE849013431AC308B42D5C51407BBCB01D13B5292489854BBAB PUSH1 0xF PUSH1 0x24 SLOAD PUSH1 0x40 MLOAD PUSH2 0xA89 SWAP3 SWAP2 SWAP1 PUSH2 0x2846 JUMP JUMPDEST PUSH1 0x40 MLOAD DUP1 SWAP2 SUB SWAP1 LOG1 POP POP POP POP POP POP POP POP JUMP JUMPDEST PUSH1 0x7 DUP2 DUP2 SLOAD DUP2 LT PUSH2 0x54C JUMPI PUSH1 0x0 DUP1 REVERT JUMPDEST PUSH1 0x10 DUP2 DUP2 SLOAD DUP2 LT PUSH2 0x54C JUMPI PUSH1 0x0 DUP1 REVERT JUMPDEST PUSH1 0xB DUP2 DUP2 SLOAD DUP2 LT PUSH2 0x54C JUMPI PUSH1 0x0 DUP1 REVERT JUMPDEST PUSH1 0x6 DUP2 DUP2 SLOAD DUP2 LT PUSH2 0x54C JUMPI PUSH1 0x0 DUP1 REVERT JUMPDEST PUSH1 0x60 PUSH1 0xE DUP1 SLOAD DUP1 PUSH1 0x20 MUL PUSH1 0x20 ADD PUSH1 0x40 MLOAD SWAP1 DUP2 ADD PUSH1 0x40 MSTORE DUP1 SWAP3 SWAP2 SWAP1 DUP2 DUP2 MSTORE PUSH1 0x20 ADD DUP3 DUP1 SLOAD DUP1 ISZERO PUSH2 0x6C9 JUMPI PUSH1 0x20 MUL DUP3 ADD SWAP2 SWAP1 PUSH1 0x0 MSTORE PUSH1 0x20 PUSH1 0x0 KECCAK256 SWAP1 DUP2 SLOAD DUP2 MSTORE PUSH1 0x20 ADD SWAP1 PUSH1 0x1 ADD SWAP1 DUP1 DUP4 GT PUSH2 0x6B5 JUMPI POP POP POP POP POP SWAP1 POP SWAP1 JUMP JUMPDEST PUSH1 0xF DUP2 DUP2 SLOAD DUP2 LT PUSH2 0x51B JUMPI PUSH1 0x0 DUP1 REVERT JUMPDEST PUSH1 0x0 DUP2 PUSH1 0x0 SGT ISZERO DUP1 ISZERO PUSH2 0xB5C JUMPI POP PUSH8 0xDE0B6B3A7640000 DUP3 SGT ISZERO JUMPDEST PUSH2 0xB78 JUMPI PUSH1 0x40 MLOAD PUSH3 0x461BCD PUSH1 0xE5 SHL DUP2 MSTORE PUSH1 0x4 ADD PUSH2 0x5AC SWAP1 PUSH2 0x271B JUMP JUMPDEST PUSH2 0xB84 PUSH1 0x8 PUSH1 0x0 PUSH2 0x248E JUMP JUMPDEST PUSH1 0x0 PUSH1 0x16 DUP2 SWAP1 SSTORE PUSH1 0x17 DUP2 SWAP1 SSTORE PUSH1 0x13 DUP2 SWAP1 SSTORE PUSH1 0x14 DUP2 SWAP1 SSTORE DUP1 DUP1 PUSH2 0xBA5 DUP2 PUSH2 0x17E9 JUMP JUMPDEST PUSH1 0x18 SSTORE PUSH2 0xBB2 PUSH1 0x0 PUSH2 0x17E9 JUMP JUMPDEST PUSH1 0x1A SSTORE PUSH2 0xBBF PUSH1 0x0 PUSH2 0x17E9 JUMP JUMPDEST PUSH1 0x19 SSTORE PUSH1 0x0 PUSH1 0x1E SSTORE PUSH1 0x1 JUMPDEST PUSH1 0x6 SLOAD DUP2 LT ISZERO PUSH2 0xD3F JUMPI PUSH1 0x7 DUP2 DUP2 SLOAD DUP2 LT PUSH2 0xBE7 JUMPI PUSH2 0xBE7 PUSH2 0x2780 JUMP JUMPDEST PUSH1 0x0 SWAP2 DUP3 MSTORE PUSH1 0x20 SWAP1 SWAP2 KECCAK256 ADD SLOAD PUSH1 0x25 DUP1 SLOAD PUSH1 0x1 PUSH1 0x1 PUSH1 0xA0 SHL SUB NOT AND PUSH1 0x1 PUSH1 0x1 PUSH1 0xA0 SHL SUB SWAP1 SWAP3 AND SWAP2 SWAP1 SWAP2 OR SWAP1 SSTORE PUSH1 0x6 DUP1 SLOAD DUP3 SWAP1 DUP2 LT PUSH2 0xC26 JUMPI PUSH2 0xC26 PUSH2 0x2780 JUMP JUMPDEST PUSH1 0x0 SWAP2 DUP3 MSTORE PUSH1 0x20 SWAP1 SWAP2 KECCAK256 ADD SLOAD PUSH1 0x26 DUP1 SLOAD PUSH1 0x1 PUSH1 0x1 PUSH1 0xA0 SHL SUB NOT AND PUSH1 0x1 PUSH1 0x1 PUSH1 0xA0 SHL SUB SWAP3 DUP4 AND SWAP1 DUP2 OR SWAP1 SWAP2 SSTORE SWAP1 DUP9 AND SUB PUSH2 0xD2D JUMPI PUSH1 0x25 DUP1 SLOAD PUSH1 0x1 PUSH1 0x1 PUSH1 0xA0 SHL SUB SWAP1 DUP2 AND PUSH1 0x0 SWAP1 DUP2 MSTORE PUSH1 0x2 PUSH1 0x20 DUP2 DUP2 MSTORE PUSH1 0x40 DUP1 DUP5 KECCAK256 PUSH1 0x26 DUP1 SLOAD DUP8 AND DUP7 MSTORE SWAP1 DUP4 MSTORE DUP2 DUP6 KECCAK256 DUP9 DUP7 MSTORE DUP4 MSTORE DUP2 DUP6 KECCAK256 SLOAD PUSH1 0x8 DUP1 SLOAD PUSH1 0x1 DUP2 ADD SWAP1 SWAP2 SSTORE PUSH32 0xF3F7A9FE364FAAB93B216DA50A3214154F22A0A2B415B23A84C8169E8B636EE3 ADD SSTORE SWAP6 SLOAD DUP6 AND DUP5 MSTORE SWAP2 DUP2 MSTORE DUP2 DUP4 KECCAK256 SWAP5 SLOAD SWAP1 SWAP4 AND DUP3 MSTORE SWAP3 DUP3 MSTORE DUP3 DUP2 KECCAK256 DUP5 DUP3 MSTORE SWAP1 SWAP2 MSTORE SWAP1 DUP2 KECCAK256 SLOAD PUSH1 0x16 DUP1 SLOAD SWAP2 SWAP3 SWAP1 SWAP2 PUSH2 0xCF4 SWAP1 DUP5 SWAP1 PUSH2 0x26F3 JUMP JUMPDEST SWAP1 SWAP2 SSTORE POP DUP3 SWAP1 POP PUSH2 0xD04 DUP2 PUSH2 0x27AD JUMP JUMPDEST PUSH1 0x25 SLOAD SWAP1 SWAP4 POP PUSH1 0x1 PUSH1 0x1 PUSH1 0xA0 SHL SUB SWAP1 DUP2 AND SWAP1 DUP11 AND SUB SWAP1 POP PUSH2 0xD2D JUMPI DUP3 PUSH2 0xD29 DUP2 PUSH2 0x27AD JUMP JUMPDEST SWAP4 POP POP JUMPDEST DUP1 PUSH2 0xD37 DUP2 PUSH2 0x27CC JUMP JUMPDEST SWAP2 POP POP PUSH2 0xBCA JUMP JUMPDEST POP DUP1 PUSH1 0x0 SUB PUSH2 0xE09 JUMPI PUSH1 0x7 DUP1 SLOAD PUSH1 0x1 DUP2 DUP2 ADD SWAP1 SWAP3 SSTORE PUSH32 0xA66CC928B5EDB82AF9BD49922954155AB7B0942694BEA4CE44661D9A8736C688 ADD DUP1 SLOAD PUSH1 0x1 PUSH1 0x1 PUSH1 0xA0 SHL SUB DUP1 DUP12 AND PUSH1 0x1 PUSH1 0x1 PUSH1 0xA0 SHL SUB NOT SWAP3 DUP4 AND DUP2 OR SWAP1 SWAP4 SSTORE PUSH1 0x6 DUP1 SLOAD SWAP5 DUP6 ADD SWAP1 SSTORE PUSH32 0xF652222313E28459528D920B65115C16C04F3EFC82AAEDC97BE59F3F377C0D3F SWAP1 SWAP4 ADD DUP1 SLOAD SWAP4 DUP11 AND SWAP4 SWAP1 SWAP2 AND DUP4 OR SWAP1 SSTORE PUSH1 0x0 SWAP1 DUP2 MSTORE PUSH1 0x2 PUSH1 0x20 SWAP1 DUP2 MSTORE PUSH1 0x40 DUP1 DUP4 KECCAK256 SWAP4 DUP4 MSTORE SWAP3 DUP2 MSTORE DUP3 DUP3 KECCAK256 PUSH1 0x12 DUP1 SLOAD DUP5 MSTORE SWAP2 MSTORE SWAP2 DUP2 KECCAK256 DUP8 SWAP1 SSTORE DUP2 SLOAD SWAP2 SWAP1 PUSH2 0xE03 DUP4 PUSH2 0x27CC JUMP JUMPDEST SWAP2 SWAP1 POP SSTORE POP JUMPDEST DUP2 PUSH1 0x0 SUB PUSH2 0xED8 JUMPI DUP1 ISZERO PUSH2 0xED8 JUMPI PUSH1 0x7 DUP1 SLOAD PUSH1 0x1 DUP2 DUP2 ADD SWAP1 SWAP3 SSTORE PUSH32 0xA66CC928B5EDB82AF9BD49922954155AB7B0942694BEA4CE44661D9A8736C688 ADD DUP1 SLOAD PUSH1 0x1 PUSH1 0x1 PUSH1 0xA0 SHL SUB DUP1 DUP12 AND PUSH1 0x1 PUSH1 0x1 PUSH1 0xA0 SHL SUB NOT SWAP3 DUP4 AND DUP2 OR SWAP1 SWAP4 SSTORE PUSH1 0x6 DUP1 SLOAD SWAP5 DUP6 ADD SWAP1 SSTORE PUSH32 0xF652222313E28459528D920B65115C16C04F3EFC82AAEDC97BE59F3F377C0D3F SWAP1 SWAP4 ADD DUP1 SLOAD SWAP4 DUP11 AND SWAP4 SWAP1 SWAP2 AND DUP4 OR SWAP1 SSTORE PUSH1 0x0 SWAP1 DUP2 MSTORE PUSH1 0x2 PUSH1 0x20 SWAP1 DUP2 MSTORE PUSH1 0x40 DUP1 DUP4 KECCAK256 SWAP4 DUP4 MSTORE SWAP3 DUP2 MSTORE DUP3 DUP3 KECCAK256 PUSH1 0x12 DUP1 SLOAD DUP5 MSTORE SWAP2 MSTORE SWAP2 DUP2 KECCAK256 DUP8 SWAP1 SSTORE DUP2 SLOAD SWAP2 SWAP1 PUSH2 0xED2 DUP4 PUSH2 0x27CC JUMP JUMPDEST SWAP2 SWAP1 POP SSTORE POP JUMPDEST DUP2 ISZERO PUSH2 0x1588 JUMPI DUP1 ISZERO PUSH2 0x1588 JUMPI DUP1 PUSH1 0x16 SLOAD PUSH2 0xEF2 SWAP2 SWAP1 PUSH2 0x27F4 JUMP JUMPDEST PUSH1 0x17 SSTORE PUSH1 0x0 JUMPDEST PUSH1 0x8 SLOAD DUP2 LT ISZERO PUSH2 0xF67 JUMPI PUSH1 0x17 SLOAD PUSH1 0x8 DUP3 DUP2 SLOAD DUP2 LT PUSH2 0xF18 JUMPI PUSH2 0xF18 PUSH2 0x2780 JUMP JUMPDEST SWAP1 PUSH1 0x0 MSTORE PUSH1 0x20 PUSH1 0x0 KECCAK256 ADD SLOAD PUSH2 0xF2D SWAP2 SWAP1 PUSH2 0x2896 JUMP JUMPDEST PUSH1 0x13 DUP2 SWAP1 SSTORE PUSH2 0xF3E SWAP1 PUSH1 0x2 SWAP1 PUSH2 0x29F2 JUMP JUMPDEST PUSH1 0x14 PUSH1 0x0 DUP3 DUP3 SLOAD PUSH2 0xF4F SWAP2 SWAP1 PUSH2 0x26F3 JUMP JUMPDEST SWAP1 SWAP2 SSTORE POP DUP2 SWAP1 POP PUSH2 0xF5F DUP2 PUSH2 0x27CC JUMP JUMPDEST SWAP2 POP POP PUSH2 0xEF8 JUMP JUMPDEST POP PUSH1 0x7 DUP1 SLOAD PUSH1 0x1 DUP2 DUP2 ADD SWAP1 SWAP3 SSTORE PUSH32 0xA66CC928B5EDB82AF9BD49922954155AB7B0942694BEA4CE44661D9A8736C688 ADD DUP1 SLOAD PUSH1 0x1 PUSH1 0x1 PUSH1 0xA0 SHL SUB DUP1 DUP12 AND PUSH1 0x1 PUSH1 0x1 PUSH1 0xA0 SHL SUB NOT SWAP3 DUP4 AND DUP2 OR SWAP1 SWAP4 SSTORE PUSH1 0x6 DUP1 SLOAD SWAP5 DUP6 ADD SWAP1 SSTORE PUSH32 0xF652222313E28459528D920B65115C16C04F3EFC82AAEDC97BE59F3F377C0D3F SWAP1 SWAP4 ADD DUP1 SLOAD SWAP4 DUP11 AND SWAP4 SWAP1 SWAP2 AND DUP4 OR SWAP1 SSTORE PUSH1 0x0 SWAP1 DUP2 MSTORE PUSH1 0x2 PUSH1 0x20 SWAP1 DUP2 MSTORE PUSH1 0x40 DUP1 DUP4 KECCAK256 SWAP4 DUP4 MSTORE SWAP3 DUP2 MSTORE DUP3 DUP3 KECCAK256 PUSH1 0x12 DUP1 SLOAD DUP5 MSTORE SWAP2 MSTORE SWAP2 DUP2 KECCAK256 DUP8 SWAP1 SSTORE DUP2 SLOAD SWAP2 SWAP1 PUSH2 0x1023 DUP4 PUSH2 0x27CC JUMP JUMPDEST SWAP2 SWAP1 POP SSTORE POP PUSH1 0x0 PUSH2 0x103D PUSH2 0x1034 DUP4 SWAP1 JUMP JUMPDEST PUSH1 0x14 SLOAD SWAP1 PUSH2 0x166F JUMP JUMPDEST SWAP1 POP DUP1 PUSH2 0x1052 PUSH8 0xDE0B6B3A7640000 DUP3 PUSH2 0x27F4 JUMP JUMPDEST SWAP1 POP PUSH2 0x1066 PUSH8 0xDE0B6B3A7640000 DUP3 PUSH2 0x27F4 JUMP JUMPDEST SWAP1 POP DUP1 SWAP2 POP PUSH1 0x0 PUSH2 0x1076 DUP4 PUSH2 0x17F1 JUMP JUMPDEST SWAP1 POP PUSH1 0x0 PUSH2 0x1083 DUP3 PUSH2 0x1875 JUMP JUMPDEST PUSH1 0x15 SLOAD SWAP1 SWAP2 POP PUSH2 0x1093 SWAP1 DUP3 PUSH2 0x166F JUMP JUMPDEST PUSH1 0x18 SSTORE PUSH1 0x0 PUSH2 0x10B3 PUSH2 0x10AC PUSH2 0x10A9 DUP10 PUSH1 0x1 PUSH2 0x26F3 JUMP JUMPDEST SWAP1 JUMP JUMPDEST DUP9 SWAP1 PUSH2 0x166F JUMP JUMPDEST SWAP1 POP PUSH1 0x0 PUSH2 0x10C0 DUP3 PUSH2 0x17F1 JUMP JUMPDEST PUSH1 0x19 DUP2 SWAP1 SSTORE SWAP1 POP PUSH2 0x10DE PUSH2 0x10D7 DUP13 PUSH1 0x18 SLOAD SWAP1 PUSH2 0x1745 JUMP JUMPDEST DUP3 SWAP1 PUSH2 0x1745 JUMP JUMPDEST PUSH1 0x1A DUP2 SWAP1 SSTORE POP PUSH1 0x9 DUP13 SWAP1 DUP1 PUSH1 0x1 DUP2 SLOAD ADD DUP1 DUP3 SSTORE DUP1 SWAP2 POP POP PUSH1 0x1 SWAP1 SUB SWAP1 PUSH1 0x0 MSTORE PUSH1 0x20 PUSH1 0x0 KECCAK256 ADD PUSH1 0x0 SWAP1 SWAP2 SWAP1 SWAP2 SWAP1 SWAP2 PUSH2 0x100 EXP DUP2 SLOAD DUP2 PUSH1 0x1 PUSH1 0x1 PUSH1 0xA0 SHL SUB MUL NOT AND SWAP1 DUP4 PUSH1 0x1 PUSH1 0x1 PUSH1 0xA0 SHL SUB AND MUL OR SWAP1 SSTORE POP PUSH1 0xA DUP14 SWAP1 DUP1 PUSH1 0x1 DUP2 SLOAD ADD DUP1 DUP3 SSTORE DUP1 SWAP2 POP POP PUSH1 0x1 SWAP1 SUB SWAP1 PUSH1 0x0 MSTORE PUSH1 0x20 PUSH1 0x0 KECCAK256 ADD PUSH1 0x0 SWAP1 SWAP2 SWAP1 SWAP2 SWAP1 SWAP2 PUSH2 0x100 EXP DUP2 SLOAD DUP2 PUSH1 0x1 PUSH1 0x1 PUSH1 0xA0 SHL SUB MUL NOT AND SWAP1 DUP4 PUSH1 0x1 PUSH1 0x1 PUSH1 0xA0 SHL SUB AND MUL OR SWAP1 SSTORE POP PUSH1 0x1A SLOAD PUSH1 0x21 PUSH1 0x0 DUP16 PUSH1 0x1 PUSH1 0x1 PUSH1 0xA0 SHL SUB AND PUSH1 0x1 PUSH1 0x1 PUSH1 0xA0 SHL SUB AND DUP2 MSTORE PUSH1 0x20 ADD SWAP1 DUP2 MSTORE PUSH1 0x20 ADD PUSH1 0x0 KECCAK256 PUSH1 0x0 DUP15 PUSH1 0x1 PUSH1 0x1 PUSH1 0xA0 SHL SUB AND PUSH1 0x1 PUSH1 0x1 PUSH1 0xA0 SHL SUB AND DUP2 MSTORE PUSH1 0x20 ADD SWAP1 DUP2 MSTORE PUSH1 0x20 ADD PUSH1 0x0 KECCAK256 PUSH1 0x0 PUSH1 0x1B SLOAD DUP2 MSTORE PUSH1 0x20 ADD SWAP1 DUP2 MSTORE PUSH1 0x20 ADD PUSH1 0x0 KECCAK256 DUP2 SWAP1 SSTORE POP DUP8 PUSH1 0x22 PUSH1 0x0 DUP16 PUSH1 0x1 PUSH1 0x1 PUSH1 0xA0 SHL SUB AND PUSH1 0x1 PUSH1 0x1 PUSH1 0xA0 SHL SUB AND DUP2 MSTORE PUSH1 0x20 ADD SWAP1 DUP2 MSTORE PUSH1 0x20 ADD PUSH1 0x0 KECCAK256 PUSH1 0x0 DUP15 PUSH1 0x1 PUSH1 0x1 PUSH1 0xA0 SHL SUB AND PUSH1 0x1 PUSH1 0x1 PUSH1 0xA0 SHL SUB AND DUP2 MSTORE PUSH1 0x20 ADD SWAP1 DUP2 MSTORE PUSH1 0x20 ADD PUSH1 0x0 KECCAK256 PUSH1 0x0 PUSH1 0x1C SLOAD DUP2 MSTORE PUSH1 0x20 ADD SWAP1 DUP2 MSTORE PUSH1 0x20 ADD PUSH1 0x0 KECCAK256 DUP2 SWAP1 SSTORE POP PUSH1 0x1B PUSH1 0x0 DUP2 SLOAD DUP1 SWAP3 SWAP2 SWAP1 PUSH2 0x124B SWAP1 PUSH2 0x27CC JUMP JUMPDEST SWAP1 SWAP2 SSTORE POP POP PUSH1 0x1C DUP1 SLOAD SWAP1 PUSH1 0x0 PUSH2 0x1260 DUP4 PUSH2 0x27CC JUMP JUMPDEST SWAP2 SWAP1 POP SSTORE POP PUSH1 0x0 JUMPDEST PUSH1 0x6 SLOAD DUP2 LT ISZERO PUSH2 0x1369 JUMPI PUSH1 0x7 DUP2 DUP2 SLOAD DUP2 LT PUSH2 0x1285 JUMPI PUSH2 0x1285 PUSH2 0x2780 JUMP JUMPDEST PUSH1 0x0 SWAP2 DUP3 MSTORE PUSH1 0x20 SWAP1 SWAP2 KECCAK256 ADD SLOAD PUSH1 0x25 DUP1 SLOAD PUSH1 0x1 PUSH1 0x1 PUSH1 0xA0 SHL SUB NOT AND PUSH1 0x1 PUSH1 0x1 PUSH1 0xA0 SHL SUB SWAP1 SWAP3 AND SWAP2 SWAP1 SWAP2 OR SWAP1 SSTORE PUSH1 0x6 DUP1 SLOAD DUP3 SWAP1 DUP2 LT PUSH2 0x12C4 JUMPI PUSH2 0x12C4 PUSH2 0x2780 JUMP JUMPDEST PUSH1 0x0 SWAP2 DUP3 MSTORE PUSH1 0x20 SWAP1 SWAP2 KECCAK256 ADD SLOAD PUSH1 0x26 DUP1 SLOAD PUSH1 0x1 PUSH1 0x1 PUSH1 0xA0 SHL SUB NOT AND PUSH1 0x1 PUSH1 0x1 PUSH1 0xA0 SHL SUB SWAP3 DUP4 AND OR SWAP1 SSTORE PUSH1 0x25 SLOAD DUP2 AND SWAP1 DUP16 AND SUB PUSH2 0x1357 JUMPI DUP10 PUSH2 0x1303 DUP2 PUSH2 0x27AD JUMP JUMPDEST SWAP11 POP POP PUSH1 0xB PUSH1 0x6 DUP3 DUP2 SLOAD DUP2 LT PUSH2 0x131B JUMPI PUSH2 0x131B PUSH2 0x2780 JUMP JUMPDEST PUSH1 0x0 SWAP2 DUP3 MSTORE PUSH1 0x20 DUP1 DUP4 KECCAK256 SWAP1 SWAP2 ADD SLOAD DUP4 SLOAD PUSH1 0x1 DUP2 ADD DUP6 SSTORE SWAP4 DUP4 MSTORE SWAP2 KECCAK256 SWAP1 SWAP2 ADD DUP1 SLOAD PUSH1 0x1 PUSH1 0x1 PUSH1 0xA0 SHL SUB NOT AND PUSH1 0x1 PUSH1 0x1 PUSH1 0xA0 SHL SUB SWAP1 SWAP3 AND SWAP2 SWAP1 SWAP2 OR SWAP1 SSTORE JUMPDEST DUP1 PUSH2 0x1361 DUP2 PUSH2 0x27CC JUMP JUMPDEST SWAP2 POP POP PUSH2 0x1268 JUMP JUMPDEST POP PUSH1 0xB SLOAD PUSH1 0x0 SWAP1 DUP2 DUP1 DUP3 PUSH8 0xFFFFFFFFFFFFFFFF DUP2 GT ISZERO PUSH2 0x138B JUMPI PUSH2 0x138B PUSH2 0x25B6 JUMP JUMPDEST PUSH1 0x40 MLOAD SWAP1 DUP1 DUP3 MSTORE DUP1 PUSH1 0x20 MUL PUSH1 0x20 ADD DUP3 ADD PUSH1 0x40 MSTORE DUP1 ISZERO PUSH2 0x13B4 JUMPI DUP2 PUSH1 0x20 ADD PUSH1 0x20 DUP3 MUL DUP1 CALLDATASIZE DUP4 CALLDATACOPY ADD SWAP1 POP JUMPDEST POP SWAP1 POP PUSH1 0x0 JUMPDEST PUSH2 0x13C5 PUSH1 0x1 DUP6 PUSH2 0x276D JUMP JUMPDEST DUP2 LT ISZERO PUSH2 0x14A7 JUMPI PUSH1 0xB PUSH2 0x13D9 DUP3 PUSH1 0x1 PUSH2 0x2A01 JUMP JUMPDEST DUP2 SLOAD DUP2 LT PUSH2 0x13E9 JUMPI PUSH2 0x13E9 PUSH2 0x2780 JUMP JUMPDEST PUSH1 0x0 SWAP2 DUP3 MSTORE PUSH1 0x20 SWAP1 SWAP2 KECCAK256 ADD SLOAD PUSH1 0xB DUP1 SLOAD PUSH1 0x1 PUSH1 0x1 PUSH1 0xA0 SHL SUB SWAP1 SWAP3 AND SWAP2 DUP4 SWAP1 DUP2 LT PUSH2 0x1415 JUMPI PUSH2 0x1415 PUSH2 0x2780 JUMP JUMPDEST PUSH1 0x0 SWAP2 DUP3 MSTORE PUSH1 0x20 SWAP1 SWAP2 KECCAK256 ADD SLOAD PUSH1 0x1 PUSH1 0x1 PUSH1 0xA0 SHL SUB AND EQ PUSH2 0x1495 JUMPI PUSH1 0xB DUP2 DUP2 SLOAD DUP2 LT PUSH2 0x1442 JUMPI PUSH2 0x1442 PUSH2 0x2780 JUMP JUMPDEST PUSH1 0x0 SWAP2 DUP3 MSTORE PUSH1 0x20 SWAP1 SWAP2 KECCAK256 ADD SLOAD PUSH1 0x1 PUSH1 0x1 PUSH1 0xA0 SHL SUB AND DUP3 DUP5 PUSH2 0x1462 DUP2 PUSH2 0x27CC JUMP JUMPDEST SWAP6 POP DUP2 MLOAD DUP2 LT PUSH2 0x1474 JUMPI PUSH2 0x1474 PUSH2 0x2780 JUMP JUMPDEST PUSH1 0x20 MUL PUSH1 0x20 ADD ADD SWAP1 PUSH1 0x1 PUSH1 0x1 PUSH1 0xA0 SHL SUB AND SWAP1 DUP2 PUSH1 0x1 PUSH1 0x1 PUSH1 0xA0 SHL SUB AND DUP2 MSTORE POP POP JUMPDEST DUP1 PUSH2 0x149F DUP2 PUSH2 0x27CC JUMP JUMPDEST SWAP2 POP POP PUSH2 0x13BA JUMP JUMPDEST POP PUSH1 0xB PUSH2 0x14B5 PUSH1 0x1 DUP6 PUSH2 0x276D JUMP JUMPDEST DUP2 SLOAD DUP2 LT PUSH2 0x14C5 JUMPI PUSH2 0x14C5 PUSH2 0x2780 JUMP JUMPDEST PUSH1 0x0 SWAP2 DUP3 MSTORE PUSH1 0x20 SWAP1 SWAP2 KECCAK256 ADD SLOAD PUSH1 0x1 PUSH1 0x1 PUSH1 0xA0 SHL SUB AND DUP2 DUP4 PUSH2 0x14E5 DUP2 PUSH2 0x27CC JUMP JUMPDEST SWAP5 POP DUP2 MLOAD DUP2 LT PUSH2 0x14F7 JUMPI PUSH2 0x14F7 PUSH2 0x2780 JUMP JUMPDEST PUSH1 0x20 MUL PUSH1 0x20 ADD ADD SWAP1 PUSH1 0x1 PUSH1 0x1 PUSH1 0xA0 SHL SUB AND SWAP1 DUP2 PUSH1 0x1 PUSH1 0x1 PUSH1 0xA0 SHL SUB AND DUP2 MSTORE POP POP PUSH1 0x0 JUMPDEST DUP4 DUP2 LT ISZERO PUSH2 0x1575 JUMPI DUP2 DUP2 DUP2 MLOAD DUP2 LT PUSH2 0x1534 JUMPI PUSH2 0x1534 PUSH2 0x2780 JUMP JUMPDEST PUSH1 0x20 MUL PUSH1 0x20 ADD ADD MLOAD PUSH1 0x1 PUSH1 0x1 PUSH1 0xA0 SHL SUB AND PUSH1 0x0 PUSH1 0x1 PUSH1 0x1 PUSH1 0xA0 SHL SUB AND EQ PUSH2 0x1563 JUMPI DUP5 PUSH2 0x155F DUP2 PUSH2 0x27AD JUMP JUMPDEST SWAP6 POP POP JUMPDEST DUP1 PUSH2 0x156D DUP2 PUSH2 0x27CC JUMP JUMPDEST SWAP2 POP POP PUSH2 0x151A JUMP JUMPDEST POP POP POP PUSH1 0x1D DUP12 SWAP1 SSTORE POP PUSH1 0x1E SSTORE POP POP POP POP POP POP JUMPDEST PUSH1 0x40 MLOAD DUP1 PUSH1 0xE0 ADD PUSH1 0x40 MSTORE DUP1 PUSH1 0x18 SLOAD DUP2 MSTORE PUSH1 0x20 ADD PUSH1 0x1A SLOAD DUP2 MSTORE PUSH1 0x20 ADD PUSH1 0x19 SLOAD DUP2 MSTORE PUSH1 0x20 ADD PUSH2 0x15B2 DUP6 SWAP1 JUMP JUMPDEST DUP2 MSTORE PUSH1 0x20 ADD PUSH2 0x15C0 PUSH1 0x1D SLOAD SWAP1 JUMP JUMPDEST DUP2 MSTORE PUSH1 0x20 ADD DUP4 DUP2 MSTORE PUSH1 0x20 ADD PUSH2 0x15D4 PUSH1 0x1E SLOAD SWAP1 JUMP JUMPDEST SWAP1 MSTORE PUSH2 0x15E4 SWAP1 PUSH1 0xE SWAP1 PUSH1 0x7 PUSH2 0x2453 JUMP JUMPDEST POP PUSH1 0x1A SLOAD PUSH1 0x0 SGT ISZERO DUP1 ISZERO PUSH2 0x1608 JUMPI POP PUSH8 0xDE0B6B3A7640000 PUSH2 0x1605 PUSH1 0x1A SLOAD SWAP1 JUMP JUMPDEST SGT ISZERO JUMPDEST PUSH2 0x1614 JUMPI PUSH2 0x1614 PUSH2 0x2830 JUMP JUMPDEST PUSH32 0x81FA83F2837A4E2B96D42D5D5B1FDD3858BF084421586BBD486A1044F83DCDD PUSH1 0xE PUSH1 0x1A SLOAD PUSH1 0x40 MLOAD PUSH2 0x1648 SWAP3 SWAP2 SWAP1 PUSH2 0x2846 JUMP JUMPDEST PUSH1 0x40 MLOAD DUP1 SWAP2 SUB SWAP1 LOG1 PUSH1 0x14 SLOAD SWAP4 POP POP POP POP JUMPDEST SWAP4 SWAP3 POP POP POP JUMP JUMPDEST PUSH1 0x0 PUSH2 0x1659 PUSH2 0x10A9 DUP4 DUP6 PUSH2 0x26F3 JUMP JUMPDEST PUSH1 0x0 DUP3 DUP3 PUSH1 0x1 PUSH1 0xFF SHL DUP3 EQ DUP1 PUSH2 0x1688 JUMPI POP PUSH1 0x1 PUSH1 0xFF SHL DUP2 EQ JUMPDEST ISZERO PUSH2 0x16A6 JUMPI PUSH1 0x40 MLOAD PUSH4 0x9FE2B45 PUSH1 0xE4 SHL DUP2 MSTORE PUSH1 0x4 ADD PUSH1 0x40 MLOAD DUP1 SWAP2 SUB SWAP1 REVERT JUMPDEST PUSH1 0x0 DUP1 PUSH1 0x0 DUP5 SLT PUSH2 0x16B7 JUMPI DUP4 PUSH2 0x16BC JUMP JUMPDEST DUP4 PUSH1 0x0 SUB JUMPDEST SWAP2 POP PUSH1 0x0 DUP4 SLT PUSH2 0x16CC JUMPI DUP3 PUSH2 0x16D1 JUMP JUMPDEST DUP3 PUSH1 0x0 SUB JUMPDEST SWAP1 POP PUSH1 0x0 PUSH2 0x16E8 DUP4 PUSH8 0xDE0B6B3A7640000 DUP5 PUSH2 0x18E4 JUMP JUMPDEST SWAP1 POP PUSH1 0x1 PUSH1 0x1 PUSH1 0xFF SHL SUB DUP2 GT ISZERO PUSH2 0x171C JUMPI PUSH1 0x40 MLOAD PUSH4 0xD49C26B3 PUSH1 0xE0 SHL DUP2 MSTORE PUSH1 0x4 DUP2 ADD DUP10 SWAP1 MSTORE PUSH1 0x24 DUP2 ADD DUP9 SWAP1 MSTORE PUSH1 0x44 ADD PUSH2 0x5AC JUMP JUMPDEST PUSH1 0x0 NOT DUP6 DUP6 XOR SGT PUSH2 0x1738 DUP2 PUSH2 0x1734 JUMPI DUP3 PUSH1 0x0 SUB PUSH2 0x10A9 JUMP JUMPDEST DUP3 SWAP1 JUMP JUMPDEST SWAP10 SWAP9 POP POP POP POP POP POP POP POP POP JUMP JUMPDEST PUSH1 0x0 DUP3 DUP3 PUSH1 0x1 PUSH1 0xFF SHL DUP3 EQ DUP1 PUSH2 0x175E JUMPI POP PUSH1 0x1 PUSH1 0xFF SHL DUP2 EQ JUMPDEST ISZERO PUSH2 0x177C JUMPI PUSH1 0x40 MLOAD PUSH4 0xA6070C25 PUSH1 0xE0 SHL DUP2 MSTORE PUSH1 0x4 ADD PUSH1 0x40 MLOAD DUP1 SWAP2 SUB SWAP1 REVERT JUMPDEST PUSH1 0x0 DUP1 PUSH1 0x0 DUP5 SLT PUSH2 0x178D JUMPI DUP4 PUSH2 0x1792 JUMP JUMPDEST DUP4 PUSH1 0x0 SUB JUMPDEST SWAP2 POP PUSH1 0x0 DUP4 SLT PUSH2 0x17A2 JUMPI DUP3 PUSH2 0x17A7 JUMP JUMPDEST DUP3 PUSH1 0x0 SUB JUMPDEST SWAP1 POP PUSH1 0x0 PUSH2 0x17B5 DUP4 DUP4 PUSH2 0x19B8 JUMP JUMPDEST SWAP1 POP PUSH1 0x1 PUSH1 0x1 PUSH1 0xFF SHL SUB DUP2 GT ISZERO PUSH2 0x171C JUMPI PUSH1 0x40 MLOAD PUSH4 0x120B5B43 PUSH1 0xE0 SHL DUP2 MSTORE PUSH1 0x4 DUP2 ADD DUP10 SWAP1 MSTORE PUSH1 0x24 DUP2 ADD DUP9 SWAP1 MSTORE PUSH1 0x44 ADD PUSH2 0x5AC JUMP JUMPDEST PUSH1 0x0 DUP2 PUSH2 0x5C2 JUMP JUMPDEST PUSH1 0x0 DUP2 DUP2 DUP2 SLT ISZERO PUSH2 0x1818 JUMPI PUSH1 0x40 MLOAD PUSH4 0xB9B0F49B PUSH1 0xE0 SHL DUP2 MSTORE PUSH1 0x4 DUP2 ADD DUP5 SWAP1 MSTORE PUSH1 0x24 ADD PUSH2 0x5AC JUMP JUMPDEST PUSH2 0x1831 PUSH8 0xDE0B6B3A7640000 PUSH1 0x1 PUSH1 0x1 PUSH1 0xFF SHL SUB PUSH2 0x27F4 JUMP JUMPDEST DUP2 SGT ISZERO PUSH2 0x1854 JUMPI PUSH1 0x40 MLOAD PUSH4 0x63103BF PUSH1 0xE0 SHL DUP2 MSTORE PUSH1 0x4 DUP2 ADD DUP5 SWAP1 MSTORE PUSH1 0x24 ADD PUSH2 0x5AC JUMP JUMPDEST PUSH1 0x0 PUSH2 0x1869 PUSH8 0xDE0B6B3A7640000 DUP4 MUL PUSH2 0x1A6C JUMP JUMPDEST SWAP1 POP DUP1 JUMPDEST SWAP5 SWAP4 POP POP POP POP JUMP JUMPDEST PUSH1 0x0 DUP2 PUSH9 0x23F2FA8F6DA5B9D31 NOT DUP2 SLT ISZERO PUSH2 0x1893 JUMPI POP PUSH1 0x0 SWAP3 SWAP2 POP POP JUMP JUMPDEST PUSH9 0x736EA4425C11AC631 DUP2 SLT PUSH2 0x18BF JUMPI PUSH1 0x40 MLOAD PUSH4 0xCA7EC0C5 PUSH1 0xE0 SHL DUP2 MSTORE PUSH1 0x4 DUP2 ADD DUP5 SWAP1 MSTORE PUSH1 0x24 ADD PUSH2 0x5AC JUMP JUMPDEST PUSH8 0x14057B7EF767814F DUP2 MUL PUSH2 0x186D PUSH2 0x18DF PUSH8 0xDE0B6B3A7640000 DUP4 JUMPDEST SDIV SWAP1 JUMP JUMPDEST PUSH2 0x1BE4 JUMP JUMPDEST PUSH1 0x0 DUP1 DUP1 PUSH1 0x0 NOT DUP6 DUP8 MULMOD DUP6 DUP8 MUL SWAP3 POP DUP3 DUP2 LT DUP4 DUP3 SUB SUB SWAP2 POP POP DUP1 PUSH1 0x0 SUB PUSH2 0x191E JUMPI DUP4 DUP3 DUP2 PUSH2 0x1914 JUMPI PUSH2 0x1914 PUSH2 0x27DE JUMP JUMPDEST DIV SWAP3 POP POP POP PUSH2 0x1659 JUMP JUMPDEST DUP4 DUP2 LT PUSH2 0x194F JUMPI PUSH1 0x40 MLOAD PUSH4 0xC740AEF PUSH1 0xE3 SHL DUP2 MSTORE PUSH1 0x4 DUP2 ADD DUP8 SWAP1 MSTORE PUSH1 0x24 DUP2 ADD DUP7 SWAP1 MSTORE PUSH1 0x44 DUP2 ADD DUP6 SWAP1 MSTORE PUSH1 0x64 ADD PUSH2 0x5AC JUMP JUMPDEST PUSH1 0x0 DUP5 DUP7 DUP9 MULMOD PUSH1 0x2 PUSH1 0x1 DUP8 NOT DUP2 ADD DUP9 AND SWAP8 DUP9 SWAP1 DIV PUSH1 0x3 DUP2 MUL DUP4 XOR DUP1 DUP3 MUL DUP5 SUB MUL DUP1 DUP3 MUL DUP5 SUB MUL DUP1 DUP3 MUL DUP5 SUB MUL DUP1 DUP3 MUL DUP5 SUB MUL DUP1 DUP3 MUL DUP5 SUB MUL SWAP1 DUP2 MUL SWAP1 SWAP3 SUB SWAP1 SWAP2 MUL PUSH1 0x0 DUP9 SWAP1 SUB DUP9 SWAP1 DIV SWAP1 SWAP2 ADD DUP6 DUP4 GT SWAP1 SWAP5 SUB SWAP4 SWAP1 SWAP4 MUL SWAP4 SUB SWAP5 SWAP1 SWAP5 DIV SWAP2 SWAP1 SWAP2 OR MUL SWAP5 SWAP4 POP POP POP POP JUMP JUMPDEST PUSH1 0x0 DUP1 DUP1 PUSH1 0x0 NOT DUP5 DUP7 MULMOD DUP5 DUP7 MUL SWAP3 POP DUP3 DUP2 LT DUP4 DUP3 SUB SUB SWAP2 POP POP PUSH8 0xDE0B6B3A7640000 DUP2 LT PUSH2 0x1A03 JUMPI PUSH1 0x40 MLOAD PUSH4 0x5173648D PUSH1 0xE0 SHL DUP2 MSTORE PUSH1 0x4 DUP2 ADD DUP7 SWAP1 MSTORE PUSH1 0x24 DUP2 ADD DUP6 SWAP1 MSTORE PUSH1 0x44 ADD PUSH2 0x5AC JUMP JUMPDEST PUSH1 0x0 PUSH8 0xDE0B6B3A7640000 DUP6 DUP8 MULMOD SWAP1 POP DUP2 PUSH1 0x0 SUB PUSH2 0x1A2F JUMPI POP POP PUSH8 0xDE0B6B3A7640000 SWAP1 DIV SWAP1 POP PUSH2 0x5C2 JUMP JUMPDEST PUSH3 0x40000 DUP2 DUP5 SUB DIV SWAP3 LT SWAP1 SUB PUSH1 0x1 PUSH1 0xEE SHL MUL OR PUSH32 0xACCB18165BD6FE31AE1CF318DC5B51EEE0E1BA569B88CD74C1773B91FAC10669 MUL SWAP1 POP SWAP3 SWAP2 POP POP JUMP JUMPDEST PUSH1 0x0 DUP2 PUSH1 0x0 SUB PUSH2 0x1A7E JUMPI POP PUSH1 0x0 SWAP2 SWAP1 POP JUMP JUMPDEST POP PUSH1 0x1 DUP2 PUSH1 0x1 PUSH1 0x80 SHL DUP2 LT PUSH2 0x1A98 JUMPI PUSH1 0x40 SWAP2 SWAP1 SWAP2 SHL SWAP1 PUSH1 0x80 SHR JUMPDEST PUSH9 0x10000000000000000 DUP2 LT PUSH2 0x1AB3 JUMPI PUSH1 0x20 SWAP2 SWAP1 SWAP2 SHL SWAP1 PUSH1 0x40 SHR JUMPDEST PUSH5 0x100000000 DUP2 LT PUSH2 0x1ACA JUMPI PUSH1 0x10 SWAP2 SWAP1 SWAP2 SHL SWAP1 PUSH1 0x20 SHR JUMPDEST PUSH3 0x10000 DUP2 LT PUSH2 0x1ADF JUMPI PUSH1 0x8 SWAP2 SWAP1 SWAP2 SHL SWAP1 PUSH1 0x10 SHR JUMPDEST PUSH2 0x100 DUP2 LT PUSH2 0x1AF3 JUMPI PUSH1 0x4 SWAP2 SWAP1 SWAP2 SHL SWAP1 PUSH1 0x8 SHR JUMPDEST PUSH1 0x10 DUP2 LT PUSH2 0x1B06 JUMPI PUSH1 0x2 SWAP2 SWAP1 SWAP2 SHL SWAP1 PUSH1 0x4 SHR JUMPDEST PUSH1 0x4 DUP2 LT PUSH2 0x1B16 JUMPI PUSH1 0x1 DUP3 SWAP1 SHL SWAP2 POP JUMPDEST PUSH1 0x1 DUP3 DUP5 DUP2 PUSH2 0x1B27 JUMPI PUSH2 0x1B27 PUSH2 0x27DE JUMP JUMPDEST DIV DUP4 ADD SWAP1 SHR SWAP2 POP PUSH1 0x1 DUP3 DUP5 DUP2 PUSH2 0x1B3F JUMPI PUSH2 0x1B3F PUSH2 0x27DE JUMP JUMPDEST DIV DUP4 ADD SWAP1 SHR SWAP2 POP PUSH1 0x1 DUP3 DUP5 DUP2 PUSH2 0x1B57 JUMPI PUSH2 0x1B57 PUSH2 0x27DE JUMP JUMPDEST DIV DUP4 ADD SWAP1 SHR SWAP2 POP PUSH1 0x1 DUP3 DUP5 DUP2 PUSH2 0x1B6F JUMPI PUSH2 0x1B6F PUSH2 0x27DE JUMP JUMPDEST DIV DUP4 ADD SWAP1 SHR SWAP2 POP PUSH1 0x1 DUP3 DUP5 DUP2 PUSH2 0x1B87 JUMPI PUSH2 0x1B87 PUSH2 0x27DE JUMP JUMPDEST DIV DUP4 ADD SWAP1 SHR SWAP2 POP PUSH1 0x1 DUP3 DUP5 DUP2 PUSH2 0x1B9F JUMPI PUSH2 0x1B9F PUSH2 0x27DE JUMP JUMPDEST DIV DUP4 ADD SWAP1 SHR SWAP2 POP PUSH1 0x1 DUP3 DUP5 DUP2 PUSH2 0x1BB7 JUMPI PUSH2 0x1BB7 PUSH2 0x27DE JUMP JUMPDEST DIV DUP4 ADD SWAP1 SHR SWAP2 POP PUSH1 0x0 DUP3 DUP5 DUP2 PUSH2 0x1BCF JUMPI PUSH2 0x1BCF PUSH2 0x27DE JUMP JUMPDEST DIV SWAP1 POP DUP1 DUP4 LT PUSH2 0x1BDD JUMPI DUP1 SWAP3 POP JUMPDEST POP POP SWAP2 SWAP1 POP JUMP JUMPDEST PUSH1 0x0 DUP2 DUP2 DUP2 SLT ISZERO PUSH2 0x1C41 JUMPI PUSH9 0x33DD1780914B97114 NOT DUP2 SLT ISZERO PUSH2 0x1C0A JUMPI POP PUSH1 0x0 SWAP3 SWAP2 POP POP JUMP JUMPDEST PUSH2 0x1C3A PUSH2 0x1C1D PUSH2 0x10A9 PUSH2 0x18DF DUP5 PUSH1 0x0 SUB SWAP1 JUMP JUMPDEST PUSH15 0xC097CE7BC90715B34B9F1000000000 DUP2 PUSH2 0x18DB JUMPI PUSH2 0x18DB PUSH2 0x27DE JUMP JUMPDEST SWAP2 POP PUSH2 0x1C87 JUMP JUMPDEST PUSH9 0xA688906BD8B000000 DUP2 SLT PUSH2 0x1C6C JUMPI PUSH1 0x40 MLOAD PUSH3 0x6C1A05 PUSH1 0xE3 SHL DUP2 MSTORE PUSH1 0x4 DUP2 ADD DUP5 SWAP1 MSTORE PUSH1 0x24 ADD PUSH2 0x5AC JUMP JUMPDEST PUSH8 0xDE0B6B3A7640000 PUSH1 0x40 DUP3 SWAP1 SHL SDIV PUSH2 0x186D PUSH2 0x10A9 DUP3 PUSH2 0x1C8D JUMP JUMPDEST POP SWAP2 SWAP1 POP JUMP JUMPDEST PUSH1 0x1 PUSH1 0xBF SHL PUSH8 0xFF00000000000000 DUP3 AND ISZERO PUSH2 0x1D9A JUMPI PUSH8 0x8000000000000000 DUP3 AND ISZERO PUSH2 0x1CC1 JUMPI PUSH9 0x16A09E667F3BCC909 MUL PUSH1 0x40 SHR JUMPDEST PUSH8 0x4000000000000000 DUP3 AND ISZERO PUSH2 0x1CE0 JUMPI PUSH9 0x1306FE0A31B7152DF MUL PUSH1 0x40 SHR JUMPDEST PUSH8 0x2000000000000000 DUP3 AND ISZERO PUSH2 0x1CFF JUMPI PUSH9 0x1172B83C7D517ADCE MUL PUSH1 0x40 SHR JUMPDEST PUSH8 0x1000000000000000 DUP3 AND ISZERO PUSH2 0x1D1E JUMPI PUSH9 0x10B5586CF9890F62A MUL PUSH1 0x40 SHR JUMPDEST PUSH8 0x800000000000000 DUP3 AND ISZERO PUSH2 0x1D3D JUMPI PUSH9 0x1059B0D31585743AE MUL PUSH1 0x40 SHR JUMPDEST PUSH8 0x400000000000000 DUP3 AND ISZERO PUSH2 0x1D5C JUMPI PUSH9 0x102C9A3E778060EE7 MUL PUSH1 0x40 SHR JUMPDEST PUSH8 0x200000000000000 DUP3 AND ISZERO PUSH2 0x1D7B JUMPI PUSH9 0x10163DA9FB33356D8 MUL PUSH1 0x40 SHR JUMPDEST PUSH8 0x100000000000000 DUP3 AND ISZERO PUSH2 0x1D9A JUMPI PUSH9 0x100B1AFA5ABCBED61 MUL PUSH1 0x40 SHR JUMPDEST PUSH7 0xFF000000000000 DUP3 AND ISZERO PUSH2 0x1E99 JUMPI PUSH7 0x80000000000000 DUP3 AND ISZERO PUSH2 0x1DC7 JUMPI PUSH9 0x10058C86DA1C09EA2 MUL PUSH1 0x40 SHR JUMPDEST PUSH7 0x40000000000000 DUP3 AND ISZERO PUSH2 0x1DE5 JUMPI PUSH9 0x1002C605E2E8CEC50 MUL PUSH1 0x40 SHR JUMPDEST PUSH7 0x20000000000000 DUP3 AND ISZERO PUSH2 0x1E03 JUMPI PUSH9 0x100162F3904051FA1 MUL PUSH1 0x40 SHR JUMPDEST PUSH7 0x10000000000000 DUP3 AND ISZERO PUSH2 0x1E21 JUMPI PUSH9 0x1000B175EFFDC76BA MUL PUSH1 0x40 SHR JUMPDEST PUSH7 0x8000000000000 DUP3 AND ISZERO PUSH2 0x1E3F JUMPI PUSH9 0x100058BA01FB9F96D MUL PUSH1 0x40 SHR JUMPDEST PUSH7 0x4000000000000 DUP3 AND ISZERO PUSH2 0x1E5D JUMPI PUSH9 0x10002C5CC37DA9492 MUL PUSH1 0x40 SHR JUMPDEST PUSH7 0x2000000000000 DUP3 AND ISZERO PUSH2 0x1E7B JUMPI PUSH9 0x1000162E525EE0547 MUL PUSH1 0x40 SHR JUMPDEST PUSH7 0x1000000000000 DUP3 AND ISZERO PUSH2 0x1E99 JUMPI PUSH9 0x10000B17255775C04 MUL PUSH1 0x40 SHR JUMPDEST PUSH6 0xFF0000000000 DUP3 AND ISZERO PUSH2 0x1F8F JUMPI PUSH6 0x800000000000 DUP3 AND ISZERO PUSH2 0x1EC4 JUMPI PUSH9 0x1000058B91B5BC9AE MUL PUSH1 0x40 SHR JUMPDEST PUSH6 0x400000000000 DUP3 AND ISZERO PUSH2 0x1EE1 JUMPI PUSH9 0x100002C5C89D5EC6D MUL PUSH1 0x40 SHR JUMPDEST PUSH6 0x200000000000 DUP3 AND ISZERO PUSH2 0x1EFE JUMPI PUSH9 0x10000162E43F4F831 MUL PUSH1 0x40 SHR JUMPDEST PUSH6 0x100000000000 DUP3 AND ISZERO PUSH2 0x1F1B JUMPI PUSH9 0x100000B1721BCFC9A MUL PUSH1 0x40 SHR JUMPDEST PUSH6 0x80000000000 DUP3 AND ISZERO PUSH2 0x1F38 JUMPI PUSH9 0x10000058B90CF1E6E MUL PUSH1 0x40 SHR JUMPDEST PUSH6 0x40000000000 DUP3 AND ISZERO PUSH2 0x1F55 JUMPI PUSH9 0x1000002C5C863B73F MUL PUSH1 0x40 SHR JUMPDEST PUSH6 0x20000000000 DUP3 AND ISZERO PUSH2 0x1F72 JUMPI PUSH9 0x100000162E430E5A2 MUL PUSH1 0x40 SHR JUMPDEST PUSH6 0x10000000000 DUP3 AND ISZERO PUSH2 0x1F8F JUMPI PUSH9 0x1000000B172183551 MUL PUSH1 0x40 SHR JUMPDEST PUSH5 0xFF00000000 DUP3 AND ISZERO PUSH2 0x207C JUMPI PUSH5 0x8000000000 DUP3 AND ISZERO PUSH2 0x1FB8 JUMPI PUSH9 0x100000058B90C0B49 MUL PUSH1 0x40 SHR JUMPDEST PUSH5 0x4000000000 DUP3 AND ISZERO PUSH2 0x1FD4 JUMPI PUSH9 0x10000002C5C8601CC MUL PUSH1 0x40 SHR JUMPDEST PUSH5 0x2000000000 DUP3 AND ISZERO PUSH2 0x1FF0 JUMPI PUSH9 0x1000000162E42FFF0 MUL PUSH1 0x40 SHR JUMPDEST PUSH5 0x1000000000 DUP3 AND ISZERO PUSH2 0x200C JUMPI PUSH9 0x10000000B17217FBB MUL PUSH1 0x40 SHR JUMPDEST PUSH5 0x800000000 DUP3 AND ISZERO PUSH2 0x2028 JUMPI PUSH9 0x1000000058B90BFCE MUL PUSH1 0x40 SHR JUMPDEST PUSH5 0x400000000 DUP3 AND ISZERO PUSH2 0x2044 JUMPI PUSH9 0x100000002C5C85FE3 MUL PUSH1 0x40 SHR JUMPDEST PUSH5 0x200000000 DUP3 AND ISZERO PUSH2 0x2060 JUMPI PUSH9 0x10000000162E42FF1 MUL PUSH1 0x40 SHR JUMPDEST PUSH5 0x100000000 DUP3 AND ISZERO PUSH2 0x207C JUMPI PUSH9 0x100000000B17217F8 MUL PUSH1 0x40 SHR JUMPDEST PUSH5 0xFF00000000 DUP3 AND ISZERO PUSH2 0x2161 JUMPI PUSH4 0x80000000 DUP3 AND ISZERO PUSH2 0x20A4 JUMPI PUSH9 0x10000000058B90BFC MUL PUSH1 0x40 SHR JUMPDEST PUSH4 0x40000000 DUP3 AND ISZERO PUSH2 0x20BF JUMPI PUSH9 0x1000000002C5C85FE MUL PUSH1 0x40 SHR JUMPDEST PUSH4 0x20000000 DUP3 AND ISZERO PUSH2 0x20DA JUMPI PUSH9 0x100000000162E42FF MUL PUSH1 0x40 SHR JUMPDEST PUSH4 0x10000000 DUP3 AND ISZERO PUSH2 0x20F5 JUMPI PUSH9 0x1000000000B17217F MUL PUSH1 0x40 SHR JUMPDEST PUSH4 0x8000000 DUP3 AND ISZERO PUSH2 0x2110 JUMPI PUSH9 0x100000000058B90C0 MUL PUSH1 0x40 SHR JUMPDEST PUSH4 0x4000000 DUP3 AND ISZERO PUSH2 0x212B JUMPI PUSH9 0x10000000002C5C860 MUL PUSH1 0x40 SHR JUMPDEST PUSH4 0x2000000 DUP3 AND ISZERO PUSH2 0x2146 JUMPI PUSH9 0x1000000000162E430 MUL PUSH1 0x40 SHR JUMPDEST PUSH4 0x1000000 DUP3 AND ISZERO PUSH2 0x2161 JUMPI PUSH9 0x10000000000B17218 MUL PUSH1 0x40 SHR JUMPDEST PUSH3 0xFF0000 DUP3 AND ISZERO PUSH2 0x223C JUMPI PUSH3 0x800000 DUP3 AND ISZERO PUSH2 0x2186 JUMPI PUSH9 0x1000000000058B90C MUL PUSH1 0x40 SHR JUMPDEST PUSH3 0x400000 DUP3 AND ISZERO PUSH2 0x21A0 JUMPI PUSH9 0x100000000002C5C86 MUL PUSH1 0x40 SHR JUMPDEST PUSH3 0x200000 DUP3 AND ISZERO PUSH2 0x21BA JUMPI PUSH9 0x10000000000162E43 MUL PUSH1 0x40 SHR JUMPDEST PUSH3 0x100000 DUP3 AND ISZERO PUSH2 0x21D4 JUMPI PUSH9 0x100000000000B1721 MUL PUSH1 0x40 SHR JUMPDEST PUSH3 0x80000 DUP3 AND ISZERO PUSH2 0x21EE JUMPI PUSH9 0x10000000000058B91 MUL PUSH1 0x40 SHR JUMPDEST PUSH3 0x40000 DUP3 AND ISZERO PUSH2 0x2208 JUMPI PUSH9 0x1000000000002C5C8 MUL PUSH1 0x40 SHR JUMPDEST PUSH3 0x20000 DUP3 AND ISZERO PUSH2 0x2222 JUMPI PUSH9 0x100000000000162E4 MUL PUSH1 0x40 SHR JUMPDEST PUSH3 0x10000 DUP3 AND ISZERO PUSH2 0x223C JUMPI PUSH9 0x1000000000000B172 MUL PUSH1 0x40 SHR JUMPDEST PUSH2 0xFF00 DUP3 AND ISZERO PUSH2 0x230E JUMPI PUSH2 0x8000 DUP3 AND ISZERO PUSH2 0x225F JUMPI PUSH9 0x100000000000058B9 MUL PUSH1 0x40 SHR JUMPDEST PUSH2 0x4000 DUP3 AND ISZERO PUSH2 0x2278 JUMPI PUSH9 0x10000000000002C5D MUL PUSH1 0x40 SHR JUMPDEST PUSH2 0x2000 DUP3 AND ISZERO PUSH2 0x2291 JUMPI PUSH9 0x1000000000000162E MUL PUSH1 0x40 SHR JUMPDEST PUSH2 0x1000 DUP3 AND ISZERO PUSH2 0x22AA JUMPI PUSH9 0x10000000000000B17 MUL PUSH1 0x40 SHR JUMPDEST PUSH2 0x800 DUP3 AND ISZERO PUSH2 0x22C3 JUMPI PUSH9 0x1000000000000058C MUL PUSH1 0x40 SHR JUMPDEST PUSH2 0x400 DUP3 AND ISZERO PUSH2 0x22DC JUMPI PUSH9 0x100000000000002C6 MUL PUSH1 0x40 SHR JUMPDEST PUSH2 0x200 DUP3 AND ISZERO PUSH2 0x22F5 JUMPI PUSH9 0x10000000000000163 MUL PUSH1 0x40 SHR JUMPDEST PUSH2 0x100 DUP3 AND ISZERO PUSH2 0x230E JUMPI PUSH9 0x100000000000000B1 MUL PUSH1 0x40 SHR JUMPDEST PUSH1 0xFF DUP3 AND ISZERO PUSH2 0x23D7 JUMPI PUSH1 0x80 DUP3 AND ISZERO PUSH2 0x232F JUMPI PUSH9 0x10000000000000059 MUL PUSH1 0x40 SHR JUMPDEST PUSH1 0x40 DUP3 AND ISZERO PUSH2 0x2347 JUMPI PUSH9 0x1000000000000002C MUL PUSH1 0x40 SHR JUMPDEST PUSH1 0x20 DUP3 AND ISZERO PUSH2 0x235F JUMPI PUSH9 0x10000000000000016 MUL PUSH1 0x40 SHR JUMPDEST PUSH1 0x10 DUP3 AND ISZERO PUSH2 0x2377 JUMPI PUSH9 0x1000000000000000B MUL PUSH1 0x40 SHR JUMPDEST PUSH1 0x8 DUP3 AND ISZERO PUSH2 0x238F JUMPI PUSH9 0x10000000000000006 MUL PUSH1 0x40 SHR JUMPDEST PUSH1 0x4 DUP3 AND ISZERO PUSH2 0x23A7 JUMPI PUSH9 0x10000000000000003 MUL PUSH1 0x40 SHR JUMPDEST PUSH1 0x2 DUP3 AND ISZERO PUSH2 0x23BF JUMPI PUSH9 0x10000000000000001 MUL PUSH1 0x40 SHR JUMPDEST PUSH1 0x1 DUP3 AND ISZERO PUSH2 0x23D7 JUMPI PUSH9 0x10000000000000001 MUL PUSH1 0x40 SHR JUMPDEST PUSH8 0xDE0B6B3A7640000 MUL PUSH1 0x40 SWAP2 SWAP1 SWAP2 SHR PUSH1 0xBF SUB SHR SWAP1 JUMP JUMPDEST DUP3 DUP1 SLOAD DUP3 DUP3 SSTORE SWAP1 PUSH1 0x0 MSTORE PUSH1 0x20 PUSH1 0x0 KECCAK256 SWAP1 DUP2 ADD SWAP3 DUP3 ISZERO PUSH2 0x2443 JUMPI SWAP2 PUSH1 0x20 MUL DUP3 ADD JUMPDEST DUP3 DUP2 GT ISZERO PUSH2 0x2443 JUMPI DUP3 MLOAD DUP3 SLOAD PUSH1 0x1 PUSH1 0x1 PUSH1 0xA0 SHL SUB NOT AND PUSH1 0x1 PUSH1 0x1 PUSH1 0xA0 SHL SUB SWAP1 SWAP2 AND OR DUP3 SSTORE PUSH1 0x20 SWAP1 SWAP3 ADD SWAP2 PUSH1 0x1 SWAP1 SWAP2 ADD SWAP1 PUSH2 0x240E JUMP JUMPDEST POP PUSH2 0x244F SWAP3 SWAP2 POP PUSH2 0x24AF JUMP JUMPDEST POP SWAP1 JUMP JUMPDEST DUP3 DUP1 SLOAD DUP3 DUP3 SSTORE SWAP1 PUSH1 0x0 MSTORE PUSH1 0x20 PUSH1 0x0 KECCAK256 SWAP1 DUP2 ADD SWAP3 DUP3 ISZERO PUSH2 0x2443 JUMPI SWAP2 PUSH1 0x20 MUL DUP3 ADD JUMPDEST DUP3 DUP2 GT ISZERO PUSH2 0x2443 JUMPI DUP3 MLOAD DUP3 SSTORE SWAP2 PUSH1 0x20 ADD SWAP2 SWAP1 PUSH1 0x1 ADD SWAP1 PUSH2 0x2473 JUMP JUMPDEST POP DUP1 SLOAD PUSH1 0x0 DUP3 SSTORE SWAP1 PUSH1 0x0 MSTORE PUSH1 0x20 PUSH1 0x0 KECCAK256 SWAP1 DUP2 ADD SWAP1 PUSH2 0x24AC SWAP2 SWAP1 PUSH2 0x24AF JUMP JUMPDEST POP JUMP JUMPDEST JUMPDEST DUP1 DUP3 GT ISZERO PUSH2 0x244F JUMPI PUSH1 0x0 DUP2 SSTORE PUSH1 0x1 ADD PUSH2 0x24B0 JUMP JUMPDEST DUP1 CALLDATALOAD PUSH1 0x1 PUSH1 0x1 PUSH1 0xA0 SHL SUB DUP2 AND DUP2 EQ PUSH2 0x24DB JUMPI PUSH1 0x0 DUP1 REVERT JUMPDEST SWAP2 SWAP1 POP JUMP JUMPDEST PUSH1 0x0 PUSH1 0x20 DUP3 DUP5 SUB SLT ISZERO PUSH2 0x24F2 JUMPI PUSH1 0x0 DUP1 REVERT JUMPDEST PUSH2 0x1659 DUP3 PUSH2 0x24C4 JUMP JUMPDEST PUSH1 0x0 PUSH1 0x20 DUP3 DUP5 SUB SLT ISZERO PUSH2 0x250D JUMPI PUSH1 0x0 DUP1 REVERT JUMPDEST POP CALLDATALOAD SWAP2 SWAP1 POP JUMP JUMPDEST PUSH1 0x0 DUP1 PUSH1 0x40 DUP4 DUP6 SUB SLT ISZERO PUSH2 0x2527 JUMPI PUSH1 0x0 DUP1 REVERT JUMPDEST POP POP DUP1 CALLDATALOAD SWAP3 PUSH1 0x20 SWAP1 SWAP2 ADD CALLDATALOAD SWAP2 POP JUMP JUMPDEST PUSH1 0x20 DUP1 DUP3 MSTORE DUP3 MLOAD DUP3 DUP3 ADD DUP2 SWAP1 MSTORE PUSH1 0x0 SWAP2 SWAP1 DUP5 DUP3 ADD SWAP1 PUSH1 0x40 DUP6 ADD SWAP1 DUP5 JUMPDEST DUP2 DUP2 LT ISZERO PUSH2 0x256E JUMPI DUP4 MLOAD DUP4 MSTORE SWAP3 DUP5 ADD SWAP3 SWAP2 DUP5 ADD SWAP2 PUSH1 0x1 ADD PUSH2 0x2552 JUMP JUMPDEST POP SWAP1 SWAP7 SWAP6 POP POP POP POP POP POP JUMP JUMPDEST PUSH1 0x0 DUP1 PUSH1 0x0 PUSH1 0x60 DUP5 DUP7 SUB SLT ISZERO PUSH2 0x258F JUMPI PUSH1 0x0 DUP1 REVERT JUMPDEST PUSH2 0x2598 DUP5 PUSH2 0x24C4 JUMP JUMPDEST SWAP3 POP PUSH2 0x25A6 PUSH1 0x20 DUP6 ADD PUSH2 0x24C4 JUMP JUMPDEST SWAP2 POP PUSH1 0x40 DUP5 ADD CALLDATALOAD SWAP1 POP SWAP3 POP SWAP3 POP SWAP3 JUMP JUMPDEST PUSH4 0x4E487B71 PUSH1 0xE0 SHL PUSH1 0x0 MSTORE PUSH1 0x41 PUSH1 0x4 MSTORE PUSH1 0x24 PUSH1 0x0 REVERT JUMPDEST PUSH1 0x0 DUP1 PUSH1 0x0 PUSH1 0x60 DUP5 DUP7 SUB SLT ISZERO PUSH2 0x25E1 JUMPI PUSH1 0x0 DUP1 REVERT JUMPDEST DUP4 CALLDATALOAD PUSH8 0xFFFFFFFFFFFFFFFF DUP1 DUP3 GT ISZERO PUSH2 0x25F9 JUMPI PUSH1 0x0 DUP1 REVERT JUMPDEST DUP2 DUP7 ADD SWAP2 POP DUP7 PUSH1 0x1F DUP4 ADD SLT PUSH2 0x260D JUMPI PUSH1 0x0 DUP1 REVERT JUMPDEST DUP2 CALLDATALOAD PUSH1 0x20 DUP3 DUP3 GT ISZERO PUSH2 0x2621 JUMPI PUSH2 0x2621 PUSH2 0x25B6 JUMP JUMPDEST DUP2 PUSH1 0x5 SHL PUSH1 0x40 MLOAD PUSH1 0x1F NOT PUSH1 0x3F DUP4 ADD AND DUP2 ADD DUP2 DUP2 LT DUP7 DUP3 GT OR ISZERO PUSH2 0x2646 JUMPI PUSH2 0x2646 PUSH2 0x25B6 JUMP JUMPDEST PUSH1 0x40 MSTORE SWAP3 DUP4 MSTORE DUP2 DUP4 ADD SWAP4 POP DUP5 DUP2 ADD DUP3 ADD SWAP3 DUP11 DUP5 GT ISZERO PUSH2 0x2664 JUMPI PUSH1 0x0 DUP1 REVERT JUMPDEST SWAP5 DUP3 ADD SWAP5 JUMPDEST DUP4 DUP7 LT ISZERO PUSH2 0x2689 JUMPI PUSH2 0x267A DUP7 PUSH2 0x24C4 JUMP JUMPDEST DUP6 MSTORE SWAP5 DUP3 ADD SWAP5 SWAP4 DUP3 ADD SWAP4 PUSH2 0x2669 JUMP JUMPDEST SWAP8 POP PUSH2 0x2698 SWAP1 POP DUP9 DUP3 ADD PUSH2 0x24C4 JUMP JUMPDEST SWAP6 POP POP POP POP POP PUSH2 0x26AA PUSH1 0x40 DUP6 ADD PUSH2 0x24C4 JUMP JUMPDEST SWAP1 POP SWAP3 POP SWAP3 POP SWAP3 JUMP JUMPDEST PUSH1 0x0 DUP1 PUSH1 0x40 DUP4 DUP6 SUB SLT ISZERO PUSH2 0x26C6 JUMPI PUSH1 0x0 DUP1 REVERT JUMPDEST PUSH2 0x26CF DUP4 PUSH2 0x24C4 JUMP JUMPDEST SWAP5 PUSH1 0x20 SWAP4 SWAP1 SWAP4 ADD CALLDATALOAD SWAP4 POP POP POP JUMP JUMPDEST PUSH4 0x4E487B71 PUSH1 0xE0 SHL PUSH1 0x0 MSTORE PUSH1 0x11 PUSH1 0x4 MSTORE PUSH1 0x24 PUSH1 0x0 REVERT JUMPDEST DUP1 DUP3 ADD DUP3 DUP2 SLT PUSH1 0x0 DUP4 SLT DUP1 ISZERO DUP3 AND DUP3 ISZERO DUP3 AND OR ISZERO PUSH2 0x2713 JUMPI PUSH2 0x2713 PUSH2 0x26DD JUMP JUMPDEST POP POP SWAP3 SWAP2 POP POP JUMP JUMPDEST PUSH1 0x20 DUP1 DUP3 MSTORE PUSH1 0x32 SWAP1 DUP3 ADD MSTORE PUSH32 0x54686520656E74657265642076616C75652069732077726F6E672C20706C6561 PUSH1 0x40 DUP3 ADD MSTORE PUSH18 0x39B29032B73A32B91034BA1030B3B0B4B717 PUSH1 0x71 SHL PUSH1 0x60 DUP3 ADD MSTORE PUSH1 0x80 ADD SWAP1 JUMP JUMPDEST DUP2 DUP2 SUB DUP2 DUP2 GT ISZERO PUSH2 0x5C2 JUMPI PUSH2 0x5C2 PUSH2 0x26DD JUMP JUMPDEST PUSH4 0x4E487B71 PUSH1 0xE0 SHL PUSH1 0x0 MSTORE PUSH1 0x32 PUSH1 0x4 MSTORE PUSH1 0x24 PUSH1 0x0 REVERT JUMPDEST PUSH1 0x0 DUP2 PUSH2 0x27A5 JUMPI PUSH2 0x27A5 PUSH2 0x26DD JUMP JUMPDEST POP PUSH1 0x0 NOT ADD SWAP1 JUMP JUMPDEST PUSH1 0x0 PUSH1 0x1 PUSH1 0x1 PUSH1 0xFF SHL ADD DUP3 ADD PUSH2 0x27C5 JUMPI PUSH2 0x27C5 PUSH2 0x26DD JUMP JUMPDEST POP PUSH1 0x1 ADD SWAP1 JUMP JUMPDEST PUSH1 0x0 PUSH1 0x1 DUP3 ADD PUSH2 0x27C5 JUMPI PUSH2 0x27C5 PUSH2 0x26DD JUMP JUMPDEST PUSH4 0x4E487B71 PUSH1 0xE0 SHL PUSH1 0x0 MSTORE PUSH1 0x12 PUSH1 0x4 MSTORE PUSH1 0x24 PUSH1 0x0 REVERT JUMPDEST PUSH1 0x0 DUP3 PUSH2 0x2811 JUMPI PUSH4 0x4E487B71 PUSH1 0xE0 SHL PUSH1 0x0 MSTORE PUSH1 0x12 PUSH1 0x4 MSTORE PUSH1 0x24 PUSH1 0x0 REVERT JUMPDEST PUSH1 0x1 PUSH1 0xFF SHL DUP3 EQ PUSH1 0x0 NOT DUP5 EQ AND ISZERO PUSH2 0x282B JUMPI PUSH2 0x282B PUSH2 0x26DD JUMP JUMPDEST POP SDIV SWAP1 JUMP JUMPDEST PUSH4 0x4E487B71 PUSH1 0xE0 SHL PUSH1 0x0 MSTORE PUSH1 0x1 PUSH1 0x4 MSTORE PUSH1 0x24 PUSH1 0x0 REVERT JUMPDEST PUSH1 0x0 PUSH1 0x40 DUP3 ADD PUSH1 0x40 DUP4 MSTORE DUP1 DUP6 SLOAD DUP1 DUP4 MSTORE PUSH1 0x60 DUP6 ADD SWAP2 POP DUP7 PUSH1 0x0 MSTORE PUSH1 0x20 SWAP3 POP DUP3 PUSH1 0x0 KECCAK256 PUSH1 0x0 JUMPDEST DUP3 DUP2 LT ISZERO PUSH2 0x2887 JUMPI DUP2 SLOAD DUP5 MSTORE SWAP3 DUP5 ADD SWAP3 PUSH1 0x1 SWAP2 DUP3 ADD SWAP2 ADD PUSH2 0x286B JUMP JUMPDEST POP POP POP SWAP3 ADD SWAP3 SWAP1 SWAP3 MSTORE SWAP3 SWAP2 POP POP JUMP JUMPDEST DUP2 DUP2 SUB PUSH1 0x0 DUP4 SLT DUP1 ISZERO DUP4 DUP4 SGT AND DUP4 DUP4 SLT DUP3 AND OR ISZERO PUSH2 0x28B6 JUMPI PUSH2 0x28B6 PUSH2 0x26DD JUMP JUMPDEST POP SWAP3 SWAP2 POP POP JUMP JUMPDEST DUP1 DUP3 JUMPDEST PUSH1 0x1 DUP1 DUP7 GT PUSH2 0x28CF JUMPI POP PUSH2 0x2902 JUMP JUMPDEST PUSH1 0x1 PUSH1 0x1 PUSH1 0xFF SHL SUB DUP3 SWAP1 DIV DUP3 GT ISZERO PUSH2 0x28E9 JUMPI PUSH2 0x28E9 PUSH2 0x26DD JUMP JUMPDEST DUP1 DUP7 AND ISZERO PUSH2 0x28F6 JUMPI SWAP2 DUP2 MUL SWAP2 JUMPDEST SWAP5 SWAP1 SWAP5 SHR SWAP4 DUP1 MUL PUSH2 0x28C0 JUMP JUMPDEST SWAP4 POP SWAP4 SWAP2 POP POP JUMP JUMPDEST PUSH1 0x0 DUP3 DUP1 ISZERO PUSH2 0x2920 JUMPI PUSH1 0x1 DUP2 EQ PUSH2 0x292A JUMPI PUSH2 0x2933 JUMP JUMPDEST PUSH1 0x1 SWAP2 POP POP PUSH2 0x5C2 JUMP JUMPDEST DUP3 SWAP2 POP POP PUSH2 0x5C2 JUMP JUMPDEST POP DUP2 PUSH2 0x2941 JUMPI POP PUSH1 0x0 PUSH2 0x5C2 JUMP JUMPDEST POP PUSH1 0x1 PUSH1 0x0 DUP3 SGT DUP1 DUP3 EQ PUSH2 0x295A JUMPI DUP1 ISZERO PUSH2 0x2979 JUMPI PUSH2 0x2993 JUMP JUMPDEST PUSH1 0x1 PUSH1 0x1 PUSH1 0xFF SHL SUB DUP4 SWAP1 DIV DUP4 GT ISZERO PUSH2 0x2974 JUMPI PUSH2 0x2974 PUSH2 0x26DD JUMP JUMPDEST PUSH2 0x2993 JUMP JUMPDEST PUSH1 0x1 PUSH1 0x1 PUSH1 0xFF SHL SUB DUP4 SWAP1 SDIV DUP4 SLT ISZERO PUSH2 0x2993 JUMPI PUSH2 0x2993 PUSH2 0x26DD JUMP JUMPDEST POP DUP1 DUP4 AND ISZERO PUSH2 0x299F JUMPI POP DUP1 JUMPDEST PUSH2 0x29AF DUP4 PUSH1 0x1 SHR DUP4 DUP5 MUL DUP4 PUSH2 0x28BD JUMP JUMPDEST PUSH1 0x0 DUP3 SGT PUSH1 0x1 PUSH1 0x1 PUSH1 0xFF SHL SUB DUP3 SWAP1 DIV DUP4 GT AND ISZERO PUSH2 0x29CE JUMPI PUSH2 0x29CE PUSH2 0x26DD JUMP JUMPDEST PUSH1 0x0 DUP3 SLT PUSH1 0x1 PUSH1 0xFF SHL DUP3 SWAP1 SDIV DUP4 SLT AND ISZERO PUSH2 0x29EA JUMPI PUSH2 0x29EA PUSH2 0x26DD JUMP JUMPDEST MUL SWAP4 SWAP3 POP POP POP JUMP JUMPDEST PUSH1 0x0 PUSH2 0x1659 PUSH1 0xFF DUP5 AND DUP4 PUSH2 0x290A JUMP JUMPDEST DUP1 DUP3 ADD DUP1 DUP3 GT ISZERO PUSH2 0x5C2 JUMPI PUSH2 0x5C2 PUSH2 0x26DD JUMP INVALID LOG2 PUSH5 0x6970667358 0x22 SLT KECCAK256 0xD 0xAE RETURNDATASIZE 0x5D 0xAB 0x4D NOT 0xD8 0xEA 0xBE DUP12 0x27 0xD 0xD6 PUSH27 0x129B8D3A0C9966D022368E1FF127429F5D64736F6C634300081400 CALLER ",
  "sha1": "c41261ed23fabf1ddac4e359b68acb3fb9196c3f",
  "source": "// SPDX-License-Identifier: GPL-3.0\npragma solidity ^0.8.19;\nimport {SD59x18, sd} from \"../prb-math-main/src/SD59x18.sol\";\n\nimport {unwrap, wrap} from \"../prb-math-main/src/sd59x18/Helpers.sol\";\nimport {toSD59x18, fromSD59x18, convert} from \"../prb-math-main/src/sd59x18/Conversions.sol\";\nimport {sd59x18} from \"../prb-math-main/src/sd59x18/Casting.sol\";\n\ncontract Reputationcalculation  {\n    struct edgeserver{\n        bool exists;\n        bool blacklist;\n       // uint ID;\n        //uint reputation;\n    }\n    mapping (address => edgeserver) public edgeserver_suppliers;\n      struct mobileuser{\n      bool exists;\n      //uint ID;\n    }\n    //mapping(address => mapping(address => edgeserver)) public edgeserverID ;\n    mapping (address => mobileuser) public mobileusers;\n    mapping(address => mapping(address =>mapping (uint256=>int256))) public reputation;\n    mapping(int256 => edgeserver) public listedgeservers;\n    mapping(int256 =>mobileuser) public  listedmobileuser;\n    address payable private owner; \n    address[] public mobileuserArray;\n    address[] public edgeserverArray;\n    int256[]public Eui;\n    address[] public DRusimobileuser;\n    address[] public DRusiedgeserver;\n    address[] public duplicateuser;\n    address[] public blacklistedgeserver;\n    int256[] public result;\n    SD59x18[]public resultDirection;\n    int256[]public resultInDirection;\n    address []public addressuser;\n    int256[]public sunnn;\n    uint256 id=1;\n    int256 SDSub;//\n    int256 SDSqr;//\n    SD59x18 one=sd(1e18);\n    //int256 IncrementSIC=0;\n    int256 reputationSum=0 ;//\n    int256  reputationAverage;//\n    //SD59x18 SDdiv;\n    //SD59x18 SDus;\n    //SD59x18 SDusexp;\n    SD59x18 REus; \n    SD59x18 resultf;\n    SD59x18 DRus;\n    uint256 DRusinumber=1;\n    uint256 tinumber=1;\n    int256 T=0;\n    int256 n;\n    //SD59x18 SICdiv;\n    SD59x18 a;\n    SD59x18 B;\n    mapping(address => mapping(address =>mapping (uint256=>SD59x18))) public DRusi;\n    mapping(address => mapping(address =>mapping (uint256=>int256))) public ti;\n    mapping(address => mapping(uint256 => int256)) public Rusi;\n    int256 Rus;\n    ///\n    //SD59x18 NRus;\n    //SD59x18 DRis;\n    //int256 tti;\n    address _edgeserver;\n    address _mobileuser;\n    \n    event TestDirection(SD59x18[]_resultDirection,SD59x18 _DRus);\n    event TestInDirection(int256[]_resultInDirection,int256 _Rus);\n    \n    constructor () {\n        owner =payable( msg.sender);\n        edgeserverArray.push(0x0000000000000000000000000000000000000000);\n        mobileuserArray.push(0x0000000000000000000000000000000000000000);\n        reputation[0x0000000000000000000000000000000000000000][0x0000000000000000000000000000000000000000][0]= 0;\n        DRusimobileuser.push(0x0000000000000000000000000000000000000000);\n         DRusiedgeserver.push(0x0000000000000000000000000000000000000000);\n        n=0;\n    }\n    function setaB(SD59x18 _a,SD59x18 _B)public returns(int256)\n    {\n       int256 sumaB=unwrap(_a)+unwrap(_B);\n       require(sumaB==1000000000000000000,\"The entered value is wrong, please enter it again.\");\n       a=_a;\n       B=_B;\n       return sumaB;\n    }\n    function DirectReputation( address edgeserver,address mobileuser,int256 Eus )public returns(int256) { \n      \n        require(0<=Eus && Eus<=1000000000000000000,\"The entered value is wrong, please enter it again.\");\n        \n        delete Eui;\n        int256 t=0;\n        int256 SIC=0;\n        int256 numRatings =0;\n        reputationSum=0;\n        reputationAverage=0;\n        SDSub=0;\n        SDSqr=0;\n        REus=sd(0e18);\n        DRus=sd(0e18);\n        resultf=sd(0e18);\n        n=0;\n//400000000000000000\n    for(uint256 i=1;i<mobileuserArray.length;i++)\n    {\n        _edgeserver=edgeserverArray[i];\n        _mobileuser=mobileuserArray[i];\n        if(mobileuser==_mobileuser){\n           Eui.push(reputation[_edgeserver][_mobileuser][i]);\n           reputationSum += reputation[_edgeserver][_mobileuser][i];\n           numRatings++;\n           if(edgeserver==_edgeserver)\n           {\n              SIC++;\n           }\n          \n       }\n    }\n   \n    if(numRatings==0){\n    edgeserverArray.push(edgeserver);\n    mobileuserArray.push(mobileuser);\n    reputation[edgeserver][mobileuser][id]= Eus;\n     id++;\n    }\n\n    if(SIC==0){\n       if(numRatings!=0){\n       edgeserverArray.push(edgeserver);\n       mobileuserArray.push(mobileuser);\n       reputation[edgeserver][mobileuser][id]= Eus;\n       id++;\n       }\n       \n    }\n    if(SIC!=0){\n       if(numRatings!=0){\n        //SIC=SIC+1;\n        //numRatings=numRatings+1;\n        //reputationSum=reputationSum+Eus;\n        reputationAverage=reputationSum / numRatings;\n        for(uint i=0;i<Eui.length;i++)\n      {\n            SDSub=Eui[i]-reputationAverage;\n            SDSqr+=SDSub**2;\n     }\n            // SDSqr=Eus-reputationAverage;[\"0xAb8483F64d9C6d1EcF9b849Ae677dD3315835cb2\",\"0x4B20993Bc481177ec7E8f571ceCaE8A9e22C02db\",\"0x78731D3Ca6b7E34aC0F824c42a7cC18A495cabaB\"] \n            // SDSub+=SDSqr**2;\n    edgeserverArray.push(edgeserver);\n    mobileuserArray.push(mobileuser);\n    reputation[edgeserver][mobileuser][id]=Eus;\n    id++;\n    //SD59x18 int256SDSubintoSD59x18= SD59x18.wrap(SDSub);\n   // SD59x18 int256numRatingsintoSD59x18= wrap(numRatings);\n    //SD59x18 int256oneintoSD59x18= wrap(one);  \n   SD59x18 SDdiv=(SD59x18.wrap( SDSqr)).div( wrap(numRatings));\n    int256 SD59x18SDdivtoint256 =unwrap(SDdiv);\n    SD59x18SDdivtoint256=SD59x18SDdivtoint256/1000000000000000000;\n    SD59x18SDdivtoint256=SD59x18SDdivtoint256/1000000000000000000;\n    SDdiv=wrap(SD59x18SDdivtoint256);\n     SD59x18 SDus=SDdiv.sqrt();\n     SD59x18 SDusexp=SDus.exp();\n     REus=one.div(SDusexp);\n     //int256 SIC1e18=SIC*1e18;\n     //SIC1e18=SIC1e18*1e18;\n     //SD59x18 int256SICintoSD59x18=SD59x18.wrap(SIC);\n     //IncrementSIC=SIC+1;\n     //SD59x18 int256IncrementSICintoSD59x18=wrap(SIC+1);\n     SD59x18 SICdiv=(SD59x18.wrap(SIC)).div(wrap(SIC+1));\n     SD59x18 f=SICdiv.sqrt();\n     resultf=f;\n     //SD59x18 EusSD59x18=wrap(Eus);\n     DRus=f.mul(REus.mul(wrap(Eus)));\n     DRusimobileuser.push(mobileuser);\n     DRusiedgeserver.push(edgeserver);\n     DRusi[edgeserver][mobileuser][DRusinumber]=DRus;\n     ti[edgeserver][mobileuser][tinumber]=SIC;\n     //result.push(SIC);\n     DRusinumber++;\n     tinumber++;\n      for(uint j=0;j<mobileuserArray.length;j++)\n     {\n         _edgeserver=edgeserverArray[j];\n        _mobileuser=mobileuserArray[j];\n        if(edgeserver==_edgeserver){\n           t++;\n          duplicateuser.push(mobileuserArray[j]);\n           \n       }\n     }\n     int256 duplicatN=0;\n     uint count=duplicateuser.length;\n     uint j=0;\n     address[] memory remove = new address[](count);\n     for( uint i=0;i<count-1;i++){\n     if(duplicateuser[i]!=duplicateuser[i+1]){\n        remove[j++]=duplicateuser[i];\n      }\n     }\n    remove[j++]=duplicateuser[count-1];\n    for(uint i=0;i<count;i++)\n    {\n       if(remove[i]!=0x0000000000000000000000000000000000000000)\n       {\n          duplicatN++;\n       }\n    }\n       T=t;\n       n=duplicatN;\n    }\n\n    }\n    \n    resultDirection=[REus,DRus,resultf,wrap(t),wrap(T),wrap(SIC),wrap(n)];\n      assert(0<=unwrap(DRus) && unwrap(DRus)<=1000000000000000000);\n\n      emit TestDirection(resultDirection,DRus) ;  \n      return SDSqr; \n   }\n\n   function IndirectReputation(address[]memory _addressuser ,address edgeserver,address mobileuser)public  {\n   SD59x18 reputationSum1;\n   //SD59x18 reputationAverage1=0\n   int256 countDRus=0;\n   addressuser=_addressuser;\n   SD59x18 DRis;\n     SD59x18 NRus;\n     if(DRusimobileuser.length==1){\n        Rus=300000000000000000;\n     }\n     if(DRusimobileuser.length!=1)\n     {\n          for(uint256 j=0;j<addressuser.length;j++){\n              for(uint256 i=DRusimobileuser.length-1;i>0;i--)\n              {\n                 address _edgeserver=DRusiedgeserver[i];\n                 address _mobileuser=DRusimobileuser[i];\n                if(edgeserver==_edgeserver){ \n                   if(_mobileuser==addressuser[j]){\n                       DRis=DRusi[_edgeserver][addressuser[j]][i];\n                       //sunnn.push(DRis);\n                       // =reputationSum1.add(DRis);\n                      \n                      reputationSum1 =reputationSum1.add(DRis);\n                      countDRus++; \n                       break;   \n                    }\n                 \n                }\n            \n          }\n          \n          \n          }\n\n  \n      }\n      if(n==0){\n       Rus=300000000000000000;\n      }\n      if(n!=0){\n       \n\n       NRus=(reputationSum1).div(wrap(countDRus));\n       assert(0<=(unwrap(NRus)/1000000000000000000) && (unwrap(NRus)/1000000000000000000)<=1000000000000000000);\n       SD59x18 mulRus1=a.mul(DRus);\n       SD59x18 mulRus2=B.mul(NRus);\n       int256 Rus1=unwrap(mulRus1);\n       int256 Rus2=unwrap(mulRus2)/1000000000000000000;\n       //sunnn.push(Rus1);\n       //sunnn.push(Rus2);\n       //SD59x18 sumRus=Rus1.add(Rus2);\n       Rus=Rus1 + Rus2;\n       \n      }\n       uint256 Rusnumber=1;\n       Rusi[edgeserver][Rusnumber]=Rus;\n       Rusnumber++;\n       if(Rus<=0){\n       blacklistedgeserver.push(edgeserver);\n       edgeserver_suppliers[edgeserver].blacklist=true;\n       }\n    resultInDirection=[(unwrap(NRus)/1000000000000000000),Rus];\n    assert(0<=Rus && Rus<=1000000000000000000);\n    emit TestInDirection(resultInDirection,Rus);\n    \n    \n\n   }\n   \n\n   function ReputationofEdgeServers(address edgeserver)public returns(int256){\n    address _edgeserver;\n    int256 reputationedgeserver ;\n    for(uint i=DRusiedgeserver.length-1;i>0;i--){\n        _edgeserver=DRusiedgeserver[i];\n        if(_edgeserver==edgeserver){\n           reputationedgeserver=Rusi[edgeserver][i];\n         }\n       break; \n    }\n    return reputationedgeserver;\n  }\n  \n  function getid() public view returns(uint256 ) {\n    \n     return id;\n  }\n   function getRus() public view returns(int256 ) {\n    \n      return Rus;\n   }\n  function getn() public view returns(int256 ) {\n    \n     return n;\n  }\n  function getREus() public view returns(SD59x18 ) {\n    \n     return REus;\n  }\n  function getDRus() public view returns(SD59x18 ) {\n    \n     return DRus;\n  }\n  \n  function getresultDirection() public view returns(SD59x18[]memory ) {\n    \n     return resultDirection;\n  }\n  function getresultInDirection() public view returns(int256[]memory ) {\n    \n     return resultInDirection;\n  }\n  \n  \n\n}",
  "sourcePath": "contracts/reputationserver.sol",
  "type": "contract"
}