{
  "abi": [
    {
      "inputs": [],
      "stateMutability": "nonpayable",
      "type": "constructor"
    },
    {
      "anonymous": false,
      "inputs": [
        {
          "indexed": false,
          "internalType": "address",
          "name": "mobileuser",
          "type": "address"
        },
        {
          "indexed": false,
          "internalType": "string",
          "name": "public_keymu",
          "type": "string"
        },
        {
          "indexed": false,
          "internalType": "int256",
          "name": "Rus",
          "type": "int256"
        }
      ],
      "name": "storepublickeysmobileuser",
      "type": "event"
    },
    {
      "inputs": [],
      "name": "Existingpublickey",
      "outputs": [
        {
          "internalType": "bool",
          "name": "",
          "type": "bool"
        }
      ],
      "stateMutability": "view",
      "type": "function"
    },
    {
      "inputs": [
        {
          "internalType": "address",
          "name": "mobile",
          "type": "address"
        }
      ],
      "name": "Researchpublickey",
      "outputs": [
        {
          "components": [
            {
              "internalType": "string",
              "name": "public_keymu",
              "type": "string"
            },
            {
              "internalType": "int256",
              "name": "Rus",
              "type": "int256"
            }
          ],
          "internalType": "struct storepublickkey.Public_key",
          "name": "",
          "type": "tuple"
        }
      ],
      "stateMutability": "nonpayable",
      "type": "function"
    },
    {
      "inputs": [],
      "name": "getResearchpublickey",
      "outputs": [
        {
          "components": [
            {
              "internalType": "string",
              "name": "public_keymu",
              "type": "string"
            },
            {
              "internalType": "int256",
              "name": "Rus",
              "type": "int256"
            }
          ],
          "internalType": "struct storepublickkey.Public_key",
          "name": "",
          "type": "tuple"
        }
      ],
      "stateMutability": "view",
      "type": "function"
    },
    {
      "inputs": [],
      "name": "getlengh",
      "outputs": [
        {
          "internalType": "uint256",
          "name": "",
          "type": "uint256"
        }
      ],
      "stateMutability": "view",
      "type": "function"
    },
    {
      "inputs": [
        {
          "internalType": "address",
          "name": "",
          "type": "address"
        },
        {
          "internalType": "uint256",
          "name": "",
          "type": "uint256"
        }
      ],
      "name": "key",
      "outputs": [
        {
          "internalType": "string",
          "name": "public_keymu",
          "type": "string"
        },
        {
          "internalType": "int256",
          "name": "Rus",
          "type": "int256"
        }
      ],
      "stateMutability": "view",
      "type": "function"
    },
    {
      "inputs": [],
      "name": "mobileuser",
      "outputs": [
        {
          "internalType": "address",
          "name": "",
          "type": "address"
        }
      ],
      "stateMutability": "view",
      "type": "function"
    },
    {
      "inputs": [
        {
          "internalType": "uint256",
          "name": "",
          "type": "uint256"
        }
      ],
      "name": "mobileuserArray",
      "outputs": [
        {
          "internalType": "address",
          "name": "",
          "type": "address"
        }
      ],
      "stateMutability": "view",
      "type": "function"
    },
    {
      "inputs": [
        {
          "internalType": "address",
          "name": "mobile",
          "type": "address"
        },
        {
          "internalType": "string",
          "name": "pknmu",
          "type": "string"
        },
        {
          "internalType": "int256",
          "name": "_Rus",
          "type": "int256"
        }
      ],
      "name": "storeintheblockchain",
      "outputs": [],
      "stateMutability": "nonpayable",
      "type": "function"
    }
  ],
  "bytecode": "608060405260016003553480156200001657600080fd5b5060028054600181019091557f405787fa12a823e0f2b7631cc41b3ba8828b3321ca811111fa75cd3aa3bb5ace0180546001600160a01b03191690556040805160608101825260009181018281528152670429d069189e00006020828101919091529180527fad3228b676f7d3cd4284a5443f17f1962b36e491b30a40b2405849e597ba5fb5909152805181907fed428e1c45e1d9561b62834e1a2d3015a0caae3bfdc16b4da059ac885b01a145908190620000d3908262000197565b5060209190910151600190910155506004805460ff1916905562000263565b634e487b7160e01b600052604160045260246000fd5b600181811c908216806200011d57607f821691505b6020821081036200013e57634e487b7160e01b600052602260045260246000fd5b50919050565b601f8211156200019257600081815260208120601f850160051c810160208610156200016d5750805b601f850160051c820191505b818110156200018e5782815560010162000179565b5050505b505050565b81516001600160401b03811115620001b357620001b3620000f2565b620001cb81620001c4845462000108565b8462000144565b602080601f831160018114620002035760008415620001ea5750858301515b600019600386901b1c1916600185901b1785556200018e565b600085815260208120601f198616915b82811015620002345788860151825594840194600190910190840162000213565b5085821015620002535787850151600019600388901b60f8161c191681555b5050505050600190811b01905550565b610adc80620002736000396000f3fe608060405234801561001057600080fd5b50600436106100885760003560e01c8063728454851161005b57806372845485146100e157806375754da1146100f6578063a4f0e6db14610121578063fc11f3ca1461014257600080fd5b806308aea14b1461008d5780630beef8fe146100a85780630c72a870146100c8578063244110b3146100d9575b600080fd5b60045460ff1660405190151581526020015b60405180910390f35b6100bb6100b63660046105f9565b610155565b60405161009f9190610661565b60075460405190815260200161009f565b6100bb610338565b6100f46100ef3660046106a9565b6103fb565b005b600154610109906001600160a01b031681565b6040516001600160a01b03909116815260200161009f565b61013461012f366004610774565b610507565b60405161009f92919061079e565b6101096101503660046107c0565b6105b3565b6040805180820190915260608152600060208201526004805460ff19169055600180546001600160a01b0319166001600160a01b03841617815560025460009182916101a191906107ef565b90505b801561028657600281815481106101bd576101bd610808565b6000918252602090912001546001600160a01b03908116925084168203610229576001600160a01b038416600090815260208181526040808320848452909152902060058061020c83826108a7565b50600191820154908201556004805460ff19169091179055610286565b6004805460ff191690556040805160608101825260009181019182528181526702c68af0bb14000060208201529060059081906102669082610988565b50602082015181600101559050508061027e81610a42565b9150506101a4565b5060056040518060400160405290816000820180546102a49061081e565b80601f01602080910402602001604051908101604052809291908181526020018280546102d09061081e565b801561031d5780601f106102f25761010080835404028352916020019161031d565b820191906000526020600020905b81548152906001019060200180831161030057829003601f168201915b50505050508152602001600182015481525050915050919050565b604080518082019091526060815260006020820152600560405180604001604052908160008201805461036a9061081e565b80601f01602080910402602001604051908101604052809291908181526020018280546103969061081e565b80156103e35780601f106103b8576101008083540402835291602001916103e3565b820191906000526020600020905b8154815290600101906020018083116103c657829003601f168201915b50505050508152602001600182015481525050905090565b60408051808201825283815260208082018490526001600160a01b0386166000908152808252838120600354825290915291909120815182919081906104419082610988565b506020919091015160019182015560028054918201815560009081527f405787fa12a823e0f2b7631cc41b3ba8828b3321ca811111fa75cd3aa3bb5ace90910180546001600160a01b0319166001600160a01b03871617905560038054916104a883610a59565b9091555050600254600755600154815160208301516040517f5a1204a2caa3d481483b5768326c92726dcccf4041326c9ce44e8afbe6c18661936104f9936001600160a01b03909116929091610a72565b60405180910390a150505050565b600060208181529281526040808220909352908152208054819061052a9061081e565b80601f01602080910402602001604051908101604052809291908181526020018280546105569061081e565b80156105a35780601f10610578576101008083540402835291602001916105a3565b820191906000526020600020905b81548152906001019060200180831161058657829003601f168201915b5050505050908060010154905082565b600281815481106105c357600080fd5b6000918252602090912001546001600160a01b0316905081565b80356001600160a01b03811681146105f457600080fd5b919050565b60006020828403121561060b57600080fd5b610614826105dd565b9392505050565b6000815180845260005b8181101561064157602081850181015186830182015201610625565b506000602082860101526020601f19601f83011685010191505092915050565b60208152600082516040602084015261067d606084018261061b565b9050602084015160408401528091505092915050565b634e487b7160e01b600052604160045260246000fd5b6000806000606084860312156106be57600080fd5b6106c7846105dd565b9250602084013567ffffffffffffffff808211156106e457600080fd5b818601915086601f8301126106f857600080fd5b81358181111561070a5761070a610693565b604051601f8201601f19908116603f0116810190838211818310171561073257610732610693565b8160405282815289602084870101111561074b57600080fd5b826020860160208301376000602084830101528096505050505050604084013590509250925092565b6000806040838503121561078757600080fd5b610790836105dd565b946020939093013593505050565b6040815260006107b1604083018561061b565b90508260208301529392505050565b6000602082840312156107d257600080fd5b5035919050565b634e487b7160e01b600052601160045260246000fd5b81810381811115610802576108026107d9565b92915050565b634e487b7160e01b600052603260045260246000fd5b600181811c9082168061083257607f821691505b60208210810361085257634e487b7160e01b600052602260045260246000fd5b50919050565b601f8211156108a257600081815260208120601f850160051c8101602086101561087f5750805b601f850160051c820191505b8181101561089e5782815560010161088b565b5050505b505050565b8181036108b2575050565b6108bc825461081e565b67ffffffffffffffff8111156108d4576108d4610693565b6108e8816108e2845461081e565b84610858565b6000601f82116001811461091c57600083156109045750848201545b600019600385901b1c1916600184901b178455610981565b600085815260209020601f19841690600086815260209020845b838110156109565782860154825560019586019590910190602001610936565b50858310156109745781850154600019600388901b60f8161c191681555b50505060018360011b0184555b5050505050565b815167ffffffffffffffff8111156109a2576109a2610693565b6109b0816108e2845461081e565b602080601f8311600181146109e557600084156109cd5750858301515b600019600386901b1c1916600185901b17855561089e565b600085815260208120601f198616915b82811015610a14578886015182559484019460019091019084016109f5565b5085821015610a325787850151600019600388901b60f8161c191681555b5050505050600190811b01905550565b600081610a5157610a516107d9565b506000190190565b600060018201610a6b57610a6b6107d9565b5060010190565b6001600160a01b0384168152606060208201819052600090610a969083018561061b565b905082604083015294935050505056fea2646970667358221220153c817b0c585d0abb3918fd66702fedf3c76c693918dd04a13756a46d556f7464736f6c63430008140033",
  "bytecodeSha1": "0a750b438078f985e7d38f776287e96b2f95c835",
  "compiler": {
    "evm_version": "istanbul",
    "optimizer": {
      "enabled": true,
      "runs": 200
    },
    "version": "0.8.20+commit.a1b79de6"
  },
  "contractName": "storepublickkey",
  "language": "Solidity",
  "natspec": {
    "kind": "dev",
    "methods": {},
    "version": 1
  },
  "opcodes": "PUSH1 0x80 PUSH1 0x40 MSTORE CALLVALUE DUP1 ISZERO PUSH2 0x10 JUMPI PUSH1 0x0 DUP1 REVERT JUMPDEST POP PUSH1 0x4 CALLDATASIZE LT PUSH2 0x88 JUMPI PUSH1 0x0 CALLDATALOAD PUSH1 0xE0 SHR DUP1 PUSH4 0x72845485 GT PUSH2 0x5B JUMPI DUP1 PUSH4 0x72845485 EQ PUSH2 0xE1 JUMPI DUP1 PUSH4 0x75754DA1 EQ PUSH2 0xF6 JUMPI DUP1 PUSH4 0xA4F0E6DB EQ PUSH2 0x121 JUMPI DUP1 PUSH4 0xFC11F3CA EQ PUSH2 0x142 JUMPI PUSH1 0x0 DUP1 REVERT JUMPDEST DUP1 PUSH4 0x8AEA14B EQ PUSH2 0x8D JUMPI DUP1 PUSH4 0xBEEF8FE EQ PUSH2 0xA8 JUMPI DUP1 PUSH4 0xC72A870 EQ PUSH2 0xC8 JUMPI DUP1 PUSH4 0x244110B3 EQ PUSH2 0xD9 JUMPI JUMPDEST PUSH1 0x0 DUP1 REVERT JUMPDEST PUSH1 0x4 SLOAD PUSH1 0xFF AND PUSH1 0x40 MLOAD SWAP1 ISZERO ISZERO DUP2 MSTORE PUSH1 0x20 ADD JUMPDEST PUSH1 0x40 MLOAD DUP1 SWAP2 SUB SWAP1 RETURN JUMPDEST PUSH2 0xBB PUSH2 0xB6 CALLDATASIZE PUSH1 0x4 PUSH2 0x5F9 JUMP JUMPDEST PUSH2 0x155 JUMP JUMPDEST PUSH1 0x40 MLOAD PUSH2 0x9F SWAP2 SWAP1 PUSH2 0x661 JUMP JUMPDEST PUSH1 0x7 SLOAD PUSH1 0x40 MLOAD SWAP1 DUP2 MSTORE PUSH1 0x20 ADD PUSH2 0x9F JUMP JUMPDEST PUSH2 0xBB PUSH2 0x338 JUMP JUMPDEST PUSH2 0xF4 PUSH2 0xEF CALLDATASIZE PUSH1 0x4 PUSH2 0x6A9 JUMP JUMPDEST PUSH2 0x3FB JUMP JUMPDEST STOP JUMPDEST PUSH1 0x1 SLOAD PUSH2 0x109 SWAP1 PUSH1 0x1 PUSH1 0x1 PUSH1 0xA0 SHL SUB AND DUP2 JUMP JUMPDEST PUSH1 0x40 MLOAD PUSH1 0x1 PUSH1 0x1 PUSH1 0xA0 SHL SUB SWAP1 SWAP2 AND DUP2 MSTORE PUSH1 0x20 ADD PUSH2 0x9F JUMP JUMPDEST PUSH2 0x134 PUSH2 0x12F CALLDATASIZE PUSH1 0x4 PUSH2 0x774 JUMP JUMPDEST PUSH2 0x507 JUMP JUMPDEST PUSH1 0x40 MLOAD PUSH2 0x9F SWAP3 SWAP2 SWAP1 PUSH2 0x79E JUMP JUMPDEST PUSH2 0x109 PUSH2 0x150 CALLDATASIZE PUSH1 0x4 PUSH2 0x7C0 JUMP JUMPDEST PUSH2 0x5B3 JUMP JUMPDEST PUSH1 0x40 DUP1 MLOAD DUP1 DUP3 ADD SWAP1 SWAP2 MSTORE PUSH1 0x60 DUP2 MSTORE PUSH1 0x0 PUSH1 0x20 DUP3 ADD MSTORE PUSH1 0x4 DUP1 SLOAD PUSH1 0xFF NOT AND SWAP1 SSTORE PUSH1 0x1 DUP1 SLOAD PUSH1 0x1 PUSH1 0x1 PUSH1 0xA0 SHL SUB NOT AND PUSH1 0x1 PUSH1 0x1 PUSH1 0xA0 SHL SUB DUP5 AND OR DUP2 SSTORE PUSH1 0x2 SLOAD PUSH1 0x0 SWAP2 DUP3 SWAP2 PUSH2 0x1A1 SWAP2 SWAP1 PUSH2 0x7EF JUMP JUMPDEST SWAP1 POP JUMPDEST DUP1 ISZERO PUSH2 0x286 JUMPI PUSH1 0x2 DUP2 DUP2 SLOAD DUP2 LT PUSH2 0x1BD JUMPI PUSH2 0x1BD PUSH2 0x808 JUMP JUMPDEST PUSH1 0x0 SWAP2 DUP3 MSTORE PUSH1 0x20 SWAP1 SWAP2 KECCAK256 ADD SLOAD PUSH1 0x1 PUSH1 0x1 PUSH1 0xA0 SHL SUB SWAP1 DUP2 AND SWAP3 POP DUP5 AND DUP3 SUB PUSH2 0x229 JUMPI PUSH1 0x1 PUSH1 0x1 PUSH1 0xA0 SHL SUB DUP5 AND PUSH1 0x0 SWAP1 DUP2 MSTORE PUSH1 0x20 DUP2 DUP2 MSTORE PUSH1 0x40 DUP1 DUP4 KECCAK256 DUP5 DUP5 MSTORE SWAP1 SWAP2 MSTORE SWAP1 KECCAK256 PUSH1 0x5 DUP1 PUSH2 0x20C DUP4 DUP3 PUSH2 0x8A7 JUMP JUMPDEST POP PUSH1 0x1 SWAP2 DUP3 ADD SLOAD SWAP1 DUP3 ADD SSTORE PUSH1 0x4 DUP1 SLOAD PUSH1 0xFF NOT AND SWAP1 SWAP2 OR SWAP1 SSTORE PUSH2 0x286 JUMP JUMPDEST PUSH1 0x4 DUP1 SLOAD PUSH1 0xFF NOT AND SWAP1 SSTORE PUSH1 0x40 DUP1 MLOAD PUSH1 0x60 DUP2 ADD DUP3 MSTORE PUSH1 0x0 SWAP2 DUP2 ADD SWAP2 DUP3 MSTORE DUP2 DUP2 MSTORE PUSH8 0x2C68AF0BB140000 PUSH1 0x20 DUP3 ADD MSTORE SWAP1 PUSH1 0x5 SWAP1 DUP2 SWAP1 PUSH2 0x266 SWAP1 DUP3 PUSH2 0x988 JUMP JUMPDEST POP PUSH1 0x20 DUP3 ADD MLOAD DUP2 PUSH1 0x1 ADD SSTORE SWAP1 POP POP DUP1 PUSH2 0x27E DUP2 PUSH2 0xA42 JUMP JUMPDEST SWAP2 POP POP PUSH2 0x1A4 JUMP JUMPDEST POP PUSH1 0x5 PUSH1 0x40 MLOAD DUP1 PUSH1 0x40 ADD PUSH1 0x40 MSTORE SWAP1 DUP2 PUSH1 0x0 DUP3 ADD DUP1 SLOAD PUSH2 0x2A4 SWAP1 PUSH2 0x81E JUMP JUMPDEST DUP1 PUSH1 0x1F ADD PUSH1 0x20 DUP1 SWAP2 DIV MUL PUSH1 0x20 ADD PUSH1 0x40 MLOAD SWAP1 DUP2 ADD PUSH1 0x40 MSTORE DUP1 SWAP3 SWAP2 SWAP1 DUP2 DUP2 MSTORE PUSH1 0x20 ADD DUP3 DUP1 SLOAD PUSH2 0x2D0 SWAP1 PUSH2 0x81E JUMP JUMPDEST DUP1 ISZERO PUSH2 0x31D JUMPI DUP1 PUSH1 0x1F LT PUSH2 0x2F2 JUMPI PUSH2 0x100 DUP1 DUP4 SLOAD DIV MUL DUP4 MSTORE SWAP2 PUSH1 0x20 ADD SWAP2 PUSH2 0x31D JUMP JUMPDEST DUP3 ADD SWAP2 SWAP1 PUSH1 0x0 MSTORE PUSH1 0x20 PUSH1 0x0 KECCAK256 SWAP1 JUMPDEST DUP2 SLOAD DUP2 MSTORE SWAP1 PUSH1 0x1 ADD SWAP1 PUSH1 0x20 ADD DUP1 DUP4 GT PUSH2 0x300 JUMPI DUP3 SWAP1 SUB PUSH1 0x1F AND DUP3 ADD SWAP2 JUMPDEST POP POP POP POP POP DUP2 MSTORE PUSH1 0x20 ADD PUSH1 0x1 DUP3 ADD SLOAD DUP2 MSTORE POP POP SWAP2 POP POP SWAP2 SWAP1 POP JUMP JUMPDEST PUSH1 0x40 DUP1 MLOAD DUP1 DUP3 ADD SWAP1 SWAP2 MSTORE PUSH1 0x60 DUP2 MSTORE PUSH1 0x0 PUSH1 0x20 DUP3 ADD MSTORE PUSH1 0x5 PUSH1 0x40 MLOAD DUP1 PUSH1 0x40 ADD PUSH1 0x40 MSTORE SWAP1 DUP2 PUSH1 0x0 DUP3 ADD DUP1 SLOAD PUSH2 0x36A SWAP1 PUSH2 0x81E JUMP JUMPDEST DUP1 PUSH1 0x1F ADD PUSH1 0x20 DUP1 SWAP2 DIV MUL PUSH1 0x20 ADD PUSH1 0x40 MLOAD SWAP1 DUP2 ADD PUSH1 0x40 MSTORE DUP1 SWAP3 SWAP2 SWAP1 DUP2 DUP2 MSTORE PUSH1 0x20 ADD DUP3 DUP1 SLOAD PUSH2 0x396 SWAP1 PUSH2 0x81E JUMP JUMPDEST DUP1 ISZERO PUSH2 0x3E3 JUMPI DUP1 PUSH1 0x1F LT PUSH2 0x3B8 JUMPI PUSH2 0x100 DUP1 DUP4 SLOAD DIV MUL DUP4 MSTORE SWAP2 PUSH1 0x20 ADD SWAP2 PUSH2 0x3E3 JUMP JUMPDEST DUP3 ADD SWAP2 SWAP1 PUSH1 0x0 MSTORE PUSH1 0x20 PUSH1 0x0 KECCAK256 SWAP1 JUMPDEST DUP2 SLOAD DUP2 MSTORE SWAP1 PUSH1 0x1 ADD SWAP1 PUSH1 0x20 ADD DUP1 DUP4 GT PUSH2 0x3C6 JUMPI DUP3 SWAP1 SUB PUSH1 0x1F AND DUP3 ADD SWAP2 JUMPDEST POP POP POP POP POP DUP2 MSTORE PUSH1 0x20 ADD PUSH1 0x1 DUP3 ADD SLOAD DUP2 MSTORE POP POP SWAP1 POP SWAP1 JUMP JUMPDEST PUSH1 0x40 DUP1 MLOAD DUP1 DUP3 ADD DUP3 MSTORE DUP4 DUP2 MSTORE PUSH1 0x20 DUP1 DUP3 ADD DUP5 SWAP1 MSTORE PUSH1 0x1 PUSH1 0x1 PUSH1 0xA0 SHL SUB DUP7 AND PUSH1 0x0 SWAP1 DUP2 MSTORE DUP1 DUP3 MSTORE DUP4 DUP2 KECCAK256 PUSH1 0x3 SLOAD DUP3 MSTORE SWAP1 SWAP2 MSTORE SWAP2 SWAP1 SWAP2 KECCAK256 DUP2 MLOAD DUP3 SWAP2 SWAP1 DUP2 SWAP1 PUSH2 0x441 SWAP1 DUP3 PUSH2 0x988 JUMP JUMPDEST POP PUSH1 0x20 SWAP2 SWAP1 SWAP2 ADD MLOAD PUSH1 0x1 SWAP2 DUP3 ADD SSTORE PUSH1 0x2 DUP1 SLOAD SWAP2 DUP3 ADD DUP2 SSTORE PUSH1 0x0 SWAP1 DUP2 MSTORE PUSH32 0x405787FA12A823E0F2B7631CC41B3BA8828B3321CA811111FA75CD3AA3BB5ACE SWAP1 SWAP2 ADD DUP1 SLOAD PUSH1 0x1 PUSH1 0x1 PUSH1 0xA0 SHL SUB NOT AND PUSH1 0x1 PUSH1 0x1 PUSH1 0xA0 SHL SUB DUP8 AND OR SWAP1 SSTORE PUSH1 0x3 DUP1 SLOAD SWAP2 PUSH2 0x4A8 DUP4 PUSH2 0xA59 JUMP JUMPDEST SWAP1 SWAP2 SSTORE POP POP PUSH1 0x2 SLOAD PUSH1 0x7 SSTORE PUSH1 0x1 SLOAD DUP2 MLOAD PUSH1 0x20 DUP4 ADD MLOAD PUSH1 0x40 MLOAD PUSH32 0x5A1204A2CAA3D481483B5768326C92726DCCCF4041326C9CE44E8AFBE6C18661 SWAP4 PUSH2 0x4F9 SWAP4 PUSH1 0x1 PUSH1 0x1 PUSH1 0xA0 SHL SUB SWAP1 SWAP2 AND SWAP3 SWAP1 SWAP2 PUSH2 0xA72 JUMP JUMPDEST PUSH1 0x40 MLOAD DUP1 SWAP2 SUB SWAP1 LOG1 POP POP POP POP JUMP JUMPDEST PUSH1 0x0 PUSH1 0x20 DUP2 DUP2 MSTORE SWAP3 DUP2 MSTORE PUSH1 0x40 DUP1 DUP3 KECCAK256 SWAP1 SWAP4 MSTORE SWAP1 DUP2 MSTORE KECCAK256 DUP1 SLOAD DUP2 SWAP1 PUSH2 0x52A SWAP1 PUSH2 0x81E JUMP JUMPDEST DUP1 PUSH1 0x1F ADD PUSH1 0x20 DUP1 SWAP2 DIV MUL PUSH1 0x20 ADD PUSH1 0x40 MLOAD SWAP1 DUP2 ADD PUSH1 0x40 MSTORE DUP1 SWAP3 SWAP2 SWAP1 DUP2 DUP2 MSTORE PUSH1 0x20 ADD DUP3 DUP1 SLOAD PUSH2 0x556 SWAP1 PUSH2 0x81E JUMP JUMPDEST DUP1 ISZERO PUSH2 0x5A3 JUMPI DUP1 PUSH1 0x1F LT PUSH2 0x578 JUMPI PUSH2 0x100 DUP1 DUP4 SLOAD DIV MUL DUP4 MSTORE SWAP2 PUSH1 0x20 ADD SWAP2 PUSH2 0x5A3 JUMP JUMPDEST DUP3 ADD SWAP2 SWAP1 PUSH1 0x0 MSTORE PUSH1 0x20 PUSH1 0x0 KECCAK256 SWAP1 JUMPDEST DUP2 SLOAD DUP2 MSTORE SWAP1 PUSH1 0x1 ADD SWAP1 PUSH1 0x20 ADD DUP1 DUP4 GT PUSH2 0x586 JUMPI DUP3 SWAP1 SUB PUSH1 0x1F AND DUP3 ADD SWAP2 JUMPDEST POP POP POP POP POP SWAP1 DUP1 PUSH1 0x1 ADD SLOAD SWAP1 POP DUP3 JUMP JUMPDEST PUSH1 0x2 DUP2 DUP2 SLOAD DUP2 LT PUSH2 0x5C3 JUMPI PUSH1 0x0 DUP1 REVERT JUMPDEST PUSH1 0x0 SWAP2 DUP3 MSTORE PUSH1 0x20 SWAP1 SWAP2 KECCAK256 ADD SLOAD PUSH1 0x1 PUSH1 0x1 PUSH1 0xA0 SHL SUB AND SWAP1 POP DUP2 JUMP JUMPDEST DUP1 CALLDATALOAD PUSH1 0x1 PUSH1 0x1 PUSH1 0xA0 SHL SUB DUP2 AND DUP2 EQ PUSH2 0x5F4 JUMPI PUSH1 0x0 DUP1 REVERT JUMPDEST SWAP2 SWAP1 POP JUMP JUMPDEST PUSH1 0x0 PUSH1 0x20 DUP3 DUP5 SUB SLT ISZERO PUSH2 0x60B JUMPI PUSH1 0x0 DUP1 REVERT JUMPDEST PUSH2 0x614 DUP3 PUSH2 0x5DD JUMP JUMPDEST SWAP4 SWAP3 POP POP POP JUMP JUMPDEST PUSH1 0x0 DUP2 MLOAD DUP1 DUP5 MSTORE PUSH1 0x0 JUMPDEST DUP2 DUP2 LT ISZERO PUSH2 0x641 JUMPI PUSH1 0x20 DUP2 DUP6 ADD DUP2 ADD MLOAD DUP7 DUP4 ADD DUP3 ADD MSTORE ADD PUSH2 0x625 JUMP JUMPDEST POP PUSH1 0x0 PUSH1 0x20 DUP3 DUP7 ADD ADD MSTORE PUSH1 0x20 PUSH1 0x1F NOT PUSH1 0x1F DUP4 ADD AND DUP6 ADD ADD SWAP2 POP POP SWAP3 SWAP2 POP POP JUMP JUMPDEST PUSH1 0x20 DUP2 MSTORE PUSH1 0x0 DUP3 MLOAD PUSH1 0x40 PUSH1 0x20 DUP5 ADD MSTORE PUSH2 0x67D PUSH1 0x60 DUP5 ADD DUP3 PUSH2 0x61B JUMP JUMPDEST SWAP1 POP PUSH1 0x20 DUP5 ADD MLOAD PUSH1 0x40 DUP5 ADD MSTORE DUP1 SWAP2 POP POP SWAP3 SWAP2 POP POP JUMP JUMPDEST PUSH4 0x4E487B71 PUSH1 0xE0 SHL PUSH1 0x0 MSTORE PUSH1 0x41 PUSH1 0x4 MSTORE PUSH1 0x24 PUSH1 0x0 REVERT JUMPDEST PUSH1 0x0 DUP1 PUSH1 0x0 PUSH1 0x60 DUP5 DUP7 SUB SLT ISZERO PUSH2 0x6BE JUMPI PUSH1 0x0 DUP1 REVERT JUMPDEST PUSH2 0x6C7 DUP5 PUSH2 0x5DD JUMP JUMPDEST SWAP3 POP PUSH1 0x20 DUP5 ADD CALLDATALOAD PUSH8 0xFFFFFFFFFFFFFFFF DUP1 DUP3 GT ISZERO PUSH2 0x6E4 JUMPI PUSH1 0x0 DUP1 REVERT JUMPDEST DUP2 DUP7 ADD SWAP2 POP DUP7 PUSH1 0x1F DUP4 ADD SLT PUSH2 0x6F8 JUMPI PUSH1 0x0 DUP1 REVERT JUMPDEST DUP2 CALLDATALOAD DUP2 DUP2 GT ISZERO PUSH2 0x70A JUMPI PUSH2 0x70A PUSH2 0x693 JUMP JUMPDEST PUSH1 0x40 MLOAD PUSH1 0x1F DUP3 ADD PUSH1 0x1F NOT SWAP1 DUP2 AND PUSH1 0x3F ADD AND DUP2 ADD SWAP1 DUP4 DUP3 GT DUP2 DUP4 LT OR ISZERO PUSH2 0x732 JUMPI PUSH2 0x732 PUSH2 0x693 JUMP JUMPDEST DUP2 PUSH1 0x40 MSTORE DUP3 DUP2 MSTORE DUP10 PUSH1 0x20 DUP5 DUP8 ADD ADD GT ISZERO PUSH2 0x74B JUMPI PUSH1 0x0 DUP1 REVERT JUMPDEST DUP3 PUSH1 0x20 DUP7 ADD PUSH1 0x20 DUP4 ADD CALLDATACOPY PUSH1 0x0 PUSH1 0x20 DUP5 DUP4 ADD ADD MSTORE DUP1 SWAP7 POP POP POP POP POP POP PUSH1 0x40 DUP5 ADD CALLDATALOAD SWAP1 POP SWAP3 POP SWAP3 POP SWAP3 JUMP JUMPDEST PUSH1 0x0 DUP1 PUSH1 0x40 DUP4 DUP6 SUB SLT ISZERO PUSH2 0x787 JUMPI PUSH1 0x0 DUP1 REVERT JUMPDEST PUSH2 0x790 DUP4 PUSH2 0x5DD JUMP JUMPDEST SWAP5 PUSH1 0x20 SWAP4 SWAP1 SWAP4 ADD CALLDATALOAD SWAP4 POP POP POP JUMP JUMPDEST PUSH1 0x40 DUP2 MSTORE PUSH1 0x0 PUSH2 0x7B1 PUSH1 0x40 DUP4 ADD DUP6 PUSH2 0x61B JUMP JUMPDEST SWAP1 POP DUP3 PUSH1 0x20 DUP4 ADD MSTORE SWAP4 SWAP3 POP POP POP JUMP JUMPDEST PUSH1 0x0 PUSH1 0x20 DUP3 DUP5 SUB SLT ISZERO PUSH2 0x7D2 JUMPI PUSH1 0x0 DUP1 REVERT JUMPDEST POP CALLDATALOAD SWAP2 SWAP1 POP JUMP JUMPDEST PUSH4 0x4E487B71 PUSH1 0xE0 SHL PUSH1 0x0 MSTORE PUSH1 0x11 PUSH1 0x4 MSTORE PUSH1 0x24 PUSH1 0x0 REVERT JUMPDEST DUP2 DUP2 SUB DUP2 DUP2 GT ISZERO PUSH2 0x802 JUMPI PUSH2 0x802 PUSH2 0x7D9 JUMP JUMPDEST SWAP3 SWAP2 POP POP JUMP JUMPDEST PUSH4 0x4E487B71 PUSH1 0xE0 SHL PUSH1 0x0 MSTORE PUSH1 0x32 PUSH1 0x4 MSTORE PUSH1 0x24 PUSH1 0x0 REVERT JUMPDEST PUSH1 0x1 DUP2 DUP2 SHR SWAP1 DUP3 AND DUP1 PUSH2 0x832 JUMPI PUSH1 0x7F DUP3 AND SWAP2 POP JUMPDEST PUSH1 0x20 DUP3 LT DUP2 SUB PUSH2 0x852 JUMPI PUSH4 0x4E487B71 PUSH1 0xE0 SHL PUSH1 0x0 MSTORE PUSH1 0x22 PUSH1 0x4 MSTORE PUSH1 0x24 PUSH1 0x0 REVERT JUMPDEST POP SWAP2 SWAP1 POP JUMP JUMPDEST PUSH1 0x1F DUP3 GT ISZERO PUSH2 0x8A2 JUMPI PUSH1 0x0 DUP2 DUP2 MSTORE PUSH1 0x20 DUP2 KECCAK256 PUSH1 0x1F DUP6 ADD PUSH1 0x5 SHR DUP2 ADD PUSH1 0x20 DUP7 LT ISZERO PUSH2 0x87F JUMPI POP DUP1 JUMPDEST PUSH1 0x1F DUP6 ADD PUSH1 0x5 SHR DUP3 ADD SWAP2 POP JUMPDEST DUP2 DUP2 LT ISZERO PUSH2 0x89E JUMPI DUP3 DUP2 SSTORE PUSH1 0x1 ADD PUSH2 0x88B JUMP JUMPDEST POP POP POP JUMPDEST POP POP POP JUMP JUMPDEST DUP2 DUP2 SUB PUSH2 0x8B2 JUMPI POP POP JUMP JUMPDEST PUSH2 0x8BC DUP3 SLOAD PUSH2 0x81E JUMP JUMPDEST PUSH8 0xFFFFFFFFFFFFFFFF DUP2 GT ISZERO PUSH2 0x8D4 JUMPI PUSH2 0x8D4 PUSH2 0x693 JUMP JUMPDEST PUSH2 0x8E8 DUP2 PUSH2 0x8E2 DUP5 SLOAD PUSH2 0x81E JUMP JUMPDEST DUP5 PUSH2 0x858 JUMP JUMPDEST PUSH1 0x0 PUSH1 0x1F DUP3 GT PUSH1 0x1 DUP2 EQ PUSH2 0x91C JUMPI PUSH1 0x0 DUP4 ISZERO PUSH2 0x904 JUMPI POP DUP5 DUP3 ADD SLOAD JUMPDEST PUSH1 0x0 NOT PUSH1 0x3 DUP6 SWAP1 SHL SHR NOT AND PUSH1 0x1 DUP5 SWAP1 SHL OR DUP5 SSTORE PUSH2 0x981 JUMP JUMPDEST PUSH1 0x0 DUP6 DUP2 MSTORE PUSH1 0x20 SWAP1 KECCAK256 PUSH1 0x1F NOT DUP5 AND SWAP1 PUSH1 0x0 DUP7 DUP2 MSTORE PUSH1 0x20 SWAP1 KECCAK256 DUP5 JUMPDEST DUP4 DUP2 LT ISZERO PUSH2 0x956 JUMPI DUP3 DUP7 ADD SLOAD DUP3 SSTORE PUSH1 0x1 SWAP6 DUP7 ADD SWAP6 SWAP1 SWAP2 ADD SWAP1 PUSH1 0x20 ADD PUSH2 0x936 JUMP JUMPDEST POP DUP6 DUP4 LT ISZERO PUSH2 0x974 JUMPI DUP2 DUP6 ADD SLOAD PUSH1 0x0 NOT PUSH1 0x3 DUP9 SWAP1 SHL PUSH1 0xF8 AND SHR NOT AND DUP2 SSTORE JUMPDEST POP POP POP PUSH1 0x1 DUP4 PUSH1 0x1 SHL ADD DUP5 SSTORE JUMPDEST POP POP POP POP POP JUMP JUMPDEST DUP2 MLOAD PUSH8 0xFFFFFFFFFFFFFFFF DUP2 GT ISZERO PUSH2 0x9A2 JUMPI PUSH2 0x9A2 PUSH2 0x693 JUMP JUMPDEST PUSH2 0x9B0 DUP2 PUSH2 0x8E2 DUP5 SLOAD PUSH2 0x81E JUMP JUMPDEST PUSH1 0x20 DUP1 PUSH1 0x1F DUP4 GT PUSH1 0x1 DUP2 EQ PUSH2 0x9E5 JUMPI PUSH1 0x0 DUP5 ISZERO PUSH2 0x9CD JUMPI POP DUP6 DUP4 ADD MLOAD JUMPDEST PUSH1 0x0 NOT PUSH1 0x3 DUP7 SWAP1 SHL SHR NOT AND PUSH1 0x1 DUP6 SWAP1 SHL OR DUP6 SSTORE PUSH2 0x89E JUMP JUMPDEST PUSH1 0x0 DUP6 DUP2 MSTORE PUSH1 0x20 DUP2 KECCAK256 PUSH1 0x1F NOT DUP7 AND SWAP2 JUMPDEST DUP3 DUP2 LT ISZERO PUSH2 0xA14 JUMPI DUP9 DUP7 ADD MLOAD DUP3 SSTORE SWAP5 DUP5 ADD SWAP5 PUSH1 0x1 SWAP1 SWAP2 ADD SWAP1 DUP5 ADD PUSH2 0x9F5 JUMP JUMPDEST POP DUP6 DUP3 LT ISZERO PUSH2 0xA32 JUMPI DUP8 DUP6 ADD MLOAD PUSH1 0x0 NOT PUSH1 0x3 DUP9 SWAP1 SHL PUSH1 0xF8 AND SHR NOT AND DUP2 SSTORE JUMPDEST POP POP POP POP POP PUSH1 0x1 SWAP1 DUP2 SHL ADD SWAP1 SSTORE POP JUMP JUMPDEST PUSH1 0x0 DUP2 PUSH2 0xA51 JUMPI PUSH2 0xA51 PUSH2 0x7D9 JUMP JUMPDEST POP PUSH1 0x0 NOT ADD SWAP1 JUMP JUMPDEST PUSH1 0x0 PUSH1 0x1 DUP3 ADD PUSH2 0xA6B JUMPI PUSH2 0xA6B PUSH2 0x7D9 JUMP JUMPDEST POP PUSH1 0x1 ADD SWAP1 JUMP JUMPDEST PUSH1 0x1 PUSH1 0x1 PUSH1 0xA0 SHL SUB DUP5 AND DUP2 MSTORE PUSH1 0x60 PUSH1 0x20 DUP3 ADD DUP2 SWAP1 MSTORE PUSH1 0x0 SWAP1 PUSH2 0xA96 SWAP1 DUP4 ADD DUP6 PUSH2 0x61B JUMP JUMPDEST SWAP1 POP DUP3 PUSH1 0x40 DUP4 ADD MSTORE SWAP5 SWAP4 POP POP POP POP JUMP INVALID LOG2 PUSH5 0x6970667358 0x22 SLT KECCAK256 ISZERO EXTCODECOPY DUP2 PUSH28 0xC585D0ABB3918FD66702FEDF3C76C693918DD04A13756A46D556F74 PUSH5 0x736F6C6343 STOP ADDMOD EQ STOP CALLER ",
  "sha1": "1881ae4d2a48127c1b786eeac1638493ca1ec096",
  "source": "// SPDX-License-Identifier: GPL-3.0\npragma solidity ^0.8.19;\ncontract storepublickkey {\n    \n    event storepublickeysmobileuser(address mobileuser,string public_keymu,int256 Rus );\n    struct Public_key{\n        string public_keymu;\n        int256 Rus;\n        \n    }\n    \n    mapping(address => mapping(uint256 =>Public_key)) public key;\n    address public mobileuser;\n    address[] public mobileuserArray;\n    uint256 id=1;\n    bool exists;\n    Public_key restorepublickey;\n    uint256 l;\n    constructor () {\n       \n         mobileuserArray.push(0x0000000000000000000000000000000000000000);\n        Public_key memory initpublickey=Public_key({ public_keymu:\"\", Rus:300000000000000000});\n         key[0x0000000000000000000000000000000000000000][0]=initpublickey;\n        exists=false;\n    }\n        \n    function storeintheblockchain(address mobile,string memory pknmu,int256 _Rus )public {\n       \n        \n        Public_key memory publickey =Public_key(pknmu,_Rus);\n        \n        key[mobile][id]=publickey;\n        mobileuserArray.push(mobile);\n        \n        id++;\n        l=mobileuserArray.length;\n        emit storepublickeysmobileuser(mobileuser,publickey.public_keymu,publickey.Rus);\n    \n    }\n    \n     \n     function Researchpublickey(address mobile)public returns(Public_key memory ){\n\n        exists=false;\n        address _mobile;\n        mobileuser=mobile;\n      \n       for(uint i=mobileuserArray.length-1;i>0;i--)\n       {\n          \n           _mobile=mobileuserArray[i];\n            if(_mobile==mobile){\n               restorepublickey=key[mobile][i];\n               exists=true;\n                \n               break; \n            }\n            else{\n              exists=false;\n              restorepublickey=Public_key({ public_keymu:\"\", Rus:200000000000000000});\n            }\n        \n             \n       }\n       \n      return  restorepublickey;\n    \n      \n    }\n    function Existingpublickey()public view returns(bool){\n      \n      return exists;\n    }\n    function getResearchpublickey()public view returns(Public_key memory){\n        return restorepublickey;\n    }\n    function getlengh() public view returns(uint256){\n        return l;\n    }\n\n   \n\n\n}\n",
  "sourcePath": "contracts/mobility.sol",
  "type": "contract"
}