{
  "abi": [
    {
      "inputs": [],
      "stateMutability": "nonpayable",
      "type": "constructor"
    },
    {
      "anonymous": false,
      "inputs": [
        {
          "indexed": false,
          "internalType": "string",
          "name": "Content_key",
          "type": "string"
        },
        {
          "indexed": false,
          "internalType": "string",
          "name": "hash_ID",
          "type": "string"
        },
        {
          "indexed": false,
          "internalType": "string",
          "name": "token_sign",
          "type": "string"
        },
        {
          "indexed": false,
          "internalType": "int256",
          "name": "splitsizecontent_ID",
          "type": "int256"
        }
      ],
      "name": "Transfercachedcontent",
      "type": "event"
    },
    {
      "inputs": [
        {
          "internalType": "string",
          "name": "",
          "type": "string"
        },
        {
          "internalType": "uint256",
          "name": "",
          "type": "uint256"
        }
      ],
      "name": "Contentcache",
      "outputs": [
        {
          "internalType": "string",
          "name": "hash_ID",
          "type": "string"
        },
        {
          "internalType": "string",
          "name": "token_sign",
          "type": "string"
        },
        {
          "internalType": "int256",
          "name": "splitsizecontent_ID",
          "type": "int256"
        }
      ],
      "stateMutability": "view",
      "type": "function"
    },
    {
      "inputs": [
        {
          "internalType": "uint256",
          "name": "",
          "type": "uint256"
        }
      ],
      "name": "ContentkeyArray",
      "outputs": [
        {
          "internalType": "string",
          "name": "",
          "type": "string"
        }
      ],
      "stateMutability": "view",
      "type": "function"
    },
    {
      "inputs": [
        {
          "internalType": "string",
          "name": "Contentkey",
          "type": "string"
        }
      ],
      "name": "Readcontentfromedgeservercache",
      "outputs": [
        {
          "components": [
            {
              "internalType": "string",
              "name": "hash_ID",
              "type": "string"
            },
            {
              "internalType": "string",
              "name": "token_sign",
              "type": "string"
            },
            {
              "internalType": "int256",
              "name": "splitsizecontent_ID",
              "type": "int256"
            }
          ],
          "internalType": "struct transcache.Content_cache",
          "name": "",
          "type": "tuple"
        }
      ],
      "stateMutability": "nonpayable",
      "type": "function"
    },
    {
      "inputs": [
        {
          "internalType": "string",
          "name": "Contentkey",
          "type": "string"
        },
        {
          "internalType": "string",
          "name": "hashID",
          "type": "string"
        },
        {
          "internalType": "string",
          "name": "tokensign",
          "type": "string"
        },
        {
          "internalType": "int256",
          "name": "splitsizecontentID",
          "type": "int256"
        }
      ],
      "name": "Storecontentinedgeservercache",
      "outputs": [],
      "stateMutability": "nonpayable",
      "type": "function"
    },
    {
      "inputs": [],
      "name": "getcontentfromedgeservercache",
      "outputs": [
        {
          "components": [
            {
              "internalType": "string",
              "name": "hash_ID",
              "type": "string"
            },
            {
              "internalType": "string",
              "name": "token_sign",
              "type": "string"
            },
            {
              "internalType": "int256",
              "name": "splitsizecontent_ID",
              "type": "int256"
            }
          ],
          "internalType": "struct transcache.Content_cache",
          "name": "",
          "type": "tuple"
        }
      ],
      "stateMutability": "view",
      "type": "function"
    }
  ],
  "bytecode": "608060405260016002553480156200001657600080fd5b50600180548082018255600082905260408051808201909152918252600360fc1b60208301527fb10e2d527612073b26eecdfd717e6a320cf44b4afac2b0732d9fcbe2b7fa0cf601906200006b9082620001a1565b506040805160808101825260006060820181815282528251602080820185528282528301528183018190529151600360fc1b815290918291600101908152604080516020928190038301902060008080529252902081518190620000d09082620001a1565b5060208201516001820190620000e79082620001a1565b5060408201518160020155905050506200026d565b634e487b7160e01b600052604160045260246000fd5b600181811c908216806200012757607f821691505b6020821081036200014857634e487b7160e01b600052602260045260246000fd5b50919050565b601f8211156200019c57600081815260208120601f850160051c81016020861015620001775750805b601f850160051c820191505b81811015620001985782815560010162000183565b5050505b505050565b81516001600160401b03811115620001bd57620001bd620000fc565b620001d581620001ce845462000112565b846200014e565b602080601f8311600181146200020d5760008415620001f45750858301515b600019600386901b1c1916600185901b17855562000198565b600085815260208120601f198616915b828110156200023e578886015182559484019460019091019084016200021d565b50858210156200025d5787850151600019600388901b60f8161c191681555b5050505050600190811b01905550565b610ea7806200027d6000396000f3fe608060405234801561001057600080fd5b50600436106100575760003560e01c8063369bda591461005c578063a3f7aa3414610085578063a99b53fa146100a5578063e12bd380146100ba578063eee1520e146100c2575b600080fd5b61006f61006a366004610956565b6100e4565b60405161007c91906109e3565b60405180910390f35b610098610093366004610a33565b610439565b60405161007c9190610a4c565b6100b86100b3366004610a66565b6104e5565b005b61006f610604565b6100d56100d0366004610af6565b610768565b60405161007c93929190610b3b565b61010860405180606001604052806060815260200160608152602001600081525090565b606060036101168482610bfa565b506001805460009161012791610cd0565b90505b80156102f5576001818154811061014357610143610ce9565b90600052602060002001805461015890610b71565b80601f016020809104026020016040519081016040528092919081815260200182805461018490610b71565b80156101d15780601f106101a6576101008083540402835291602001916101d1565b820191906000526020600020905b8154815290600101906020018083116101b457829003601f168201915b50505050509150836040516020016101e99190610cff565b60405160208183030381529060405280519060200120826040516020016102109190610cff565b60405160208183030381529060405280519060200120036102845760008460405161023b9190610cff565b90815260408051602092819003830190206000848152925290206004806102628382610d1b565b5060018181019061027590840182610d1b565b506002918201549101556102f5565b60408051608081018252600060608201818152825282516020818101855282825283015291810191909152805160049081906102c09082610bfa565b50602082015160018201906102d59082610bfa565b5060408201518160020155905050806102ed81610df6565b91505061012a565b50600460405180606001604052908160008201805461031390610b71565b80601f016020809104026020016040519081016040528092919081815260200182805461033f90610b71565b801561038c5780601f106103615761010080835404028352916020019161038c565b820191906000526020600020905b81548152906001019060200180831161036f57829003601f168201915b505050505081526020016001820180546103a590610b71565b80601f01602080910402602001604051908101604052809291908181526020018280546103d190610b71565b801561041e5780601f106103f35761010080835404028352916020019161041e565b820191906000526020600020905b81548152906001019060200180831161040157829003601f168201915b50505050508152602001600282015481525050915050919050565b6001818154811061044957600080fd5b90600052602060002001600091509050805461046490610b71565b80601f016020809104026020016040519081016040528092919081815260200182805461049090610b71565b80156104dd5780601f106104b2576101008083540402835291602001916104dd565b820191906000526020600020905b8154815290600101906020018083116104c057829003601f168201915b505050505081565b60006040518060600160405280858152602001848152602001838152509050806000866040516105159190610cff565b9081526040805160209281900383019020600254600090815292529020815181906105409082610bfa565b50602082015160018201906105559082610bfa565b50604091909101516002909101556001805480820182556000919091527fb10e2d527612073b26eecdfd717e6a320cf44b4afac2b0732d9fcbe2b7fa0cf60161059e8682610bfa565b50600280549060006105af83610e0d565b91905055507fa7bc20709caba58fd883ba02796e1a58b1ace146f9524df90b4bd7159754bf26858260000151836020015184604001516040516105f59493929190610e26565b60405180910390a15050505050565b61062860405180606001604052806060815260200160608152602001600081525090565b600460405180606001604052908160008201805461064590610b71565b80601f016020809104026020016040519081016040528092919081815260200182805461067190610b71565b80156106be5780601f10610693576101008083540402835291602001916106be565b820191906000526020600020905b8154815290600101906020018083116106a157829003601f168201915b505050505081526020016001820180546106d790610b71565b80601f016020809104026020016040519081016040528092919081815260200182805461070390610b71565b80156107505780601f1061072557610100808354040283529160200191610750565b820191906000526020600020905b81548152906001019060200180831161073357829003601f168201915b50505050508152602001600282015481525050905090565b8151602081840181018051600080835293830195830195909520949052929092528152604090208054819061079c90610b71565b80601f01602080910402602001604051908101604052809291908181526020018280546107c890610b71565b80156108155780601f106107ea57610100808354040283529160200191610815565b820191906000526020600020905b8154815290600101906020018083116107f857829003601f168201915b50505050509080600101805461082a90610b71565b80601f016020809104026020016040519081016040528092919081815260200182805461085690610b71565b80156108a35780601f10610878576101008083540402835291602001916108a3565b820191906000526020600020905b81548152906001019060200180831161088657829003601f168201915b5050505050908060020154905083565b634e487b7160e01b600052604160045260246000fd5b600082601f8301126108da57600080fd5b813567ffffffffffffffff808211156108f5576108f56108b3565b604051601f8301601f19908116603f0116810190828211818310171561091d5761091d6108b3565b8160405283815286602085880101111561093657600080fd5b836020870160208301376000602085830101528094505050505092915050565b60006020828403121561096857600080fd5b813567ffffffffffffffff81111561097f57600080fd5b61098b848285016108c9565b949350505050565b60005b838110156109ae578181015183820152602001610996565b50506000910152565b600081518084526109cf816020860160208601610993565b601f01601f19169290920160200192915050565b6020815260008251606060208401526109ff60808401826109b7565b90506020840151601f19848303016040850152610a1c82826109b7565b915050604084015160608401528091505092915050565b600060208284031215610a4557600080fd5b5035919050565b602081526000610a5f60208301846109b7565b9392505050565b60008060008060808587031215610a7c57600080fd5b843567ffffffffffffffff80821115610a9457600080fd5b610aa0888389016108c9565b95506020870135915080821115610ab657600080fd5b610ac2888389016108c9565b94506040870135915080821115610ad857600080fd5b50610ae5878288016108c9565b949793965093946060013593505050565b60008060408385031215610b0957600080fd5b823567ffffffffffffffff811115610b2057600080fd5b610b2c858286016108c9565b95602094909401359450505050565b606081526000610b4e60608301866109b7565b8281036020840152610b6081866109b7565b915050826040830152949350505050565b600181811c90821680610b8557607f821691505b602082108103610ba557634e487b7160e01b600052602260045260246000fd5b50919050565b601f821115610bf557600081815260208120601f850160051c81016020861015610bd25750805b601f850160051c820191505b81811015610bf157828155600101610bde565b5050505b505050565b815167ffffffffffffffff811115610c1457610c146108b3565b610c2881610c228454610b71565b84610bab565b602080601f831160018114610c5d5760008415610c455750858301515b600019600386901b1c1916600185901b178555610bf1565b600085815260208120601f198616915b82811015610c8c57888601518255948401946001909101908401610c6d565b5085821015610caa5787850151600019600388901b60f8161c191681555b5050505050600190811b01905550565b634e487b7160e01b600052601160045260246000fd5b81810381811115610ce357610ce3610cba565b92915050565b634e487b7160e01b600052603260045260246000fd5b60008251610d11818460208701610993565b9190910192915050565b818103610d26575050565b610d308254610b71565b67ffffffffffffffff811115610d4857610d486108b3565b610d5681610c228454610b71565b6000601f821160018114610d8a5760008315610d725750848201545b600019600385901b1c1916600184901b178455610def565b600085815260209020601f19841690600086815260209020845b83811015610dc45782860154825560019586019590910190602001610da4565b5085831015610de25781850154600019600388901b60f8161c191681555b50505060018360011b0184555b5050505050565b600081610e0557610e05610cba565b506000190190565b600060018201610e1f57610e1f610cba565b5060010190565b608081526000610e3960808301876109b7565b8281036020840152610e4b81876109b7565b90508281036040840152610e5f81866109b7565b9150508260608301529594505050505056fea26469706673582212206155d3925bcce3202acb049341c3cac07ec2c858b389d0a0c351e6379fce63ad64736f6c63430008140033",
  "bytecodeSha1": "38f1a600379610721e682d7cb492800dc7ad3f0f",
  "compiler": {
    "evm_version": "istanbul",
    "optimizer": {
      "enabled": true,
      "runs": 200
    },
    "version": "0.8.20+commit.a1b79de6"
  },
  "contractName": "transcache",
  "language": "Solidity",
  "natspec": {
    "kind": "dev",
    "methods": {},
    "version": 1
  },
  "opcodes": "PUSH1 0x80 PUSH1 0x40 MSTORE CALLVALUE DUP1 ISZERO PUSH2 0x10 JUMPI PUSH1 0x0 DUP1 REVERT JUMPDEST POP PUSH1 0x4 CALLDATASIZE LT PUSH2 0x57 JUMPI PUSH1 0x0 CALLDATALOAD PUSH1 0xE0 SHR DUP1 PUSH4 0x369BDA59 EQ PUSH2 0x5C JUMPI DUP1 PUSH4 0xA3F7AA34 EQ PUSH2 0x85 JUMPI DUP1 PUSH4 0xA99B53FA EQ PUSH2 0xA5 JUMPI DUP1 PUSH4 0xE12BD380 EQ PUSH2 0xBA JUMPI DUP1 PUSH4 0xEEE1520E EQ PUSH2 0xC2 JUMPI JUMPDEST PUSH1 0x0 DUP1 REVERT JUMPDEST PUSH2 0x6F PUSH2 0x6A CALLDATASIZE PUSH1 0x4 PUSH2 0x956 JUMP JUMPDEST PUSH2 0xE4 JUMP JUMPDEST PUSH1 0x40 MLOAD PUSH2 0x7C SWAP2 SWAP1 PUSH2 0x9E3 JUMP JUMPDEST PUSH1 0x40 MLOAD DUP1 SWAP2 SUB SWAP1 RETURN JUMPDEST PUSH2 0x98 PUSH2 0x93 CALLDATASIZE PUSH1 0x4 PUSH2 0xA33 JUMP JUMPDEST PUSH2 0x439 JUMP JUMPDEST PUSH1 0x40 MLOAD PUSH2 0x7C SWAP2 SWAP1 PUSH2 0xA4C JUMP JUMPDEST PUSH2 0xB8 PUSH2 0xB3 CALLDATASIZE PUSH1 0x4 PUSH2 0xA66 JUMP JUMPDEST PUSH2 0x4E5 JUMP JUMPDEST STOP JUMPDEST PUSH2 0x6F PUSH2 0x604 JUMP JUMPDEST PUSH2 0xD5 PUSH2 0xD0 CALLDATASIZE PUSH1 0x4 PUSH2 0xAF6 JUMP JUMPDEST PUSH2 0x768 JUMP JUMPDEST PUSH1 0x40 MLOAD PUSH2 0x7C SWAP4 SWAP3 SWAP2 SWAP1 PUSH2 0xB3B JUMP JUMPDEST PUSH2 0x108 PUSH1 0x40 MLOAD DUP1 PUSH1 0x60 ADD PUSH1 0x40 MSTORE DUP1 PUSH1 0x60 DUP2 MSTORE PUSH1 0x20 ADD PUSH1 0x60 DUP2 MSTORE PUSH1 0x20 ADD PUSH1 0x0 DUP2 MSTORE POP SWAP1 JUMP JUMPDEST PUSH1 0x60 PUSH1 0x3 PUSH2 0x116 DUP5 DUP3 PUSH2 0xBFA JUMP JUMPDEST POP PUSH1 0x1 DUP1 SLOAD PUSH1 0x0 SWAP2 PUSH2 0x127 SWAP2 PUSH2 0xCD0 JUMP JUMPDEST SWAP1 POP JUMPDEST DUP1 ISZERO PUSH2 0x2F5 JUMPI PUSH1 0x1 DUP2 DUP2 SLOAD DUP2 LT PUSH2 0x143 JUMPI PUSH2 0x143 PUSH2 0xCE9 JUMP JUMPDEST SWAP1 PUSH1 0x0 MSTORE PUSH1 0x20 PUSH1 0x0 KECCAK256 ADD DUP1 SLOAD PUSH2 0x158 SWAP1 PUSH2 0xB71 JUMP JUMPDEST DUP1 PUSH1 0x1F ADD PUSH1 0x20 DUP1 SWAP2 DIV MUL PUSH1 0x20 ADD PUSH1 0x40 MLOAD SWAP1 DUP2 ADD PUSH1 0x40 MSTORE DUP1 SWAP3 SWAP2 SWAP1 DUP2 DUP2 MSTORE PUSH1 0x20 ADD DUP3 DUP1 SLOAD PUSH2 0x184 SWAP1 PUSH2 0xB71 JUMP JUMPDEST DUP1 ISZERO PUSH2 0x1D1 JUMPI DUP1 PUSH1 0x1F LT PUSH2 0x1A6 JUMPI PUSH2 0x100 DUP1 DUP4 SLOAD DIV MUL DUP4 MSTORE SWAP2 PUSH1 0x20 ADD SWAP2 PUSH2 0x1D1 JUMP JUMPDEST DUP3 ADD SWAP2 SWAP1 PUSH1 0x0 MSTORE PUSH1 0x20 PUSH1 0x0 KECCAK256 SWAP1 JUMPDEST DUP2 SLOAD DUP2 MSTORE SWAP1 PUSH1 0x1 ADD SWAP1 PUSH1 0x20 ADD DUP1 DUP4 GT PUSH2 0x1B4 JUMPI DUP3 SWAP1 SUB PUSH1 0x1F AND DUP3 ADD SWAP2 JUMPDEST POP POP POP POP POP SWAP2 POP DUP4 PUSH1 0x40 MLOAD PUSH1 0x20 ADD PUSH2 0x1E9 SWAP2 SWAP1 PUSH2 0xCFF JUMP JUMPDEST PUSH1 0x40 MLOAD PUSH1 0x20 DUP2 DUP4 SUB SUB DUP2 MSTORE SWAP1 PUSH1 0x40 MSTORE DUP1 MLOAD SWAP1 PUSH1 0x20 ADD KECCAK256 DUP3 PUSH1 0x40 MLOAD PUSH1 0x20 ADD PUSH2 0x210 SWAP2 SWAP1 PUSH2 0xCFF JUMP JUMPDEST PUSH1 0x40 MLOAD PUSH1 0x20 DUP2 DUP4 SUB SUB DUP2 MSTORE SWAP1 PUSH1 0x40 MSTORE DUP1 MLOAD SWAP1 PUSH1 0x20 ADD KECCAK256 SUB PUSH2 0x284 JUMPI PUSH1 0x0 DUP5 PUSH1 0x40 MLOAD PUSH2 0x23B SWAP2 SWAP1 PUSH2 0xCFF JUMP JUMPDEST SWAP1 DUP2 MSTORE PUSH1 0x40 DUP1 MLOAD PUSH1 0x20 SWAP3 DUP2 SWAP1 SUB DUP4 ADD SWAP1 KECCAK256 PUSH1 0x0 DUP5 DUP2 MSTORE SWAP3 MSTORE SWAP1 KECCAK256 PUSH1 0x4 DUP1 PUSH2 0x262 DUP4 DUP3 PUSH2 0xD1B JUMP JUMPDEST POP PUSH1 0x1 DUP2 DUP2 ADD SWAP1 PUSH2 0x275 SWAP1 DUP5 ADD DUP3 PUSH2 0xD1B JUMP JUMPDEST POP PUSH1 0x2 SWAP2 DUP3 ADD SLOAD SWAP2 ADD SSTORE PUSH2 0x2F5 JUMP JUMPDEST PUSH1 0x40 DUP1 MLOAD PUSH1 0x80 DUP2 ADD DUP3 MSTORE PUSH1 0x0 PUSH1 0x60 DUP3 ADD DUP2 DUP2 MSTORE DUP3 MSTORE DUP3 MLOAD PUSH1 0x20 DUP2 DUP2 ADD DUP6 MSTORE DUP3 DUP3 MSTORE DUP4 ADD MSTORE SWAP2 DUP2 ADD SWAP2 SWAP1 SWAP2 MSTORE DUP1 MLOAD PUSH1 0x4 SWAP1 DUP2 SWAP1 PUSH2 0x2C0 SWAP1 DUP3 PUSH2 0xBFA JUMP JUMPDEST POP PUSH1 0x20 DUP3 ADD MLOAD PUSH1 0x1 DUP3 ADD SWAP1 PUSH2 0x2D5 SWAP1 DUP3 PUSH2 0xBFA JUMP JUMPDEST POP PUSH1 0x40 DUP3 ADD MLOAD DUP2 PUSH1 0x2 ADD SSTORE SWAP1 POP POP DUP1 PUSH2 0x2ED DUP2 PUSH2 0xDF6 JUMP JUMPDEST SWAP2 POP POP PUSH2 0x12A JUMP JUMPDEST POP PUSH1 0x4 PUSH1 0x40 MLOAD DUP1 PUSH1 0x60 ADD PUSH1 0x40 MSTORE SWAP1 DUP2 PUSH1 0x0 DUP3 ADD DUP1 SLOAD PUSH2 0x313 SWAP1 PUSH2 0xB71 JUMP JUMPDEST DUP1 PUSH1 0x1F ADD PUSH1 0x20 DUP1 SWAP2 DIV MUL PUSH1 0x20 ADD PUSH1 0x40 MLOAD SWAP1 DUP2 ADD PUSH1 0x40 MSTORE DUP1 SWAP3 SWAP2 SWAP1 DUP2 DUP2 MSTORE PUSH1 0x20 ADD DUP3 DUP1 SLOAD PUSH2 0x33F SWAP1 PUSH2 0xB71 JUMP JUMPDEST DUP1 ISZERO PUSH2 0x38C JUMPI DUP1 PUSH1 0x1F LT PUSH2 0x361 JUMPI PUSH2 0x100 DUP1 DUP4 SLOAD DIV MUL DUP4 MSTORE SWAP2 PUSH1 0x20 ADD SWAP2 PUSH2 0x38C JUMP JUMPDEST DUP3 ADD SWAP2 SWAP1 PUSH1 0x0 MSTORE PUSH1 0x20 PUSH1 0x0 KECCAK256 SWAP1 JUMPDEST DUP2 SLOAD DUP2 MSTORE SWAP1 PUSH1 0x1 ADD SWAP1 PUSH1 0x20 ADD DUP1 DUP4 GT PUSH2 0x36F JUMPI DUP3 SWAP1 SUB PUSH1 0x1F AND DUP3 ADD SWAP2 JUMPDEST POP POP POP POP POP DUP2 MSTORE PUSH1 0x20 ADD PUSH1 0x1 DUP3 ADD DUP1 SLOAD PUSH2 0x3A5 SWAP1 PUSH2 0xB71 JUMP JUMPDEST DUP1 PUSH1 0x1F ADD PUSH1 0x20 DUP1 SWAP2 DIV MUL PUSH1 0x20 ADD PUSH1 0x40 MLOAD SWAP1 DUP2 ADD PUSH1 0x40 MSTORE DUP1 SWAP3 SWAP2 SWAP1 DUP2 DUP2 MSTORE PUSH1 0x20 ADD DUP3 DUP1 SLOAD PUSH2 0x3D1 SWAP1 PUSH2 0xB71 JUMP JUMPDEST DUP1 ISZERO PUSH2 0x41E JUMPI DUP1 PUSH1 0x1F LT PUSH2 0x3F3 JUMPI PUSH2 0x100 DUP1 DUP4 SLOAD DIV MUL DUP4 MSTORE SWAP2 PUSH1 0x20 ADD SWAP2 PUSH2 0x41E JUMP JUMPDEST DUP3 ADD SWAP2 SWAP1 PUSH1 0x0 MSTORE PUSH1 0x20 PUSH1 0x0 KECCAK256 SWAP1 JUMPDEST DUP2 SLOAD DUP2 MSTORE SWAP1 PUSH1 0x1 ADD SWAP1 PUSH1 0x20 ADD DUP1 DUP4 GT PUSH2 0x401 JUMPI DUP3 SWAP1 SUB PUSH1 0x1F AND DUP3 ADD SWAP2 JUMPDEST POP POP POP POP POP DUP2 MSTORE PUSH1 0x20 ADD PUSH1 0x2 DUP3 ADD SLOAD DUP2 MSTORE POP POP SWAP2 POP POP SWAP2 SWAP1 POP JUMP JUMPDEST PUSH1 0x1 DUP2 DUP2 SLOAD DUP2 LT PUSH2 0x449 JUMPI PUSH1 0x0 DUP1 REVERT JUMPDEST SWAP1 PUSH1 0x0 MSTORE PUSH1 0x20 PUSH1 0x0 KECCAK256 ADD PUSH1 0x0 SWAP2 POP SWAP1 POP DUP1 SLOAD PUSH2 0x464 SWAP1 PUSH2 0xB71 JUMP JUMPDEST DUP1 PUSH1 0x1F ADD PUSH1 0x20 DUP1 SWAP2 DIV MUL PUSH1 0x20 ADD PUSH1 0x40 MLOAD SWAP1 DUP2 ADD PUSH1 0x40 MSTORE DUP1 SWAP3 SWAP2 SWAP1 DUP2 DUP2 MSTORE PUSH1 0x20 ADD DUP3 DUP1 SLOAD PUSH2 0x490 SWAP1 PUSH2 0xB71 JUMP JUMPDEST DUP1 ISZERO PUSH2 0x4DD JUMPI DUP1 PUSH1 0x1F LT PUSH2 0x4B2 JUMPI PUSH2 0x100 DUP1 DUP4 SLOAD DIV MUL DUP4 MSTORE SWAP2 PUSH1 0x20 ADD SWAP2 PUSH2 0x4DD JUMP JUMPDEST DUP3 ADD SWAP2 SWAP1 PUSH1 0x0 MSTORE PUSH1 0x20 PUSH1 0x0 KECCAK256 SWAP1 JUMPDEST DUP2 SLOAD DUP2 MSTORE SWAP1 PUSH1 0x1 ADD SWAP1 PUSH1 0x20 ADD DUP1 DUP4 GT PUSH2 0x4C0 JUMPI DUP3 SWAP1 SUB PUSH1 0x1F AND DUP3 ADD SWAP2 JUMPDEST POP POP POP POP POP DUP2 JUMP JUMPDEST PUSH1 0x0 PUSH1 0x40 MLOAD DUP1 PUSH1 0x60 ADD PUSH1 0x40 MSTORE DUP1 DUP6 DUP2 MSTORE PUSH1 0x20 ADD DUP5 DUP2 MSTORE PUSH1 0x20 ADD DUP4 DUP2 MSTORE POP SWAP1 POP DUP1 PUSH1 0x0 DUP7 PUSH1 0x40 MLOAD PUSH2 0x515 SWAP2 SWAP1 PUSH2 0xCFF JUMP JUMPDEST SWAP1 DUP2 MSTORE PUSH1 0x40 DUP1 MLOAD PUSH1 0x20 SWAP3 DUP2 SWAP1 SUB DUP4 ADD SWAP1 KECCAK256 PUSH1 0x2 SLOAD PUSH1 0x0 SWAP1 DUP2 MSTORE SWAP3 MSTORE SWAP1 KECCAK256 DUP2 MLOAD DUP2 SWAP1 PUSH2 0x540 SWAP1 DUP3 PUSH2 0xBFA JUMP JUMPDEST POP PUSH1 0x20 DUP3 ADD MLOAD PUSH1 0x1 DUP3 ADD SWAP1 PUSH2 0x555 SWAP1 DUP3 PUSH2 0xBFA JUMP JUMPDEST POP PUSH1 0x40 SWAP2 SWAP1 SWAP2 ADD MLOAD PUSH1 0x2 SWAP1 SWAP2 ADD SSTORE PUSH1 0x1 DUP1 SLOAD DUP1 DUP3 ADD DUP3 SSTORE PUSH1 0x0 SWAP2 SWAP1 SWAP2 MSTORE PUSH32 0xB10E2D527612073B26EECDFD717E6A320CF44B4AFAC2B0732D9FCBE2B7FA0CF6 ADD PUSH2 0x59E DUP7 DUP3 PUSH2 0xBFA JUMP JUMPDEST POP PUSH1 0x2 DUP1 SLOAD SWAP1 PUSH1 0x0 PUSH2 0x5AF DUP4 PUSH2 0xE0D JUMP JUMPDEST SWAP2 SWAP1 POP SSTORE POP PUSH32 0xA7BC20709CABA58FD883BA02796E1A58B1ACE146F9524DF90B4BD7159754BF26 DUP6 DUP3 PUSH1 0x0 ADD MLOAD DUP4 PUSH1 0x20 ADD MLOAD DUP5 PUSH1 0x40 ADD MLOAD PUSH1 0x40 MLOAD PUSH2 0x5F5 SWAP5 SWAP4 SWAP3 SWAP2 SWAP1 PUSH2 0xE26 JUMP JUMPDEST PUSH1 0x40 MLOAD DUP1 SWAP2 SUB SWAP1 LOG1 POP POP POP POP POP JUMP JUMPDEST PUSH2 0x628 PUSH1 0x40 MLOAD DUP1 PUSH1 0x60 ADD PUSH1 0x40 MSTORE DUP1 PUSH1 0x60 DUP2 MSTORE PUSH1 0x20 ADD PUSH1 0x60 DUP2 MSTORE PUSH1 0x20 ADD PUSH1 0x0 DUP2 MSTORE POP SWAP1 JUMP JUMPDEST PUSH1 0x4 PUSH1 0x40 MLOAD DUP1 PUSH1 0x60 ADD PUSH1 0x40 MSTORE SWAP1 DUP2 PUSH1 0x0 DUP3 ADD DUP1 SLOAD PUSH2 0x645 SWAP1 PUSH2 0xB71 JUMP JUMPDEST DUP1 PUSH1 0x1F ADD PUSH1 0x20 DUP1 SWAP2 DIV MUL PUSH1 0x20 ADD PUSH1 0x40 MLOAD SWAP1 DUP2 ADD PUSH1 0x40 MSTORE DUP1 SWAP3 SWAP2 SWAP1 DUP2 DUP2 MSTORE PUSH1 0x20 ADD DUP3 DUP1 SLOAD PUSH2 0x671 SWAP1 PUSH2 0xB71 JUMP JUMPDEST DUP1 ISZERO PUSH2 0x6BE JUMPI DUP1 PUSH1 0x1F LT PUSH2 0x693 JUMPI PUSH2 0x100 DUP1 DUP4 SLOAD DIV MUL DUP4 MSTORE SWAP2 PUSH1 0x20 ADD SWAP2 PUSH2 0x6BE JUMP JUMPDEST DUP3 ADD SWAP2 SWAP1 PUSH1 0x0 MSTORE PUSH1 0x20 PUSH1 0x0 KECCAK256 SWAP1 JUMPDEST DUP2 SLOAD DUP2 MSTORE SWAP1 PUSH1 0x1 ADD SWAP1 PUSH1 0x20 ADD DUP1 DUP4 GT PUSH2 0x6A1 JUMPI DUP3 SWAP1 SUB PUSH1 0x1F AND DUP3 ADD SWAP2 JUMPDEST POP POP POP POP POP DUP2 MSTORE PUSH1 0x20 ADD PUSH1 0x1 DUP3 ADD DUP1 SLOAD PUSH2 0x6D7 SWAP1 PUSH2 0xB71 JUMP JUMPDEST DUP1 PUSH1 0x1F ADD PUSH1 0x20 DUP1 SWAP2 DIV MUL PUSH1 0x20 ADD PUSH1 0x40 MLOAD SWAP1 DUP2 ADD PUSH1 0x40 MSTORE DUP1 SWAP3 SWAP2 SWAP1 DUP2 DUP2 MSTORE PUSH1 0x20 ADD DUP3 DUP1 SLOAD PUSH2 0x703 SWAP1 PUSH2 0xB71 JUMP JUMPDEST DUP1 ISZERO PUSH2 0x750 JUMPI DUP1 PUSH1 0x1F LT PUSH2 0x725 JUMPI PUSH2 0x100 DUP1 DUP4 SLOAD DIV MUL DUP4 MSTORE SWAP2 PUSH1 0x20 ADD SWAP2 PUSH2 0x750 JUMP JUMPDEST DUP3 ADD SWAP2 SWAP1 PUSH1 0x0 MSTORE PUSH1 0x20 PUSH1 0x0 KECCAK256 SWAP1 JUMPDEST DUP2 SLOAD DUP2 MSTORE SWAP1 PUSH1 0x1 ADD SWAP1 PUSH1 0x20 ADD DUP1 DUP4 GT PUSH2 0x733 JUMPI DUP3 SWAP1 SUB PUSH1 0x1F AND DUP3 ADD SWAP2 JUMPDEST POP POP POP POP POP DUP2 MSTORE PUSH1 0x20 ADD PUSH1 0x2 DUP3 ADD SLOAD DUP2 MSTORE POP POP SWAP1 POP SWAP1 JUMP JUMPDEST DUP2 MLOAD PUSH1 0x20 DUP2 DUP5 ADD DUP2 ADD DUP1 MLOAD PUSH1 0x0 DUP1 DUP4 MSTORE SWAP4 DUP4 ADD SWAP6 DUP4 ADD SWAP6 SWAP1 SWAP6 KECCAK256 SWAP5 SWAP1 MSTORE SWAP3 SWAP1 SWAP3 MSTORE DUP2 MSTORE PUSH1 0x40 SWAP1 KECCAK256 DUP1 SLOAD DUP2 SWAP1 PUSH2 0x79C SWAP1 PUSH2 0xB71 JUMP JUMPDEST DUP1 PUSH1 0x1F ADD PUSH1 0x20 DUP1 SWAP2 DIV MUL PUSH1 0x20 ADD PUSH1 0x40 MLOAD SWAP1 DUP2 ADD PUSH1 0x40 MSTORE DUP1 SWAP3 SWAP2 SWAP1 DUP2 DUP2 MSTORE PUSH1 0x20 ADD DUP3 DUP1 SLOAD PUSH2 0x7C8 SWAP1 PUSH2 0xB71 JUMP JUMPDEST DUP1 ISZERO PUSH2 0x815 JUMPI DUP1 PUSH1 0x1F LT PUSH2 0x7EA JUMPI PUSH2 0x100 DUP1 DUP4 SLOAD DIV MUL DUP4 MSTORE SWAP2 PUSH1 0x20 ADD SWAP2 PUSH2 0x815 JUMP JUMPDEST DUP3 ADD SWAP2 SWAP1 PUSH1 0x0 MSTORE PUSH1 0x20 PUSH1 0x0 KECCAK256 SWAP1 JUMPDEST DUP2 SLOAD DUP2 MSTORE SWAP1 PUSH1 0x1 ADD SWAP1 PUSH1 0x20 ADD DUP1 DUP4 GT PUSH2 0x7F8 JUMPI DUP3 SWAP1 SUB PUSH1 0x1F AND DUP3 ADD SWAP2 JUMPDEST POP POP POP POP POP SWAP1 DUP1 PUSH1 0x1 ADD DUP1 SLOAD PUSH2 0x82A SWAP1 PUSH2 0xB71 JUMP JUMPDEST DUP1 PUSH1 0x1F ADD PUSH1 0x20 DUP1 SWAP2 DIV MUL PUSH1 0x20 ADD PUSH1 0x40 MLOAD SWAP1 DUP2 ADD PUSH1 0x40 MSTORE DUP1 SWAP3 SWAP2 SWAP1 DUP2 DUP2 MSTORE PUSH1 0x20 ADD DUP3 DUP1 SLOAD PUSH2 0x856 SWAP1 PUSH2 0xB71 JUMP JUMPDEST DUP1 ISZERO PUSH2 0x8A3 JUMPI DUP1 PUSH1 0x1F LT PUSH2 0x878 JUMPI PUSH2 0x100 DUP1 DUP4 SLOAD DIV MUL DUP4 MSTORE SWAP2 PUSH1 0x20 ADD SWAP2 PUSH2 0x8A3 JUMP JUMPDEST DUP3 ADD SWAP2 SWAP1 PUSH1 0x0 MSTORE PUSH1 0x20 PUSH1 0x0 KECCAK256 SWAP1 JUMPDEST DUP2 SLOAD DUP2 MSTORE SWAP1 PUSH1 0x1 ADD SWAP1 PUSH1 0x20 ADD DUP1 DUP4 GT PUSH2 0x886 JUMPI DUP3 SWAP1 SUB PUSH1 0x1F AND DUP3 ADD SWAP2 JUMPDEST POP POP POP POP POP SWAP1 DUP1 PUSH1 0x2 ADD SLOAD SWAP1 POP DUP4 JUMP JUMPDEST PUSH4 0x4E487B71 PUSH1 0xE0 SHL PUSH1 0x0 MSTORE PUSH1 0x41 PUSH1 0x4 MSTORE PUSH1 0x24 PUSH1 0x0 REVERT JUMPDEST PUSH1 0x0 DUP3 PUSH1 0x1F DUP4 ADD SLT PUSH2 0x8DA JUMPI PUSH1 0x0 DUP1 REVERT JUMPDEST DUP2 CALLDATALOAD PUSH8 0xFFFFFFFFFFFFFFFF DUP1 DUP3 GT ISZERO PUSH2 0x8F5 JUMPI PUSH2 0x8F5 PUSH2 0x8B3 JUMP JUMPDEST PUSH1 0x40 MLOAD PUSH1 0x1F DUP4 ADD PUSH1 0x1F NOT SWAP1 DUP2 AND PUSH1 0x3F ADD AND DUP2 ADD SWAP1 DUP3 DUP3 GT DUP2 DUP4 LT OR ISZERO PUSH2 0x91D JUMPI PUSH2 0x91D PUSH2 0x8B3 JUMP JUMPDEST DUP2 PUSH1 0x40 MSTORE DUP4 DUP2 MSTORE DUP7 PUSH1 0x20 DUP6 DUP9 ADD ADD GT ISZERO PUSH2 0x936 JUMPI PUSH1 0x0 DUP1 REVERT JUMPDEST DUP4 PUSH1 0x20 DUP8 ADD PUSH1 0x20 DUP4 ADD CALLDATACOPY PUSH1 0x0 PUSH1 0x20 DUP6 DUP4 ADD ADD MSTORE DUP1 SWAP5 POP POP POP POP POP SWAP3 SWAP2 POP POP JUMP JUMPDEST PUSH1 0x0 PUSH1 0x20 DUP3 DUP5 SUB SLT ISZERO PUSH2 0x968 JUMPI PUSH1 0x0 DUP1 REVERT JUMPDEST DUP2 CALLDATALOAD PUSH8 0xFFFFFFFFFFFFFFFF DUP2 GT ISZERO PUSH2 0x97F JUMPI PUSH1 0x0 DUP1 REVERT JUMPDEST PUSH2 0x98B DUP5 DUP3 DUP6 ADD PUSH2 0x8C9 JUMP JUMPDEST SWAP5 SWAP4 POP POP POP POP JUMP JUMPDEST PUSH1 0x0 JUMPDEST DUP4 DUP2 LT ISZERO PUSH2 0x9AE JUMPI DUP2 DUP2 ADD MLOAD DUP4 DUP3 ADD MSTORE PUSH1 0x20 ADD PUSH2 0x996 JUMP JUMPDEST POP POP PUSH1 0x0 SWAP2 ADD MSTORE JUMP JUMPDEST PUSH1 0x0 DUP2 MLOAD DUP1 DUP5 MSTORE PUSH2 0x9CF DUP2 PUSH1 0x20 DUP7 ADD PUSH1 0x20 DUP7 ADD PUSH2 0x993 JUMP JUMPDEST PUSH1 0x1F ADD PUSH1 0x1F NOT AND SWAP3 SWAP1 SWAP3 ADD PUSH1 0x20 ADD SWAP3 SWAP2 POP POP JUMP JUMPDEST PUSH1 0x20 DUP2 MSTORE PUSH1 0x0 DUP3 MLOAD PUSH1 0x60 PUSH1 0x20 DUP5 ADD MSTORE PUSH2 0x9FF PUSH1 0x80 DUP5 ADD DUP3 PUSH2 0x9B7 JUMP JUMPDEST SWAP1 POP PUSH1 0x20 DUP5 ADD MLOAD PUSH1 0x1F NOT DUP5 DUP4 SUB ADD PUSH1 0x40 DUP6 ADD MSTORE PUSH2 0xA1C DUP3 DUP3 PUSH2 0x9B7 JUMP JUMPDEST SWAP2 POP POP PUSH1 0x40 DUP5 ADD MLOAD PUSH1 0x60 DUP5 ADD MSTORE DUP1 SWAP2 POP POP SWAP3 SWAP2 POP POP JUMP JUMPDEST PUSH1 0x0 PUSH1 0x20 DUP3 DUP5 SUB SLT ISZERO PUSH2 0xA45 JUMPI PUSH1 0x0 DUP1 REVERT JUMPDEST POP CALLDATALOAD SWAP2 SWAP1 POP JUMP JUMPDEST PUSH1 0x20 DUP2 MSTORE PUSH1 0x0 PUSH2 0xA5F PUSH1 0x20 DUP4 ADD DUP5 PUSH2 0x9B7 JUMP JUMPDEST SWAP4 SWAP3 POP POP POP JUMP JUMPDEST PUSH1 0x0 DUP1 PUSH1 0x0 DUP1 PUSH1 0x80 DUP6 DUP8 SUB SLT ISZERO PUSH2 0xA7C JUMPI PUSH1 0x0 DUP1 REVERT JUMPDEST DUP5 CALLDATALOAD PUSH8 0xFFFFFFFFFFFFFFFF DUP1 DUP3 GT ISZERO PUSH2 0xA94 JUMPI PUSH1 0x0 DUP1 REVERT JUMPDEST PUSH2 0xAA0 DUP9 DUP4 DUP10 ADD PUSH2 0x8C9 JUMP JUMPDEST SWAP6 POP PUSH1 0x20 DUP8 ADD CALLDATALOAD SWAP2 POP DUP1 DUP3 GT ISZERO PUSH2 0xAB6 JUMPI PUSH1 0x0 DUP1 REVERT JUMPDEST PUSH2 0xAC2 DUP9 DUP4 DUP10 ADD PUSH2 0x8C9 JUMP JUMPDEST SWAP5 POP PUSH1 0x40 DUP8 ADD CALLDATALOAD SWAP2 POP DUP1 DUP3 GT ISZERO PUSH2 0xAD8 JUMPI PUSH1 0x0 DUP1 REVERT JUMPDEST POP PUSH2 0xAE5 DUP8 DUP3 DUP9 ADD PUSH2 0x8C9 JUMP JUMPDEST SWAP5 SWAP8 SWAP4 SWAP7 POP SWAP4 SWAP5 PUSH1 0x60 ADD CALLDATALOAD SWAP4 POP POP POP JUMP JUMPDEST PUSH1 0x0 DUP1 PUSH1 0x40 DUP4 DUP6 SUB SLT ISZERO PUSH2 0xB09 JUMPI PUSH1 0x0 DUP1 REVERT JUMPDEST DUP3 CALLDATALOAD PUSH8 0xFFFFFFFFFFFFFFFF DUP2 GT ISZERO PUSH2 0xB20 JUMPI PUSH1 0x0 DUP1 REVERT JUMPDEST PUSH2 0xB2C DUP6 DUP3 DUP7 ADD PUSH2 0x8C9 JUMP JUMPDEST SWAP6 PUSH1 0x20 SWAP5 SWAP1 SWAP5 ADD CALLDATALOAD SWAP5 POP POP POP POP JUMP JUMPDEST PUSH1 0x60 DUP2 MSTORE PUSH1 0x0 PUSH2 0xB4E PUSH1 0x60 DUP4 ADD DUP7 PUSH2 0x9B7 JUMP JUMPDEST DUP3 DUP2 SUB PUSH1 0x20 DUP5 ADD MSTORE PUSH2 0xB60 DUP2 DUP7 PUSH2 0x9B7 JUMP JUMPDEST SWAP2 POP POP DUP3 PUSH1 0x40 DUP4 ADD MSTORE SWAP5 SWAP4 POP POP POP POP JUMP JUMPDEST PUSH1 0x1 DUP2 DUP2 SHR SWAP1 DUP3 AND DUP1 PUSH2 0xB85 JUMPI PUSH1 0x7F DUP3 AND SWAP2 POP JUMPDEST PUSH1 0x20 DUP3 LT DUP2 SUB PUSH2 0xBA5 JUMPI PUSH4 0x4E487B71 PUSH1 0xE0 SHL PUSH1 0x0 MSTORE PUSH1 0x22 PUSH1 0x4 MSTORE PUSH1 0x24 PUSH1 0x0 REVERT JUMPDEST POP SWAP2 SWAP1 POP JUMP JUMPDEST PUSH1 0x1F DUP3 GT ISZERO PUSH2 0xBF5 JUMPI PUSH1 0x0 DUP2 DUP2 MSTORE PUSH1 0x20 DUP2 KECCAK256 PUSH1 0x1F DUP6 ADD PUSH1 0x5 SHR DUP2 ADD PUSH1 0x20 DUP7 LT ISZERO PUSH2 0xBD2 JUMPI POP DUP1 JUMPDEST PUSH1 0x1F DUP6 ADD PUSH1 0x5 SHR DUP3 ADD SWAP2 POP JUMPDEST DUP2 DUP2 LT ISZERO PUSH2 0xBF1 JUMPI DUP3 DUP2 SSTORE PUSH1 0x1 ADD PUSH2 0xBDE JUMP JUMPDEST POP POP POP JUMPDEST POP POP POP JUMP JUMPDEST DUP2 MLOAD PUSH8 0xFFFFFFFFFFFFFFFF DUP2 GT ISZERO PUSH2 0xC14 JUMPI PUSH2 0xC14 PUSH2 0x8B3 JUMP JUMPDEST PUSH2 0xC28 DUP2 PUSH2 0xC22 DUP5 SLOAD PUSH2 0xB71 JUMP JUMPDEST DUP5 PUSH2 0xBAB JUMP JUMPDEST PUSH1 0x20 DUP1 PUSH1 0x1F DUP4 GT PUSH1 0x1 DUP2 EQ PUSH2 0xC5D JUMPI PUSH1 0x0 DUP5 ISZERO PUSH2 0xC45 JUMPI POP DUP6 DUP4 ADD MLOAD JUMPDEST PUSH1 0x0 NOT PUSH1 0x3 DUP7 SWAP1 SHL SHR NOT AND PUSH1 0x1 DUP6 SWAP1 SHL OR DUP6 SSTORE PUSH2 0xBF1 JUMP JUMPDEST PUSH1 0x0 DUP6 DUP2 MSTORE PUSH1 0x20 DUP2 KECCAK256 PUSH1 0x1F NOT DUP7 AND SWAP2 JUMPDEST DUP3 DUP2 LT ISZERO PUSH2 0xC8C JUMPI DUP9 DUP7 ADD MLOAD DUP3 SSTORE SWAP5 DUP5 ADD SWAP5 PUSH1 0x1 SWAP1 SWAP2 ADD SWAP1 DUP5 ADD PUSH2 0xC6D JUMP JUMPDEST POP DUP6 DUP3 LT ISZERO PUSH2 0xCAA JUMPI DUP8 DUP6 ADD MLOAD PUSH1 0x0 NOT PUSH1 0x3 DUP9 SWAP1 SHL PUSH1 0xF8 AND SHR NOT AND DUP2 SSTORE JUMPDEST POP POP POP POP POP PUSH1 0x1 SWAP1 DUP2 SHL ADD SWAP1 SSTORE POP JUMP JUMPDEST PUSH4 0x4E487B71 PUSH1 0xE0 SHL PUSH1 0x0 MSTORE PUSH1 0x11 PUSH1 0x4 MSTORE PUSH1 0x24 PUSH1 0x0 REVERT JUMPDEST DUP2 DUP2 SUB DUP2 DUP2 GT ISZERO PUSH2 0xCE3 JUMPI PUSH2 0xCE3 PUSH2 0xCBA JUMP JUMPDEST SWAP3 SWAP2 POP POP JUMP JUMPDEST PUSH4 0x4E487B71 PUSH1 0xE0 SHL PUSH1 0x0 MSTORE PUSH1 0x32 PUSH1 0x4 MSTORE PUSH1 0x24 PUSH1 0x0 REVERT JUMPDEST PUSH1 0x0 DUP3 MLOAD PUSH2 0xD11 DUP2 DUP5 PUSH1 0x20 DUP8 ADD PUSH2 0x993 JUMP JUMPDEST SWAP2 SWAP1 SWAP2 ADD SWAP3 SWAP2 POP POP JUMP JUMPDEST DUP2 DUP2 SUB PUSH2 0xD26 JUMPI POP POP JUMP JUMPDEST PUSH2 0xD30 DUP3 SLOAD PUSH2 0xB71 JUMP JUMPDEST PUSH8 0xFFFFFFFFFFFFFFFF DUP2 GT ISZERO PUSH2 0xD48 JUMPI PUSH2 0xD48 PUSH2 0x8B3 JUMP JUMPDEST PUSH2 0xD56 DUP2 PUSH2 0xC22 DUP5 SLOAD PUSH2 0xB71 JUMP JUMPDEST PUSH1 0x0 PUSH1 0x1F DUP3 GT PUSH1 0x1 DUP2 EQ PUSH2 0xD8A JUMPI PUSH1 0x0 DUP4 ISZERO PUSH2 0xD72 JUMPI POP DUP5 DUP3 ADD SLOAD JUMPDEST PUSH1 0x0 NOT PUSH1 0x3 DUP6 SWAP1 SHL SHR NOT AND PUSH1 0x1 DUP5 SWAP1 SHL OR DUP5 SSTORE PUSH2 0xDEF JUMP JUMPDEST PUSH1 0x0 DUP6 DUP2 MSTORE PUSH1 0x20 SWAP1 KECCAK256 PUSH1 0x1F NOT DUP5 AND SWAP1 PUSH1 0x0 DUP7 DUP2 MSTORE PUSH1 0x20 SWAP1 KECCAK256 DUP5 JUMPDEST DUP4 DUP2 LT ISZERO PUSH2 0xDC4 JUMPI DUP3 DUP7 ADD SLOAD DUP3 SSTORE PUSH1 0x1 SWAP6 DUP7 ADD SWAP6 SWAP1 SWAP2 ADD SWAP1 PUSH1 0x20 ADD PUSH2 0xDA4 JUMP JUMPDEST POP DUP6 DUP4 LT ISZERO PUSH2 0xDE2 JUMPI DUP2 DUP6 ADD SLOAD PUSH1 0x0 NOT PUSH1 0x3 DUP9 SWAP1 SHL PUSH1 0xF8 AND SHR NOT AND DUP2 SSTORE JUMPDEST POP POP POP PUSH1 0x1 DUP4 PUSH1 0x1 SHL ADD DUP5 SSTORE JUMPDEST POP POP POP POP POP JUMP JUMPDEST PUSH1 0x0 DUP2 PUSH2 0xE05 JUMPI PUSH2 0xE05 PUSH2 0xCBA JUMP JUMPDEST POP PUSH1 0x0 NOT ADD SWAP1 JUMP JUMPDEST PUSH1 0x0 PUSH1 0x1 DUP3 ADD PUSH2 0xE1F JUMPI PUSH2 0xE1F PUSH2 0xCBA JUMP JUMPDEST POP PUSH1 0x1 ADD SWAP1 JUMP JUMPDEST PUSH1 0x80 DUP2 MSTORE PUSH1 0x0 PUSH2 0xE39 PUSH1 0x80 DUP4 ADD DUP8 PUSH2 0x9B7 JUMP JUMPDEST DUP3 DUP2 SUB PUSH1 0x20 DUP5 ADD MSTORE PUSH2 0xE4B DUP2 DUP8 PUSH2 0x9B7 JUMP JUMPDEST SWAP1 POP DUP3 DUP2 SUB PUSH1 0x40 DUP5 ADD MSTORE PUSH2 0xE5F DUP2 DUP7 PUSH2 0x9B7 JUMP JUMPDEST SWAP2 POP POP DUP3 PUSH1 0x60 DUP4 ADD MSTORE SWAP6 SWAP5 POP POP POP POP POP JUMP INVALID LOG2 PUSH5 0x6970667358 0x22 SLT KECCAK256 PUSH2 0x55D3 SWAP3 JUMPDEST 0xCC 0xE3 KECCAK256 0x2A 0xCB DIV SWAP4 COINBASE 0xC3 0xCA 0xC0 PUSH31 0xC2C858B389D0A0C351E6379FCE63AD64736F6C634300081400330000000000 ",
  "sha1": "944d0bd827651085712d6ee8d06f5da7c0d2776c",
  "source": "pragma solidity ^0.8.19;\ncontract transcache {\n    \n    event Transfercachedcontent(string Content_key,string hash_ID, string token_sign, int256 splitsizecontent_ID);\n    struct Content_cache {\n        \n        string hash_ID;\n        string token_sign;\n        int256 splitsizecontent_ID; \n    }\n    \n    mapping(string => mapping(uint256 =>Content_cache)) public Contentcache;\n    string[] public ContentkeyArray;\n    uint256 id=1;\n    string Generalcontentkey;\n    Content_cache restoreContentcache;\n    constructor () {\n       \n        ContentkeyArray.push(\"0\");\n        Content_cache memory initContentcache=Content_cache({ hash_ID:\"\",token_sign:\"\",splitsizecontent_ID:0});\n        Contentcache[\"0\"][0]=initContentcache;\n      \n    }\n        \n    function Storecontentinedgeservercache(string memory Contentkey,string memory hashID, string memory  tokensign, int256 splitsizecontentID )public {\n        Content_cache memory struct_Contentcache=Content_cache(hashID,tokensign,splitsizecontentID);\n        Contentcache[Contentkey][id]=struct_Contentcache;\n        ContentkeyArray.push(Contentkey);\n        id++;\n        emit Transfercachedcontent(Contentkey,struct_Contentcache.hash_ID,struct_Contentcache.token_sign,struct_Contentcache.splitsizecontent_ID);\n\n    }\n    \n    function Readcontentfromedgeservercache(string memory Contentkey)public returns(Content_cache memory){\n        string memory _Contentkey;\n        Generalcontentkey=Contentkey;\n        for(uint i=ContentkeyArray.length-1;i>0;i--)\n        {\n            _Contentkey=ContentkeyArray[i];\n            if(keccak256(abi.encodePacked(_Contentkey)) == keccak256(abi.encodePacked(Contentkey)))\n            {\n                restoreContentcache=Contentcache[Contentkey][i];\n                break;\n            }\n            else{\n                restoreContentcache=Content_cache({ hash_ID:\"\",token_sign:\"\",splitsizecontent_ID:0});\n            }\n        }\n        return restoreContentcache;\n\n    }\n    function getcontentfromedgeservercache()public view returns(Content_cache memory)\n    {\n        return restoreContentcache;\n    }\n\n\n        \n}",
  "sourcePath": "contracts/Storecontentincache.sol",
  "type": "contract"
}